{
  "_format": "hh-sol-artifact-1",
  "contractName": "LiquidityLocker",
  "sourceName": "contracts/LiquidityLocker.sol",
  "abi": [
    {
      "inputs": [
        {
          "internalType": "address",
          "name": "initialOwner",
          "type": "address"
        }
      ],
      "stateMutability": "nonpayable",
      "type": "constructor"
    },
    {
      "inputs": [
        {
          "internalType": "address",
          "name": "owner",
          "type": "address"
        }
      ],
      "name": "OwnableInvalidOwner",
      "type": "error"
    },
    {
      "inputs": [
        {
          "internalType": "address",
          "name": "account",
          "type": "address"
        }
      ],
      "name": "OwnableUnauthorizedAccount",
      "type": "error"
    },
    {
      "inputs": [],
      "name": "ReentrancyGuardReentrantCall",
      "type": "error"
    },
    {
      "anonymous": false,
      "inputs": [
        {
          "indexed": true,
          "internalType": "uint256",
          "name": "lockId",
          "type": "uint256"
        },
        {
          "indexed": false,
          "internalType": "uint256",
          "name": "newUnlockTime",
          "type": "uint256"
        }
      ],
      "name": "LockExtended",
      "type": "event"
    },
    {
      "anonymous": false,
      "inputs": [
        {
          "indexed": true,
          "internalType": "address",
          "name": "previousOwner",
          "type": "address"
        },
        {
          "indexed": true,
          "internalType": "address",
          "name": "newOwner",
          "type": "address"
        }
      ],
      "name": "OwnershipTransferred",
      "type": "event"
    },
    {
      "anonymous": false,
      "inputs": [
        {
          "indexed": true,
          "internalType": "uint256",
          "name": "lockId",
          "type": "uint256"
        },
        {
          "indexed": true,
          "internalType": "address",
          "name": "token",
          "type": "address"
        },
        {
          "indexed": true,
          "internalType": "address",
          "name": "beneficiary",
          "type": "address"
        },
        {
          "indexed": false,
          "internalType": "uint256",
          "name": "amount",
          "type": "uint256"
        },
        {
          "indexed": false,
          "internalType": "uint256",
          "name": "unlockTime",
          "type": "uint256"
        }
      ],
      "name": "TokensLocked",
      "type": "event"
    },
    {
      "anonymous": false,
      "inputs": [
        {
          "indexed": true,
          "internalType": "uint256",
          "name": "lockId",
          "type": "uint256"
        },
        {
          "indexed": true,
          "internalType": "address",
          "name": "token",
          "type": "address"
        },
        {
          "indexed": true,
          "internalType": "address",
          "name": "beneficiary",
          "type": "address"
        },
        {
          "indexed": false,
          "internalType": "uint256",
          "name": "amount",
          "type": "uint256"
        }
      ],
      "name": "TokensWithdrawn",
      "type": "event"
    },
    {
      "inputs": [],
      "name": "MIN_LOCK_PERIOD",
      "outputs": [
        {
          "internalType": "uint256",
          "name": "",
          "type": "uint256"
        }
      ],
      "stateMutability": "view",
      "type": "function"
    },
    {
      "inputs": [
        {
          "internalType": "uint256",
          "name": "lockId",
          "type": "uint256"
        }
      ],
      "name": "canWithdraw",
      "outputs": [
        {
          "internalType": "bool",
          "name": "canWithdraw",
          "type": "bool"
        },
        {
          "internalType": "uint256",
          "name": "timeRemaining",
          "type": "uint256"
        }
      ],
      "stateMutability": "view",
      "type": "function"
    },
    {
      "inputs": [
        {
          "internalType": "address",
          "name": "token",
          "type": "address"
        },
        {
          "internalType": "uint256",
          "name": "amount",
          "type": "uint256"
        }
      ],
      "name": "emergencyRecoverToken",
      "outputs": [],
      "stateMutability": "nonpayable",
      "type": "function"
    },
    {
      "inputs": [
        {
          "internalType": "uint256",
          "name": "lockId",
          "type": "uint256"
        },
        {
          "internalType": "uint256",
          "name": "newUnlockTime",
          "type": "uint256"
        }
      ],
      "name": "extendLock",
      "outputs": [],
      "stateMutability": "nonpayable",
      "type": "function"
    },
    {
      "inputs": [
        {
          "internalType": "uint256",
          "name": "lockId",
          "type": "uint256"
        }
      ],
      "name": "getLockInfo",
      "outputs": [
        {
          "components": [
            {
              "internalType": "address",
              "name": "token",
              "type": "address"
            },
            {
              "internalType": "uint256",
              "name": "amount",
              "type": "uint256"
            },
            {
              "internalType": "uint256",
              "name": "lockTime",
              "type": "uint256"
            },
            {
              "internalType": "uint256",
              "name": "unlockTime",
              "type": "uint256"
            },
            {
              "internalType": "address",
              "name": "beneficiary",
              "type": "address"
            },
            {
              "internalType": "bool",
              "name": "withdrawn",
              "type": "bool"
            }
          ],
          "internalType": "struct LiquidityLocker.LockInfo",
          "name": "",
          "type": "tuple"
        }
      ],
      "stateMutability": "view",
      "type": "function"
    },
    {
      "inputs": [
        {
          "internalType": "address",
          "name": "token",
          "type": "address"
        }
      ],
      "name": "getTotalLocked",
      "outputs": [
        {
          "internalType": "uint256",
          "name": "totalLocked",
          "type": "uint256"
        }
      ],
      "stateMutability": "view",
      "type": "function"
    },
    {
      "inputs": [
        {
          "internalType": "address",
          "name": "user",
          "type": "address"
        }
      ],
      "name": "getUserLockCount",
      "outputs": [
        {
          "internalType": "uint256",
          "name": "",
          "type": "uint256"
        }
      ],
      "stateMutability": "view",
      "type": "function"
    },
    {
      "inputs": [
        {
          "internalType": "address",
          "name": "user",
          "type": "address"
        }
      ],
      "name": "getUserLocks",
      "outputs": [
        {
          "internalType": "uint256[]",
          "name": "",
          "type": "uint256[]"
        }
      ],
      "stateMutability": "view",
      "type": "function"
    },
    {
      "inputs": [
        {
          "internalType": "address",
          "name": "token",
          "type": "address"
        },
        {
          "internalType": "uint256",
          "name": "amount",
          "type": "uint256"
        },
        {
          "internalType": "uint256",
          "name": "lockPeriod",
          "type": "uint256"
        },
        {
          "internalType": "address",
          "name": "beneficiary",
          "type": "address"
        }
      ],
      "name": "lockTokens",
      "outputs": [
        {
          "internalType": "uint256",
          "name": "lockId",
          "type": "uint256"
        }
      ],
      "stateMutability": "nonpayable",
      "type": "function"
    },
    {
      "inputs": [
        {
          "internalType": "uint256",
          "name": "",
          "type": "uint256"
        }
      ],
      "name": "locks",
      "outputs": [
        {
          "internalType": "address",
          "name": "token",
          "type": "address"
        },
        {
          "internalType": "uint256",
          "name": "amount",
          "type": "uint256"
        },
        {
          "internalType": "uint256",
          "name": "lockTime",
          "type": "uint256"
        },
        {
          "internalType": "uint256",
          "name": "unlockTime",
          "type": "uint256"
        },
        {
          "internalType": "address",
          "name": "beneficiary",
          "type": "address"
        },
        {
          "internalType": "bool",
          "name": "withdrawn",
          "type": "bool"
        }
      ],
      "stateMutability": "view",
      "type": "function"
    },
    {
      "inputs": [],
      "name": "nextLockId",
      "outputs": [
        {
          "internalType": "uint256",
          "name": "",
          "type": "uint256"
        }
      ],
      "stateMutability": "view",
      "type": "function"
    },
    {
      "inputs": [],
      "name": "owner",
      "outputs": [
        {
          "internalType": "address",
          "name": "",
          "type": "address"
        }
      ],
      "stateMutability": "view",
      "type": "function"
    },
    {
      "inputs": [],
      "name": "renounceOwnership",
      "outputs": [],
      "stateMutability": "nonpayable",
      "type": "function"
    },
    {
      "inputs": [
        {
          "internalType": "address",
          "name": "newOwner",
          "type": "address"
        }
      ],
      "name": "transferOwnership",
      "outputs": [],
      "stateMutability": "nonpayable",
      "type": "function"
    },
    {
      "inputs": [
        {
          "internalType": "address",
          "name": "",
          "type": "address"
        },
        {
          "internalType": "uint256",
          "name": "",
          "type": "uint256"
        }
      ],
      "name": "userLocks",
      "outputs": [
        {
          "internalType": "uint256",
          "name": "",
          "type": "uint256"
        }
      ],
      "stateMutability": "view",
      "type": "function"
    },
    {
      "inputs": [
        {
          "internalType": "uint256",
          "name": "lockId",
          "type": "uint256"
        }
      ],
      "name": "withdrawTokens",
      "outputs": [],
      "stateMutability": "nonpayable",
      "type": "function"
    }
  ],
  "bytecode": "0x6080604052600160045534801561001557600080fd5b506040516113033803806113038339810160408190526100349161012d565b806001600160a01b03811661006457604051631e4fbdf760e01b8152600060048201526024015b60405180910390fd5b61006d816100dd565b50600180556001600160a01b0381166100d75760405162461bcd60e51b815260206004820152602660248201527f4c69717569646974794c6f636b65723a20696e76616c6964206f776e6572206160448201526564647265737360d01b606482015260840161005b565b5061015d565b600080546001600160a01b038381166001600160a01b0319831681178455604051919092169283917f8be0079c531659141344cd1fd0a4f28419497f9722a3daafe3b4186f6b6457e09190a35050565b60006020828403121561013f57600080fd5b81516001600160a01b038116811461015657600080fd5b9392505050565b6111978061016c6000396000f3fe608060405234801561001057600080fd5b50600436106101005760003560e01c80637902019411610097578063c9102afd11610066578063c9102afd1461020c578063f2fde38b14610311578063f4dadc6114610324578063fbe85f06146103b757600080fd5b806379020194146101a25780638da5cb5b146101b55780639b7d02ad146101d0578063aa33fedb146101f957600080fd5b8063315a095d116100d3578063315a095d14610173578063385dc3df146101865780636518a0b314610191578063715018a61461019a57600080fd5b806305c77a3c14610105578063070d66bf1461012b5780630aa393f31461014057806323a35de914610153575b600080fd5b610118610113366004610f2e565b6103e1565b6040519081526020015b60405180910390f35b61013e610139366004610f50565b61044c565b005b61011861014e366004610f72565b6105ae565b610166610161366004610f2e565b610913565b6040516101229190610fb8565b61013e610181366004610ffb565b61097f565b6101186301e1338081565b61011860045481565b61013e610b8e565b61013e6101b0366004611014565b610ba2565b6000546040516001600160a01b039091168152602001610122565b6101186101de366004610f2e565b6001600160a01b031660009081526003602052604090205490565b610118610207366004611014565b610d8d565b6102ba61021a366004610ffb565b6040805160c081018252600080825260208201819052918101829052606081018290526080810182905260a081019190915250600090815260026020818152604092839020835160c08101855281546001600160a01b0390811682526001830154938201939093529281015493830193909352600383015460608301526004909201549182166080820152600160a01b90910460ff16151560a082015290565b604051610122919081516001600160a01b0390811682526020808401519083015260408084015190830152606080840151908301526080808401519091169082015260a09182015115159181019190915260c00190565b61013e61031f366004610f2e565b610dbe565b610378610332366004610ffb565b6002602081905260009182526040909120805460018201549282015460038301546004909301546001600160a01b0392831694939192811690600160a01b900460ff1686565b604080516001600160a01b03978816815260208101969096528501939093526060840191909152909216608082015290151560a082015260c001610122565b6103ca6103c5366004610ffb565b610df9565b604080519215158352602083019190915201610122565b600060015b60045481101561044657600081815260026020526040902080546001600160a01b03858116911614801561042657506004810154600160a01b900460ff16155b1561043d57600181015461043a9084611054565b92505b506001016103e6565b50919050565b600082815260026020526040902060018101546104845760405162461bcd60e51b815260040161047b9061106d565b60405180910390fd5b6004810154600160a01b900460ff16156104b05760405162461bcd60e51b815260040161047b906110b1565b60048101546001600160a01b0316331461050c5760405162461bcd60e51b815260206004820181905260248201527f4c69717569646974794c6f636b65723a206e6f742062656e6566696369617279604482015260640161047b565b8060030154821161056d5760405162461bcd60e51b815260206004820152602560248201527f4c69717569646974794c6f636b65723a2063616e206f6e6c7920657874656e64604482015264206c6f636b60d81b606482015260840161047b565b6003810182905560405182815283907f4e4187a5cfd31a235276a431f3c394962d1b05cc4da52f6fa4e5460a5808ee219060200160405180910390a2505050565b60006105b8610e6b565b6001600160a01b03851661061d5760405162461bcd60e51b815260206004820152602660248201527f4c69717569646974794c6f636b65723a20696e76616c696420746f6b656e206160448201526564647265737360d01b606482015260840161047b565b600084116106875760405162461bcd60e51b815260206004820152603160248201527f4c69717569646974794c6f636b65723a20616d6f756e74206d7573742062652060448201527067726561746572207468616e207a65726f60781b606482015260840161047b565b6301e133808310156106ea5760405162461bcd60e51b815260206004820152602660248201527f4c69717569646974794c6f636b65723a206c6f636b20706572696f6420746f6f604482015265081cda1bdc9d60d21b606482015260840161047b565b6001600160a01b0382166107555760405162461bcd60e51b815260206004820152602c60248201527f4c69717569646974794c6f636b65723a20696e76616c69642062656e6566696360448201526b69617279206164647265737360a01b606482015260840161047b565b6040516323b872dd60e01b8152336004820152306024820152604481018590526001600160a01b038616906323b872dd906064016020604051808303816000875af11580156107a8573d6000803e3d6000fd5b505050506040513d601f19601f820116820180604052508101906107cc91906110fa565b50600480549060006107dd8361111c565b90915550905060006107ef8442611054565b6040805160c0810182526001600160a01b03808a1680835260208084018b815242858701908152606086018881528b861660808801818152600060a08a018181528e825260028089528c83209b518c54908c166001600160a01b0319909116178c55965160018c8101919091559551968b019690965592516003808b019190915590516004909901805495511515600160a01b026001600160a81b031990961699909816989098179390931790955581855294825285842080549586018155845292209092018690559151929350909184907fdd17148ffeb69e95dbd8fee5b9a79df1fad7408e496cd1cdec4adf522527e90d906108f9908a908790918252602082015260400190565b60405180910390a45061090b60018055565b949350505050565b6001600160a01b03811660009081526003602090815260409182902080548351818402810184019094528084526060939283018282801561097357602002820191906000526020600020905b81548152602001906001019080831161095f575b50505050509050919050565b610987610e6b565b600081815260026020526040902060018101546109b65760405162461bcd60e51b815260040161047b9061106d565b6004810154600160a01b900460ff16156109e25760405162461bcd60e51b815260040161047b906110b1565b60048101546001600160a01b03163314610a3e5760405162461bcd60e51b815260206004820181905260248201527f4c69717569646974794c6f636b65723a206e6f742062656e6566696369617279604482015260640161047b565b8060030154421015610a9e5760405162461bcd60e51b8152602060048201526024808201527f4c69717569646974794c6f636b65723a20746f6b656e73207374696c6c206c6f60448201526318dad95960e21b606482015260840161047b565b60048181018054600160a01b60ff60a01b198216179091558254600184015460405163a9059cbb60e01b81526001600160a01b03938416948101949094526024840152169063a9059cbb906044016020604051808303816000875af1158015610b0b573d6000803e3d6000fd5b505050506040513d601f19601f82011682018060405250810190610b2f91906110fa565b506004810154815460018301546040519081526001600160a01b03928316929091169084907f5db071cb9ca9123fd9158edb7aec7785f1bf14cf64c85989310c146e0e98a7d99060200160405180910390a450610b8b60018055565b50565b610b96610e95565b610ba06000610ec2565b565b610baa610e95565b604051630171de8f60e21b81526001600160a01b038316600482015260009030906305c77a3c90602401602060405180830381865afa158015610bf1573d6000803e3d6000fd5b505050506040513d601f19601f82011682018060405250810190610c159190611135565b6040516370a0823160e01b81523060048201529091506000906001600160a01b038516906370a0823190602401602060405180830381865afa158015610c5f573d6000803e3d6000fd5b505050506040513d601f19601f82011682018060405250810190610c839190611135565b9050610c8f8383611054565b811015610cf45760405162461bcd60e51b815260206004820152602d60248201527f4c69717569646974794c6f636b65723a2063616e6e6f74207265636f7665722060448201526c6c6f636b656420746f6b656e7360981b606482015260840161047b565b836001600160a01b031663a9059cbb610d156000546001600160a01b031690565b6040516001600160e01b031960e084901b1681526001600160a01b039091166004820152602481018690526044016020604051808303816000875af1158015610d62573d6000803e3d6000fd5b505050506040513d601f19601f82011682018060405250810190610d8691906110fa565b5050505050565b60036020528160005260406000208181548110610da957600080fd5b90600052602060002001600091509150505481565b610dc6610e95565b6001600160a01b038116610df057604051631e4fbdf760e01b81526000600482015260240161047b565b610b8b81610ec2565b600081815260026020526040812060018101548291901580610e2657506004810154600160a01b900460ff165b15610e375750600093849350915050565b80600301544210610e4f575060019360009350915050565b6000428260030154610e61919061114e565b9250925050915091565b600260015403610e8e57604051633ee5aeb560e01b815260040160405180910390fd5b6002600155565b6000546001600160a01b03163314610ba05760405163118cdaa760e01b815233600482015260240161047b565b600080546001600160a01b038381166001600160a01b0319831681178455604051919092169283917f8be0079c531659141344cd1fd0a4f28419497f9722a3daafe3b4186f6b6457e09190a35050565b80356001600160a01b0381168114610f2957600080fd5b919050565b600060208284031215610f4057600080fd5b610f4982610f12565b9392505050565b60008060408385031215610f6357600080fd5b50508035926020909101359150565b60008060008060808587031215610f8857600080fd5b610f9185610f12565b93506020850135925060408501359150610fad60608601610f12565b905092959194509250565b602080825282518282018190526000918401906040840190835b81811015610ff0578351835260209384019390920191600101610fd2565b509095945050505050565b60006020828403121561100d57600080fd5b5035919050565b6000806040838503121561102757600080fd5b61103083610f12565b946020939093013593505050565b634e487b7160e01b600052601160045260246000fd5b808201808211156110675761106761103e565b92915050565b60208082526024908201527f4c69717569646974794c6f636b65723a206c6f636b20646f6573206e6f7420656040820152631e1a5cdd60e21b606082015260800190565b60208082526029908201527f4c69717569646974794c6f636b65723a20746f6b656e7320616c7265616479206040820152683bb4ba34323930bbb760b91b606082015260800190565b60006020828403121561110c57600080fd5b81518015158114610f4957600080fd5b60006001820161112e5761112e61103e565b5060010190565b60006020828403121561114757600080fd5b5051919050565b818103818111156110675761106761103e56fea2646970667358221220666016753ed30101e02a15d8358319841ed2f98ec149665e9250a224c22233d564736f6c634300081b0033",
  "linkReferences": {},
  "deployedLinkReferences": {}
}