{"contracts/MotoToken.sol":{"MotoToken":{"abi":[{"inputs":[{"internalType":"address","name":"initialOwner","type":"address"}],"stateMutability":"nonpayable","type":"constructor"},{"inputs":[{"internalType":"address","name":"spender","type":"address"},{"internalType":"uint256","name":"allowance","type":"uint256"},{"internalType":"uint256","name":"needed","type":"uint256"}],"name":"ERC20InsufficientAllowance","type":"error"},{"inputs":[{"internalType":"address","name":"sender","type":"address"},{"internalType":"uint256","name":"balance","type":"uint256"},{"internalType":"uint256","name":"needed","type":"uint256"}],"name":"ERC20InsufficientBalance","type":"error"},{"inputs":[{"internalType":"address","name":"approver","type":"address"}],"name":"ERC20InvalidApprover","type":"error"},{"inputs":[{"internalType":"address","name":"receiver","type":"address"}],"name":"ERC20InvalidReceiver","type":"error"},{"inputs":[{"internalType":"address","name":"sender","type":"address"}],"name":"ERC20InvalidSender","type":"error"},{"inputs":[{"internalType":"address","name":"spender","type":"address"}],"name":"ERC20InvalidSpender","type":"error"},{"inputs":[{"internalType":"address","name":"owner","type":"address"}],"name":"OwnableInvalidOwner","type":"error"},{"inputs":[{"internalType":"address","name":"account","type":"address"}],"name":"OwnableUnauthorizedAccount","type":"error"},{"anonymous":false,"inputs":[{"indexed":true,"internalType":"address","name":"owner","type":"address"},{"indexed":true,"internalType":"address","name":"spender","type":"address"},{"indexed":false,"internalType":"uint256","name":"value","type":"uint256"}],"name":"Approval","type":"event"},{"anonymous":false,"inputs":[{"indexed":false,"internalType":"address","name":"buyback","type":"address"},{"indexed":false,"internalType":"address","name":"vault","type":"address"}],"name":"ContractsUpdated","type":"event"},{"anonymous":false,"inputs":[{"indexed":false,"internalType":"address","name":"account","type":"address"},{"indexed":false,"internalType":"bool","name":"exempt","type":"bool"}],"name":"FeeExemptionUpdated","type":"event"},{"anonymous":false,"inputs":[{"indexed":false,"internalType":"uint256","name":"buybackRate","type":"uint256"},{"indexed":false,"internalType":"uint256","name":"liquidityRate","type":"uint256"}],"name":"FeeRatesUpdated","type":"event"},{"anonymous":false,"inputs":[{"indexed":false,"internalType":"uint256","name":"buybackAmount","type":"uint256"},{"indexed":false,"internalType":"uint256","name":"liquidityAmount","type":"uint256"}],"name":"FeesDistributed","type":"event"},{"anonymous":false,"inputs":[{"indexed":true,"internalType":"address","name":"previousOwner","type":"address"},{"indexed":true,"internalType":"address","name":"newOwner","type":"address"}],"name":"OwnershipTransferred","type":"event"},{"anonymous":false,"inputs":[{"indexed":true,"internalType":"address","name":"from","type":"address"},{"indexed":true,"internalType":"address","name":"to","type":"address"},{"indexed":false,"internalType":"uint256","name":"value","type":"uint256"}],"name":"Transfer","type":"event"},{"inputs":[],"name":"BASE_SWAP_ROUTER","outputs":[{"internalType":"address","name":"","type":"address"}],"stateMutability":"view","type":"function"},{"inputs":[],"name":"MAX_FEE_RATE","outputs":[{"internalType":"uint256","name":"","type":"uint256"}],"stateMutability":"view","type":"function"},{"inputs":[],"name":"TOTAL_SUPPLY","outputs":[{"internalType":"uint256","name":"","type":"uint256"}],"stateMutability":"view","type":"function"},{"inputs":[{"internalType":"address","name":"owner","type":"address"},{"internalType":"address","name":"spender","type":"address"}],"name":"allowance","outputs":[{"internalType":"uint256","name":"","type":"uint256"}],"stateMutability":"view","type":"function"},{"inputs":[{"internalType":"address","name":"spender","type":"address"},{"internalType":"uint256","name":"value","type":"uint256"}],"name":"approve","outputs":[{"internalType":"bool","name":"","type":"bool"}],"stateMutability":"nonpayable","type":"function"},{"inputs":[{"internalType":"address","name":"account","type":"address"}],"name":"balanceOf","outputs":[{"internalType":"uint256","name":"","type":"uint256"}],"stateMutability":"view","type":"function"},{"inputs":[],"name":"buybackContract","outputs":[{"internalType":"address","name":"","type":"address"}],"stateMutability":"view","type":"function"},{"inputs":[],"name":"buybackRate","outputs":[{"internalType":"uint256","name":"","type":"uint256"}],"stateMutability":"view","type":"function"},{"inputs":[{"internalType":"uint256","name":"amount","type":"uint256"}],"name":"calculateFee","outputs":[{"internalType":"uint256","name":"feeAmount","type":"uint256"},{"internalType":"uint256","name":"netAmount","type":"uint256"}],"stateMutability":"view","type":"function"},{"inputs":[],"name":"decimals","outputs":[{"internalType":"uint8","name":"","type":"uint8"}],"stateMutability":"view","type":"function"},{"inputs":[],"name":"emergencyRecoverETH","outputs":[],"stateMutability":"nonpayable","type":"function"},{"inputs":[{"internalType":"address","name":"token","type":"address"},{"internalType":"uint256","name":"amount","type":"uint256"}],"name":"emergencyRecoverToken","outputs":[],"stateMutability":"nonpayable","type":"function"},{"inputs":[{"internalType":"address","name":"","type":"address"}],"name":"feeExempt","outputs":[{"internalType":"bool","name":"","type":"bool"}],"stateMutability":"view","type":"function"},{"inputs":[],"name":"getTotalFeeRate","outputs":[{"internalType":"uint256","name":"","type":"uint256"}],"stateMutability":"view","type":"function"},{"inputs":[],"name":"liquidityRate","outputs":[{"internalType":"uint256","name":"","type":"uint256"}],"stateMutability":"view","type":"function"},{"inputs":[],"name":"name","outputs":[{"internalType":"string","name":"","type":"string"}],"stateMutability":"view","type":"function"},{"inputs":[],"name":"owner","outputs":[{"internalType":"address","name":"","type":"address"}],"stateMutability":"view","type":"function"},{"inputs":[],"name":"renounceOwnership","outputs":[],"stateMutability":"nonpayable","type":"function"},{"inputs":[{"internalType":"address","name":"_buyback","type":"address"},{"internalType":"address","name":"_vault","type":"address"}],"name":"setContracts","outputs":[],"stateMutability":"nonpayable","type":"function"},{"inputs":[{"internalType":"address","name":"account","type":"address"},{"internalType":"bool","name":"exempt","type":"bool"}],"name":"setFeeExemption","outputs":[],"stateMutability":"nonpayable","type":"function"},{"inputs":[],"name":"symbol","outputs":[{"internalType":"string","name":"","type":"string"}],"stateMutability":"view","type":"function"},{"inputs":[],"name":"totalSupply","outputs":[{"internalType":"uint256","name":"","type":"uint256"}],"stateMutability":"view","type":"function"},{"inputs":[{"internalType":"address","name":"to","type":"address"},{"internalType":"uint256","name":"value","type":"uint256"}],"name":"transfer","outputs":[{"internalType":"bool","name":"","type":"bool"}],"stateMutability":"nonpayable","type":"function"},{"inputs":[{"internalType":"address","name":"from","type":"address"},{"internalType":"address","name":"to","type":"address"},{"internalType":"uint256","name":"value","type":"uint256"}],"name":"transferFrom","outputs":[{"internalType":"bool","name":"","type":"bool"}],"stateMutability":"nonpayable","type":"function"},{"inputs":[{"internalType":"address","name":"newOwner","type":"address"}],"name":"transferOwnership","outputs":[],"stateMutability":"nonpayable","type":"function"},{"inputs":[{"internalType":"uint256","name":"_buybackRate","type":"uint256"},{"internalType":"uint256","name":"_liquidityRate","type":"uint256"}],"name":"updateFeeRates","outputs":[],"stateMutability":"nonpayable","type":"function"},{"inputs":[],"name":"vaultContract","outputs":[{"internalType":"address","name":"","type":"address"}],"stateMutability":"view","type":"function"}],"evm":{"bytecode":{"linkReferences":{},"object":"60806040526002600855600360095534801561001a57600080fd5b50604051611cba380380611cba833981016040819052610039916106d9565b604051806040016040528060048152602001634d6f746f60e01b815250604051806040016040528060048152602001634d4f544f60e01b8152508260006001600160a01b0316816001600160a01b0316036100af57604051631e4fbdf760e01b8152600060048201526024015b60405180910390fd5b6100b881610189565b5060046100c583826107a7565b5060056100d282826107a7565b5050506001600160a01b03811661012b5760405162461bcd60e51b815260206004820181905260248201527f4d6f746f546f6b656e3a20696e76616c6964206f776e6572206164647265737360448201526064016100a6565b61014c3361013b6012600a610964565b610147906103e8610973565b6101d9565b6001600160a01b03166000908152600a60205260408082208054600160ff19918216811790925530845291909220805490911690911790556109d2565b600080546001600160a01b038381166001600160a01b0319831681178455604051919092169283917f8be0079c531659141344cd1fd0a4f28419497f9722a3daafe3b4186f6b6457e09190a35050565b6001600160a01b0382166102035760405163ec442f0560e01b8152600060048201526024016100a6565b61020f60008383610213565b5050565b6001600160a01b0383166102775760405162461bcd60e51b815260206004820152602560248201527f45524332303a207472616e736665722066726f6d20746865207a65726f206164604482015264647265737360d81b60648201526084016100a6565b6001600160a01b0382166102d95760405162461bcd60e51b815260206004820152602360248201527f45524332303a207472616e7366657220746f20746865207a65726f206164647260448201526265737360e81b60648201526084016100a6565b6000811161034f5760405162461bcd60e51b815260206004820152603460248201527f4d6f746f546f6b656e3a207472616e7366657220616d6f756e74206d7573742060448201527f62652067726561746572207468616e207a65726f00000000000000000000000060648201526084016100a6565b6001600160a01b0383166000908152600a602052604081205460ff1615801561039157506001600160a01b0383166000908152600a602052604090205460ff16155b80156103a757506006546001600160a01b031615155b80156103bd57506007546001600160a01b031615155b90508080156103db575060006009546008546103d9919061098a565b115b156104435760006009546008546103f2919061098a565b9050600060646104028386610973565b61040c919061099d565b9050600061041a82866109bf565b9050610427873084610454565b6104308261057e565b61043b878783610454565b50505061044e565b61044e848484610675565b50505050565b6001600160a01b03831661047f578060036000828254610474919061098a565b909155506104f19050565b6001600160a01b038316600090815260016020526040902054818110156104d25760405163391434e360e21b81526001600160a01b038516600482015260248101829052604481018390526064016100a6565b6001600160a01b03841660009081526001602052604090209082900390555b6001600160a01b03821661050d5760038054829003905561052c565b6001600160a01b03821660009081526001602052604090208054820190555b816001600160a01b0316836001600160a01b03167fddf252ad1be2c89b69c2b068fc378daa952ba7f163c4a11628f55a4df523b3ef8360405161057191815260200190565b60405180910390a3505050565b806000036105895750565b600060095460085461059b919061098a565b9050600081600854846105ae9190610973565b6105b8919061099d565b905060006105c682856109bf565b90506000821180156105e257506006546001600160a01b031615155b156105ff576006546105ff9030906001600160a01b031684610454565b60008111801561061957506007546001600160a01b031615155b15610636576007546106369030906001600160a01b031683610454565b60408051838152602081018390527f771d362663b46bd788cd13fc183c9432449a2be6bcb81051bfeb484afd9c5dd8910160405180910390a150505050565b6001600160a01b03831661069f57604051634b637e8f60e11b8152600060048201526024016100a6565b6001600160a01b0382166106c95760405163ec442f0560e01b8152600060048201526024016100a6565b6106d4838383610213565b505050565b6000602082840312156106eb57600080fd5b81516001600160a01b038116811461070257600080fd5b9392505050565b634e487b7160e01b600052604160045260246000fd5b600181811c9082168061073357607f821691505b60208210810361075357634e487b7160e01b600052602260045260246000fd5b50919050565b601f8211156106d457806000526020600020601f840160051c810160208510156107805750805b601f840160051c820191505b818110156107a0576000815560010161078c565b5050505050565b81516001600160401b038111156107c0576107c0610709565b6107d4816107ce845461071f565b84610759565b6020601f82116001811461080857600083156107f05750848201515b600019600385901b1c1916600184901b1784556107a0565b600084815260208120601f198516915b828110156108385787850151825560209485019460019092019101610818565b50848210156108565786840151600019600387901b60f8161c191681555b50505050600190811b01905550565b634e487b7160e01b600052601160045260246000fd5b6001815b60018411156108b65780850481111561089a5761089a610865565b60018416156108a857908102905b60019390931c92800261087f565b935093915050565b6000826108cd5750600161095e565b816108da5750600061095e565b81600181146108f057600281146108fa57610916565b600191505061095e565b60ff84111561090b5761090b610865565b50506001821b61095e565b5060208310610133831016604e8410600b8410161715610939575081810a61095e565b610946600019848461087b565b806000190482111561095a5761095a610865565b0290505b92915050565b600061070260ff8416836108be565b808202811582820484141761095e5761095e610865565b8082018082111561095e5761095e610865565b6000826109ba57634e487b7160e01b600052601260045260246000fd5b500490565b8181038181111561095e5761095e610865565b6112d9806109e16000396000f3fe608060405234801561001057600080fd5b50600436106101a95760003560e01c8063751fd179116100f957806395d89b4111610097578063d8952a4911610071578063d8952a4914610393578063dd62ed3e146103a6578063f2fde38b146103df578063f76024c4146103f257600080fd5b806395d89b411461035057806399a5d74714610358578063a9059cbb1461038057600080fd5b8063894e47e1116100d3578063894e47e11461031c5780638da5cb5b14610324578063902d55a51461033557806392f6576e1461034857600080fd5b8063751fd179146102e357806379020194146102f65780638542b3361461030957600080fd5b80632274346b11610166578063398daa8511610140578063398daa8514610286578063548cbeb0146102a957806370a08231146102b2578063715018a6146102db57600080fd5b80632274346b1461025157806323b872dd14610264578063313ce5671461027757600080fd5b806306fdde03146101ae578063095ea7b3146101cc5780630c8797c3146101ef57806318160ddd14610222578063186e2d77146102345780631bca05241461023e575b600080fd5b6101b66103fb565b6040516101c39190611031565b60405180910390f35b6101df6101da36600461109b565b61048d565b60405190151581526020016101c3565b61020a73327df1e6de05895d2ab08513aadd9313fe505d8681565b6040516001600160a01b0390911681526020016101c3565b6003545b6040519081526020016101c3565b61023c6104a7565b005b61023c61024c3660046110c5565b6104ec565b60075461020a906001600160a01b031681565b6101df6102723660046110e7565b6105a7565b604051601281526020016101c3565b6101df610294366004611124565b600a6020526000908152604090205460ff1681565b61022660095481565b6102266102c0366004611124565b6001600160a01b031660009081526001602052604090205490565b61023c6105cb565b61023c6102f1366004611154565b6105df565b61023c61030436600461109b565b610699565b60065461020a906001600160a01b031681565b61022661079e565b6000546001600160a01b031661020a565b6102266b033b2e3c9fd0803ce800000081565b610226600a81565b6101b66107b5565b61036b61036636600461118b565b6107c4565b604080519283526020830191909152016101c3565b6101df61038e36600461109b565b610805565b61023c6103a13660046111a4565b610813565b6102266103b43660046111a4565b6001600160a01b03918216600090815260026020908152604080832093909416825291909152205490565b61023c6103ed366004611124565b610966565b61022660085481565b60606004805461040a906111d7565b80601f0160208091040260200160405190810160405280929190818152602001828054610436906111d7565b80156104835780601f1061045857610100808354040283529160200191610483565b820191906000526020600020905b81548152906001019060200180831161046657829003601f168201915b5050505050905090565b60003361049b8185856109a1565b60019150505b92915050565b6104af6109ae565b600080546040516001600160a01b03909116914780156108fc02929091818181858888f193505050501580156104e9573d6000803e3d6000fd5b50565b6104f46109ae565b600a6105008284611227565b111561055f5760405162461bcd60e51b8152602060048201526024808201527f4d6f746f546f6b656e3a20746f74616c206665652065786365656473206d6178604482015263696d756d60e01b60648201526084015b60405180910390fd5b6008829055600981905560408051838152602081018390527f4f672c50736ba0fe8a4825ecfde8bcd931727422a77ac89af44fccce2746e0b391015b60405180910390a15050565b6000336105b58582856109db565b6105c0858585610a5a565b506001949350505050565b6105d36109ae565b6105dd6000610ab9565b565b6105e76109ae565b6001600160a01b03821661063d5760405162461bcd60e51b815260206004820152601a60248201527f4d6f746f546f6b656e3a20696e76616c696420616464726573730000000000006044820152606401610556565b6001600160a01b0382166000818152600a6020908152604091829020805460ff19168515159081179091558251938452908301527f69e34a174b4a0cce59950c4c852317e9797bdcae125fbf8b5dd8b4311384412f910161059b565b6106a16109ae565b306001600160a01b038316036107075760405162461bcd60e51b815260206004820152602560248201527f4d6f746f546f6b656e3a2063616e6e6f74207265636f766572204d4f544f20746044820152646f6b656e7360d81b6064820152608401610556565b816001600160a01b031663a9059cbb6107286000546001600160a01b031690565b6040516001600160e01b031960e084901b1681526001600160a01b039091166004820152602481018490526044016020604051808303816000875af1158015610775573d6000803e3d6000fd5b505050506040513d601f19601f82011682018060405250810190610799919061123a565b505050565b60006009546008546107b09190611227565b905090565b60606005805461040a906111d7565b60008060006009546008546107d99190611227565b905060646107e78286611257565b6107f1919061126e565b92506107fd8385611290565b915050915091565b60003361049b818585610a5a565b61081b6109ae565b6001600160a01b03821661087c5760405162461bcd60e51b815260206004820152602260248201527f4d6f746f546f6b656e3a20696e76616c6964206275796261636b206164647265604482015261737360f01b6064820152608401610556565b6001600160a01b0381166108d25760405162461bcd60e51b815260206004820181905260248201527f4d6f746f546f6b656e3a20696e76616c6964207661756c7420616464726573736044820152606401610556565b600680546001600160a01b038481166001600160a01b03199283168117909355600780549185169190921681179091556000828152600a60209081526040808320805460ff1990811660019081179092558585529382902080549094161790925581519384528301919091527f14d346cbf9ffe1d19b9746e0b9391e5a4acb05399f4cc217d3a20391bbdbb44f910161059b565b61096e6109ae565b6001600160a01b03811661099857604051631e4fbdf760e01b815260006004820152602401610556565b6104e981610ab9565b6107998383836001610b09565b6000546001600160a01b031633146105dd5760405163118cdaa760e01b8152336004820152602401610556565b6001600160a01b03838116600090815260026020908152604080832093861683529290522054600019811015610a545781811015610a4557604051637dc7a0d960e11b81526001600160a01b03841660048201526024810182905260448101839052606401610556565b610a5484848484036000610b09565b50505050565b6001600160a01b038316610a8457604051634b637e8f60e11b815260006004820152602401610556565b6001600160a01b038216610aae5760405163ec442f0560e01b815260006004820152602401610556565b610799838383610bde565b600080546001600160a01b038381166001600160a01b0319831681178455604051919092169283917f8be0079c531659141344cd1fd0a4f28419497f9722a3daafe3b4186f6b6457e09190a35050565b6001600160a01b038416610b335760405163e602df0560e01b815260006004820152602401610556565b6001600160a01b038316610b5d57604051634a1406b160e11b815260006004820152602401610556565b6001600160a01b0380851660009081526002602090815260408083209387168352929052208290558015610a5457826001600160a01b0316846001600160a01b03167f8c5be1e5ebec7d5bd14f71427d1e84f3dd0314c0f7b2291e5b200ac8c7c3b92584604051610bd091815260200190565b60405180910390a350505050565b6001600160a01b038316610c425760405162461bcd60e51b815260206004820152602560248201527f45524332303a207472616e736665722066726f6d20746865207a65726f206164604482015264647265737360d81b6064820152608401610556565b6001600160a01b038216610ca45760405162461bcd60e51b815260206004820152602360248201527f45524332303a207472616e7366657220746f20746865207a65726f206164647260448201526265737360e81b6064820152608401610556565b60008111610d115760405162461bcd60e51b815260206004820152603460248201527f4d6f746f546f6b656e3a207472616e7366657220616d6f756e74206d7573742060448201527362652067726561746572207468616e207a65726f60601b6064820152608401610556565b6001600160a01b0383166000908152600a602052604081205460ff16158015610d5357506001600160a01b0383166000908152600a602052604090205460ff16155b8015610d6957506006546001600160a01b031615155b8015610d7f57506007546001600160a01b031615155b9050808015610d9d57506000600954600854610d9b9190611227565b115b15610e05576000600954600854610db49190611227565b905060006064610dc48386611257565b610dce919061126e565b90506000610ddc8286611290565b9050610de9873084610e10565b610df282610f3a565b610dfd878783610e10565b505050610a54565b610a54848484610a5a565b6001600160a01b038316610e3b578060036000828254610e309190611227565b90915550610ead9050565b6001600160a01b03831660009081526001602052604090205481811015610e8e5760405163391434e360e21b81526001600160a01b03851660048201526024810182905260448101839052606401610556565b6001600160a01b03841660009081526001602052604090209082900390555b6001600160a01b038216610ec957600380548290039055610ee8565b6001600160a01b03821660009081526001602052604090208054820190555b816001600160a01b0316836001600160a01b03167fddf252ad1be2c89b69c2b068fc378daa952ba7f163c4a11628f55a4df523b3ef83604051610f2d91815260200190565b60405180910390a3505050565b80600003610f455750565b6000600954600854610f579190611227565b905060008160085484610f6a9190611257565b610f74919061126e565b90506000610f828285611290565b9050600082118015610f9e57506006546001600160a01b031615155b15610fbb57600654610fbb9030906001600160a01b031684610e10565b600081118015610fd557506007546001600160a01b031615155b15610ff257600754610ff29030906001600160a01b031683610e10565b60408051838152602081018390527f771d362663b46bd788cd13fc183c9432449a2be6bcb81051bfeb484afd9c5dd8910160405180910390a150505050565b602081526000825180602084015260005b8181101561105f5760208186018101516040868401015201611042565b506000604082850101526040601f19601f83011684010191505092915050565b80356001600160a01b038116811461109657600080fd5b919050565b600080604083850312156110ae57600080fd5b6110b78361107f565b946020939093013593505050565b600080604083850312156110d857600080fd5b50508035926020909101359150565b6000806000606084860312156110fc57600080fd5b6111058461107f565b92506111136020850161107f565b929592945050506040919091013590565b60006020828403121561113657600080fd5b61113f8261107f565b9392505050565b80151581146104e957600080fd5b6000806040838503121561116757600080fd5b6111708361107f565b9150602083013561118081611146565b809150509250929050565b60006020828403121561119d57600080fd5b5035919050565b600080604083850312156111b757600080fd5b6111c08361107f565b91506111ce6020840161107f565b90509250929050565b600181811c908216806111eb57607f821691505b60208210810361120b57634e487b7160e01b600052602260045260246000fd5b50919050565b634e487b7160e01b600052601160045260246000fd5b808201808211156104a1576104a1611211565b60006020828403121561124c57600080fd5b815161113f81611146565b80820281158282048414176104a1576104a1611211565b60008261128b57634e487b7160e01b600052601260045260246000fd5b500490565b818103818111156104a1576104a161121156fea2646970667358221220fac65af4875b3897f0bc18a73b0fe9cd3086fd6086da8ec827d15971f39f1ef364736f6c634300081b0033","opcodes":"PUSH1 0x80 PUSH1 0x40 MSTORE PUSH1 0x2 PUSH1 0x8 SSTORE PUSH1 0x3 PUSH1 0x9 SSTORE CALLVALUE DUP1 ISZERO PUSH2 0x1A JUMPI PUSH1 0x0 DUP1 REVERT JUMPDEST POP PUSH1 0x40 MLOAD PUSH2 0x1CBA CODESIZE SUB DUP1 PUSH2 0x1CBA DUP4 CODECOPY DUP2 ADD PUSH1 0x40 DUP2 SWAP1 MSTORE PUSH2 0x39 SWAP2 PUSH2 0x6D9 JUMP JUMPDEST PUSH1 0x40 MLOAD DUP1 PUSH1 0x40 ADD PUSH1 0x40 MSTORE DUP1 PUSH1 0x4 DUP2 MSTORE PUSH1 0x20 ADD PUSH4 0x4D6F746F PUSH1 0xE0 SHL DUP2 MSTORE POP PUSH1 0x40 MLOAD DUP1 PUSH1 0x40 ADD PUSH1 0x40 MSTORE DUP1 PUSH1 0x4 DUP2 MSTORE PUSH1 0x20 ADD PUSH4 0x4D4F544F PUSH1 0xE0 SHL DUP2 MSTORE POP DUP3 PUSH1 0x0 PUSH1 0x1 PUSH1 0x1 PUSH1 0xA0 SHL SUB AND DUP2 PUSH1 0x1 PUSH1 0x1 PUSH1 0xA0 SHL SUB AND SUB PUSH2 0xAF JUMPI PUSH1 0x40 MLOAD PUSH4 0x1E4FBDF7 PUSH1 0xE0 SHL DUP2 MSTORE PUSH1 0x0 PUSH1 0x4 DUP3 ADD MSTORE PUSH1 0x24 ADD JUMPDEST PUSH1 0x40 MLOAD DUP1 SWAP2 SUB SWAP1 REVERT JUMPDEST PUSH2 0xB8 DUP2 PUSH2 0x189 JUMP JUMPDEST POP PUSH1 0x4 PUSH2 0xC5 DUP4 DUP3 PUSH2 0x7A7 JUMP JUMPDEST POP PUSH1 0x5 PUSH2 0xD2 DUP3 DUP3 PUSH2 0x7A7 JUMP JUMPDEST POP POP POP PUSH1 0x1 PUSH1 0x1 PUSH1 0xA0 SHL SUB DUP2 AND PUSH2 0x12B JUMPI PUSH1 0x40 MLOAD PUSH3 0x461BCD PUSH1 0xE5 SHL DUP2 MSTORE PUSH1 0x20 PUSH1 0x4 DUP3 ADD DUP2 SWAP1 MSTORE PUSH1 0x24 DUP3 ADD MSTORE PUSH32 0x4D6F746F546F6B656E3A20696E76616C6964206F776E65722061646472657373 PUSH1 0x44 DUP3 ADD MSTORE PUSH1 0x64 ADD PUSH2 0xA6 JUMP JUMPDEST PUSH2 0x14C CALLER PUSH2 0x13B PUSH1 0x12 PUSH1 0xA PUSH2 0x964 JUMP JUMPDEST PUSH2 0x147 SWAP1 PUSH2 0x3E8 PUSH2 0x973 JUMP JUMPDEST PUSH2 0x1D9 JUMP JUMPDEST PUSH1 0x1 PUSH1 0x1 PUSH1 0xA0 SHL SUB AND PUSH1 0x0 SWAP1 DUP2 MSTORE PUSH1 0xA PUSH1 0x20 MSTORE PUSH1 0x40 DUP1 DUP3 KECCAK256 DUP1 SLOAD PUSH1 0x1 PUSH1 0xFF NOT SWAP2 DUP3 AND DUP2 OR SWAP1 SWAP3 SSTORE ADDRESS DUP5 MSTORE SWAP2 SWAP1 SWAP3 KECCAK256 DUP1 SLOAD SWAP1 SWAP2 AND SWAP1 SWAP2 OR SWAP1 SSTORE PUSH2 0x9D2 JUMP JUMPDEST PUSH1 0x0 DUP1 SLOAD PUSH1 0x1 PUSH1 0x1 PUSH1 0xA0 SHL SUB DUP4 DUP2 AND PUSH1 0x1 PUSH1 0x1 PUSH1 0xA0 SHL SUB NOT DUP4 AND DUP2 OR DUP5 SSTORE PUSH1 0x40 MLOAD SWAP2 SWAP1 SWAP3 AND SWAP3 DUP4 SWAP2 PUSH32 0x8BE0079C531659141344CD1FD0A4F28419497F9722A3DAAFE3B4186F6B6457E0 SWAP2 SWAP1 LOG3 POP POP JUMP JUMPDEST PUSH1 0x1 PUSH1 0x1 PUSH1 0xA0 SHL SUB DUP3 AND PUSH2 0x203 JUMPI PUSH1 0x40 MLOAD PUSH4 0xEC442F05 PUSH1 0xE0 SHL DUP2 MSTORE PUSH1 0x0 PUSH1 0x4 DUP3 ADD MSTORE PUSH1 0x24 ADD PUSH2 0xA6 JUMP JUMPDEST PUSH2 0x20F PUSH1 0x0 DUP4 DUP4 PUSH2 0x213 JUMP JUMPDEST POP POP JUMP JUMPDEST PUSH1 0x1 PUSH1 0x1 PUSH1 0xA0 SHL SUB DUP4 AND PUSH2 0x277 JUMPI PUSH1 0x40 MLOAD PUSH3 0x461BCD PUSH1 0xE5 SHL DUP2 MSTORE PUSH1 0x20 PUSH1 0x4 DUP3 ADD MSTORE PUSH1 0x25 PUSH1 0x24 DUP3 ADD MSTORE PUSH32 0x45524332303A207472616E736665722066726F6D20746865207A65726F206164 PUSH1 0x44 DUP3 ADD MSTORE PUSH5 0x6472657373 PUSH1 0xD8 SHL PUSH1 0x64 DUP3 ADD MSTORE PUSH1 0x84 ADD PUSH2 0xA6 JUMP JUMPDEST PUSH1 0x1 PUSH1 0x1 PUSH1 0xA0 SHL SUB DUP3 AND PUSH2 0x2D9 JUMPI PUSH1 0x40 MLOAD PUSH3 0x461BCD PUSH1 0xE5 SHL DUP2 MSTORE PUSH1 0x20 PUSH1 0x4 DUP3 ADD MSTORE PUSH1 0x23 PUSH1 0x24 DUP3 ADD MSTORE PUSH32 0x45524332303A207472616E7366657220746F20746865207A65726F2061646472 PUSH1 0x44 DUP3 ADD MSTORE PUSH3 0x657373 PUSH1 0xE8 SHL PUSH1 0x64 DUP3 ADD MSTORE PUSH1 0x84 ADD PUSH2 0xA6 JUMP JUMPDEST PUSH1 0x0 DUP2 GT PUSH2 0x34F JUMPI PUSH1 0x40 MLOAD PUSH3 0x461BCD PUSH1 0xE5 SHL DUP2 MSTORE PUSH1 0x20 PUSH1 0x4 DUP3 ADD MSTORE PUSH1 0x34 PUSH1 0x24 DUP3 ADD MSTORE PUSH32 0x4D6F746F546F6B656E3A207472616E7366657220616D6F756E74206D75737420 PUSH1 0x44 DUP3 ADD MSTORE PUSH32 0x62652067726561746572207468616E207A65726F000000000000000000000000 PUSH1 0x64 DUP3 ADD MSTORE PUSH1 0x84 ADD PUSH2 0xA6 JUMP JUMPDEST PUSH1 0x1 PUSH1 0x1 PUSH1 0xA0 SHL SUB DUP4 AND PUSH1 0x0 SWAP1 DUP2 MSTORE PUSH1 0xA PUSH1 0x20 MSTORE PUSH1 0x40 DUP2 KECCAK256 SLOAD PUSH1 0xFF AND ISZERO DUP1 ISZERO PUSH2 0x391 JUMPI POP PUSH1 0x1 PUSH1 0x1 PUSH1 0xA0 SHL SUB DUP4 AND PUSH1 0x0 SWAP1 DUP2 MSTORE PUSH1 0xA PUSH1 0x20 MSTORE PUSH1 0x40 SWAP1 KECCAK256 SLOAD PUSH1 0xFF AND ISZERO JUMPDEST DUP1 ISZERO PUSH2 0x3A7 JUMPI POP PUSH1 0x6 SLOAD PUSH1 0x1 PUSH1 0x1 PUSH1 0xA0 SHL SUB AND ISZERO ISZERO JUMPDEST DUP1 ISZERO PUSH2 0x3BD JUMPI POP PUSH1 0x7 SLOAD PUSH1 0x1 PUSH1 0x1 PUSH1 0xA0 SHL SUB AND ISZERO ISZERO JUMPDEST SWAP1 POP DUP1 DUP1 ISZERO PUSH2 0x3DB JUMPI POP PUSH1 0x0 PUSH1 0x9 SLOAD PUSH1 0x8 SLOAD PUSH2 0x3D9 SWAP2 SWAP1 PUSH2 0x98A JUMP JUMPDEST GT JUMPDEST ISZERO PUSH2 0x443 JUMPI PUSH1 0x0 PUSH1 0x9 SLOAD PUSH1 0x8 SLOAD PUSH2 0x3F2 SWAP2 SWAP1 PUSH2 0x98A JUMP JUMPDEST SWAP1 POP PUSH1 0x0 PUSH1 0x64 PUSH2 0x402 DUP4 DUP7 PUSH2 0x973 JUMP JUMPDEST PUSH2 0x40C SWAP2 SWAP1 PUSH2 0x99D JUMP JUMPDEST SWAP1 POP PUSH1 0x0 PUSH2 0x41A DUP3 DUP7 PUSH2 0x9BF JUMP JUMPDEST SWAP1 POP PUSH2 0x427 DUP8 ADDRESS DUP5 PUSH2 0x454 JUMP JUMPDEST PUSH2 0x430 DUP3 PUSH2 0x57E JUMP JUMPDEST PUSH2 0x43B DUP8 DUP8 DUP4 PUSH2 0x454 JUMP JUMPDEST POP POP POP PUSH2 0x44E JUMP JUMPDEST PUSH2 0x44E DUP5 DUP5 DUP5 PUSH2 0x675 JUMP JUMPDEST POP POP POP POP JUMP JUMPDEST PUSH1 0x1 PUSH1 0x1 PUSH1 0xA0 SHL SUB DUP4 AND PUSH2 0x47F JUMPI DUP1 PUSH1 0x3 PUSH1 0x0 DUP3 DUP3 SLOAD PUSH2 0x474 SWAP2 SWAP1 PUSH2 0x98A JUMP JUMPDEST SWAP1 SWAP2 SSTORE POP PUSH2 0x4F1 SWAP1 POP JUMP JUMPDEST PUSH1 0x1 PUSH1 0x1 PUSH1 0xA0 SHL SUB DUP4 AND PUSH1 0x0 SWAP1 DUP2 MSTORE PUSH1 0x1 PUSH1 0x20 MSTORE PUSH1 0x40 SWAP1 KECCAK256 SLOAD DUP2 DUP2 LT ISZERO PUSH2 0x4D2 JUMPI PUSH1 0x40 MLOAD PUSH4 0x391434E3 PUSH1 0xE2 SHL DUP2 MSTORE PUSH1 0x1 PUSH1 0x1 PUSH1 0xA0 SHL SUB DUP6 AND PUSH1 0x4 DUP3 ADD MSTORE PUSH1 0x24 DUP2 ADD DUP3 SWAP1 MSTORE PUSH1 0x44 DUP2 ADD DUP4 SWAP1 MSTORE PUSH1 0x64 ADD PUSH2 0xA6 JUMP JUMPDEST PUSH1 0x1 PUSH1 0x1 PUSH1 0xA0 SHL SUB DUP5 AND PUSH1 0x0 SWAP1 DUP2 MSTORE PUSH1 0x1 PUSH1 0x20 MSTORE PUSH1 0x40 SWAP1 KECCAK256 SWAP1 DUP3 SWAP1 SUB SWAP1 SSTORE JUMPDEST PUSH1 0x1 PUSH1 0x1 PUSH1 0xA0 SHL SUB DUP3 AND PUSH2 0x50D JUMPI PUSH1 0x3 DUP1 SLOAD DUP3 SWAP1 SUB SWAP1 SSTORE PUSH2 0x52C JUMP JUMPDEST PUSH1 0x1 PUSH1 0x1 PUSH1 0xA0 SHL SUB DUP3 AND PUSH1 0x0 SWAP1 DUP2 MSTORE PUSH1 0x1 PUSH1 0x20 MSTORE PUSH1 0x40 SWAP1 KECCAK256 DUP1 SLOAD DUP3 ADD SWAP1 SSTORE JUMPDEST DUP2 PUSH1 0x1 PUSH1 0x1 PUSH1 0xA0 SHL SUB AND DUP4 PUSH1 0x1 PUSH1 0x1 PUSH1 0xA0 SHL SUB AND PUSH32 0xDDF252AD1BE2C89B69C2B068FC378DAA952BA7F163C4A11628F55A4DF523B3EF DUP4 PUSH1 0x40 MLOAD PUSH2 0x571 SWAP2 DUP2 MSTORE PUSH1 0x20 ADD SWAP1 JUMP JUMPDEST PUSH1 0x40 MLOAD DUP1 SWAP2 SUB SWAP1 LOG3 POP POP POP JUMP JUMPDEST DUP1 PUSH1 0x0 SUB PUSH2 0x589 JUMPI POP JUMP JUMPDEST PUSH1 0x0 PUSH1 0x9 SLOAD PUSH1 0x8 SLOAD PUSH2 0x59B SWAP2 SWAP1 PUSH2 0x98A JUMP JUMPDEST SWAP1 POP PUSH1 0x0 DUP2 PUSH1 0x8 SLOAD DUP5 PUSH2 0x5AE SWAP2 SWAP1 PUSH2 0x973 JUMP JUMPDEST PUSH2 0x5B8 SWAP2 SWAP1 PUSH2 0x99D JUMP JUMPDEST SWAP1 POP PUSH1 0x0 PUSH2 0x5C6 DUP3 DUP6 PUSH2 0x9BF JUMP JUMPDEST SWAP1 POP PUSH1 0x0 DUP3 GT DUP1 ISZERO PUSH2 0x5E2 JUMPI POP PUSH1 0x6 SLOAD PUSH1 0x1 PUSH1 0x1 PUSH1 0xA0 SHL SUB AND ISZERO ISZERO JUMPDEST ISZERO PUSH2 0x5FF JUMPI PUSH1 0x6 SLOAD PUSH2 0x5FF SWAP1 ADDRESS SWAP1 PUSH1 0x1 PUSH1 0x1 PUSH1 0xA0 SHL SUB AND DUP5 PUSH2 0x454 JUMP JUMPDEST PUSH1 0x0 DUP2 GT DUP1 ISZERO PUSH2 0x619 JUMPI POP PUSH1 0x7 SLOAD PUSH1 0x1 PUSH1 0x1 PUSH1 0xA0 SHL SUB AND ISZERO ISZERO JUMPDEST ISZERO PUSH2 0x636 JUMPI PUSH1 0x7 SLOAD PUSH2 0x636 SWAP1 ADDRESS SWAP1 PUSH1 0x1 PUSH1 0x1 PUSH1 0xA0 SHL SUB AND DUP4 PUSH2 0x454 JUMP JUMPDEST PUSH1 0x40 DUP1 MLOAD DUP4 DUP2 MSTORE PUSH1 0x20 DUP2 ADD DUP4 SWAP1 MSTORE PUSH32 0x771D362663B46BD788CD13FC183C9432449A2BE6BCB81051BFEB484AFD9C5DD8 SWAP2 ADD PUSH1 0x40 MLOAD DUP1 SWAP2 SUB SWAP1 LOG1 POP POP POP POP JUMP JUMPDEST PUSH1 0x1 PUSH1 0x1 PUSH1 0xA0 SHL SUB DUP4 AND PUSH2 0x69F JUMPI PUSH1 0x40 MLOAD PUSH4 0x4B637E8F PUSH1 0xE1 SHL DUP2 MSTORE PUSH1 0x0 PUSH1 0x4 DUP3 ADD MSTORE PUSH1 0x24 ADD PUSH2 0xA6 JUMP JUMPDEST PUSH1 0x1 PUSH1 0x1 PUSH1 0xA0 SHL SUB DUP3 AND PUSH2 0x6C9 JUMPI PUSH1 0x40 MLOAD PUSH4 0xEC442F05 PUSH1 0xE0 SHL DUP2 MSTORE PUSH1 0x0 PUSH1 0x4 DUP3 ADD MSTORE PUSH1 0x24 ADD PUSH2 0xA6 JUMP JUMPDEST PUSH2 0x6D4 DUP4 DUP4 DUP4 PUSH2 0x213 JUMP JUMPDEST POP POP POP JUMP JUMPDEST PUSH1 0x0 PUSH1 0x20 DUP3 DUP5 SUB SLT ISZERO PUSH2 0x6EB JUMPI PUSH1 0x0 DUP1 REVERT JUMPDEST DUP2 MLOAD PUSH1 0x1 PUSH1 0x1 PUSH1 0xA0 SHL SUB DUP2 AND DUP2 EQ PUSH2 0x702 JUMPI PUSH1 0x0 DUP1 REVERT JUMPDEST SWAP4 SWAP3 POP POP POP JUMP JUMPDEST PUSH4 0x4E487B71 PUSH1 0xE0 SHL PUSH1 0x0 MSTORE PUSH1 0x41 PUSH1 0x4 MSTORE PUSH1 0x24 PUSH1 0x0 REVERT JUMPDEST PUSH1 0x1 DUP2 DUP2 SHR SWAP1 DUP3 AND DUP1 PUSH2 0x733 JUMPI PUSH1 0x7F DUP3 AND SWAP2 POP JUMPDEST PUSH1 0x20 DUP3 LT DUP2 SUB PUSH2 0x753 JUMPI PUSH4 0x4E487B71 PUSH1 0xE0 SHL PUSH1 0x0 MSTORE PUSH1 0x22 PUSH1 0x4 MSTORE PUSH1 0x24 PUSH1 0x0 REVERT JUMPDEST POP SWAP2 SWAP1 POP JUMP JUMPDEST PUSH1 0x1F DUP3 GT ISZERO PUSH2 0x6D4 JUMPI DUP1 PUSH1 0x0 MSTORE PUSH1 0x20 PUSH1 0x0 KECCAK256 PUSH1 0x1F DUP5 ADD PUSH1 0x5 SHR DUP2 ADD PUSH1 0x20 DUP6 LT ISZERO PUSH2 0x780 JUMPI POP DUP1 JUMPDEST PUSH1 0x1F DUP5 ADD PUSH1 0x5 SHR DUP3 ADD SWAP2 POP JUMPDEST DUP2 DUP2 LT ISZERO PUSH2 0x7A0 JUMPI PUSH1 0x0 DUP2 SSTORE PUSH1 0x1 ADD PUSH2 0x78C JUMP JUMPDEST POP POP POP POP POP JUMP JUMPDEST DUP2 MLOAD PUSH1 0x1 PUSH1 0x1 PUSH1 0x40 SHL SUB DUP2 GT ISZERO PUSH2 0x7C0 JUMPI PUSH2 0x7C0 PUSH2 0x709 JUMP JUMPDEST PUSH2 0x7D4 DUP2 PUSH2 0x7CE DUP5 SLOAD PUSH2 0x71F JUMP JUMPDEST DUP5 PUSH2 0x759 JUMP JUMPDEST PUSH1 0x20 PUSH1 0x1F DUP3 GT PUSH1 0x1 DUP2 EQ PUSH2 0x808 JUMPI PUSH1 0x0 DUP4 ISZERO PUSH2 0x7F0 JUMPI POP DUP5 DUP3 ADD MLOAD JUMPDEST PUSH1 0x0 NOT PUSH1 0x3 DUP6 SWAP1 SHL SHR NOT AND PUSH1 0x1 DUP5 SWAP1 SHL OR DUP5 SSTORE PUSH2 0x7A0 JUMP JUMPDEST PUSH1 0x0 DUP5 DUP2 MSTORE PUSH1 0x20 DUP2 KECCAK256 PUSH1 0x1F NOT DUP6 AND SWAP2 JUMPDEST DUP3 DUP2 LT ISZERO PUSH2 0x838 JUMPI DUP8 DUP6 ADD MLOAD DUP3 SSTORE PUSH1 0x20 SWAP5 DUP6 ADD SWAP5 PUSH1 0x1 SWAP1 SWAP3 ADD SWAP2 ADD PUSH2 0x818 JUMP JUMPDEST POP DUP5 DUP3 LT ISZERO PUSH2 0x856 JUMPI DUP7 DUP5 ADD MLOAD PUSH1 0x0 NOT PUSH1 0x3 DUP8 SWAP1 SHL PUSH1 0xF8 AND SHR NOT AND DUP2 SSTORE JUMPDEST POP POP POP POP PUSH1 0x1 SWAP1 DUP2 SHL ADD SWAP1 SSTORE POP JUMP JUMPDEST PUSH4 0x4E487B71 PUSH1 0xE0 SHL PUSH1 0x0 MSTORE PUSH1 0x11 PUSH1 0x4 MSTORE PUSH1 0x24 PUSH1 0x0 REVERT JUMPDEST PUSH1 0x1 DUP2 JUMPDEST PUSH1 0x1 DUP5 GT ISZERO PUSH2 0x8B6 JUMPI DUP1 DUP6 DIV DUP2 GT ISZERO PUSH2 0x89A JUMPI PUSH2 0x89A PUSH2 0x865 JUMP JUMPDEST PUSH1 0x1 DUP5 AND ISZERO PUSH2 0x8A8 JUMPI SWAP1 DUP2 MUL SWAP1 JUMPDEST PUSH1 0x1 SWAP4 SWAP1 SWAP4 SHR SWAP3 DUP1 MUL PUSH2 0x87F JUMP JUMPDEST SWAP4 POP SWAP4 SWAP2 POP POP JUMP JUMPDEST PUSH1 0x0 DUP3 PUSH2 0x8CD JUMPI POP PUSH1 0x1 PUSH2 0x95E JUMP JUMPDEST DUP2 PUSH2 0x8DA JUMPI POP PUSH1 0x0 PUSH2 0x95E JUMP JUMPDEST DUP2 PUSH1 0x1 DUP2 EQ PUSH2 0x8F0 JUMPI PUSH1 0x2 DUP2 EQ PUSH2 0x8FA JUMPI PUSH2 0x916 JUMP JUMPDEST PUSH1 0x1 SWAP2 POP POP PUSH2 0x95E JUMP JUMPDEST PUSH1 0xFF DUP5 GT ISZERO PUSH2 0x90B JUMPI PUSH2 0x90B PUSH2 0x865 JUMP JUMPDEST POP POP PUSH1 0x1 DUP3 SHL PUSH2 0x95E JUMP JUMPDEST POP PUSH1 0x20 DUP4 LT PUSH2 0x133 DUP4 LT AND PUSH1 0x4E DUP5 LT PUSH1 0xB DUP5 LT AND OR ISZERO PUSH2 0x939 JUMPI POP DUP2 DUP2 EXP PUSH2 0x95E JUMP JUMPDEST PUSH2 0x946 PUSH1 0x0 NOT DUP5 DUP5 PUSH2 0x87B JUMP JUMPDEST DUP1 PUSH1 0x0 NOT DIV DUP3 GT ISZERO PUSH2 0x95A JUMPI PUSH2 0x95A PUSH2 0x865 JUMP JUMPDEST MUL SWAP1 POP JUMPDEST SWAP3 SWAP2 POP POP JUMP JUMPDEST PUSH1 0x0 PUSH2 0x702 PUSH1 0xFF DUP5 AND DUP4 PUSH2 0x8BE JUMP JUMPDEST DUP1 DUP3 MUL DUP2 ISZERO DUP3 DUP3 DIV DUP5 EQ OR PUSH2 0x95E JUMPI PUSH2 0x95E PUSH2 0x865 JUMP JUMPDEST DUP1 DUP3 ADD DUP1 DUP3 GT ISZERO PUSH2 0x95E JUMPI PUSH2 0x95E PUSH2 0x865 JUMP JUMPDEST PUSH1 0x0 DUP3 PUSH2 0x9BA JUMPI PUSH4 0x4E487B71 PUSH1 0xE0 SHL PUSH1 0x0 MSTORE PUSH1 0x12 PUSH1 0x4 MSTORE PUSH1 0x24 PUSH1 0x0 REVERT JUMPDEST POP DIV SWAP1 JUMP JUMPDEST DUP2 DUP2 SUB DUP2 DUP2 GT ISZERO PUSH2 0x95E JUMPI PUSH2 0x95E PUSH2 0x865 JUMP JUMPDEST PUSH2 0x12D9 DUP1 PUSH2 0x9E1 PUSH1 0x0 CODECOPY PUSH1 0x0 RETURN INVALID PUSH1 0x80 PUSH1 0x40 MSTORE CALLVALUE DUP1 ISZERO PUSH2 0x10 JUMPI PUSH1 0x0 DUP1 REVERT JUMPDEST POP PUSH1 0x4 CALLDATASIZE LT PUSH2 0x1A9 JUMPI PUSH1 0x0 CALLDATALOAD PUSH1 0xE0 SHR DUP1 PUSH4 0x751FD179 GT PUSH2 0xF9 JUMPI DUP1 PUSH4 0x95D89B41 GT PUSH2 0x97 JUMPI DUP1 PUSH4 0xD8952A49 GT PUSH2 0x71 JUMPI DUP1 PUSH4 0xD8952A49 EQ PUSH2 0x393 JUMPI DUP1 PUSH4 0xDD62ED3E EQ PUSH2 0x3A6 JUMPI DUP1 PUSH4 0xF2FDE38B EQ PUSH2 0x3DF JUMPI DUP1 PUSH4 0xF76024C4 EQ PUSH2 0x3F2 JUMPI PUSH1 0x0 DUP1 REVERT JUMPDEST DUP1 PUSH4 0x95D89B41 EQ PUSH2 0x350 JUMPI DUP1 PUSH4 0x99A5D747 EQ PUSH2 0x358 JUMPI DUP1 PUSH4 0xA9059CBB EQ PUSH2 0x380 JUMPI PUSH1 0x0 DUP1 REVERT JUMPDEST DUP1 PUSH4 0x894E47E1 GT PUSH2 0xD3 JUMPI DUP1 PUSH4 0x894E47E1 EQ PUSH2 0x31C JUMPI DUP1 PUSH4 0x8DA5CB5B EQ PUSH2 0x324 JUMPI DUP1 PUSH4 0x902D55A5 EQ PUSH2 0x335 JUMPI DUP1 PUSH4 0x92F6576E EQ PUSH2 0x348 JUMPI PUSH1 0x0 DUP1 REVERT JUMPDEST DUP1 PUSH4 0x751FD179 EQ PUSH2 0x2E3 JUMPI DUP1 PUSH4 0x79020194 EQ PUSH2 0x2F6 JUMPI DUP1 PUSH4 0x8542B336 EQ PUSH2 0x309 JUMPI PUSH1 0x0 DUP1 REVERT JUMPDEST DUP1 PUSH4 0x2274346B GT PUSH2 0x166 JUMPI DUP1 PUSH4 0x398DAA85 GT PUSH2 0x140 JUMPI DUP1 PUSH4 0x398DAA85 EQ PUSH2 0x286 JUMPI DUP1 PUSH4 0x548CBEB0 EQ PUSH2 0x2A9 JUMPI DUP1 PUSH4 0x70A08231 EQ PUSH2 0x2B2 JUMPI DUP1 PUSH4 0x715018A6 EQ PUSH2 0x2DB JUMPI PUSH1 0x0 DUP1 REVERT JUMPDEST DUP1 PUSH4 0x2274346B EQ PUSH2 0x251 JUMPI DUP1 PUSH4 0x23B872DD EQ PUSH2 0x264 JUMPI DUP1 PUSH4 0x313CE567 EQ PUSH2 0x277 JUMPI PUSH1 0x0 DUP1 REVERT JUMPDEST DUP1 PUSH4 0x6FDDE03 EQ PUSH2 0x1AE JUMPI DUP1 PUSH4 0x95EA7B3 EQ PUSH2 0x1CC JUMPI DUP1 PUSH4 0xC8797C3 EQ PUSH2 0x1EF JUMPI DUP1 PUSH4 0x18160DDD EQ PUSH2 0x222 JUMPI DUP1 PUSH4 0x186E2D77 EQ PUSH2 0x234 JUMPI DUP1 PUSH4 0x1BCA0524 EQ PUSH2 0x23E JUMPI JUMPDEST PUSH1 0x0 DUP1 REVERT JUMPDEST PUSH2 0x1B6 PUSH2 0x3FB JUMP JUMPDEST PUSH1 0x40 MLOAD PUSH2 0x1C3 SWAP2 SWAP1 PUSH2 0x1031 JUMP JUMPDEST PUSH1 0x40 MLOAD DUP1 SWAP2 SUB SWAP1 RETURN JUMPDEST PUSH2 0x1DF PUSH2 0x1DA CALLDATASIZE PUSH1 0x4 PUSH2 0x109B JUMP JUMPDEST PUSH2 0x48D JUMP JUMPDEST PUSH1 0x40 MLOAD SWAP1 ISZERO ISZERO DUP2 MSTORE PUSH1 0x20 ADD PUSH2 0x1C3 JUMP JUMPDEST PUSH2 0x20A PUSH20 0x327DF1E6DE05895D2AB08513AADD9313FE505D86 DUP2 JUMP JUMPDEST PUSH1 0x40 MLOAD PUSH1 0x1 PUSH1 0x1 PUSH1 0xA0 SHL SUB SWAP1 SWAP2 AND DUP2 MSTORE PUSH1 0x20 ADD PUSH2 0x1C3 JUMP JUMPDEST PUSH1 0x3 SLOAD JUMPDEST PUSH1 0x40 MLOAD SWAP1 DUP2 MSTORE PUSH1 0x20 ADD PUSH2 0x1C3 JUMP JUMPDEST PUSH2 0x23C PUSH2 0x4A7 JUMP JUMPDEST STOP JUMPDEST PUSH2 0x23C PUSH2 0x24C CALLDATASIZE PUSH1 0x4 PUSH2 0x10C5 JUMP JUMPDEST PUSH2 0x4EC JUMP JUMPDEST PUSH1 0x7 SLOAD PUSH2 0x20A SWAP1 PUSH1 0x1 PUSH1 0x1 PUSH1 0xA0 SHL SUB AND DUP2 JUMP JUMPDEST PUSH2 0x1DF PUSH2 0x272 CALLDATASIZE PUSH1 0x4 PUSH2 0x10E7 JUMP JUMPDEST PUSH2 0x5A7 JUMP JUMPDEST PUSH1 0x40 MLOAD PUSH1 0x12 DUP2 MSTORE PUSH1 0x20 ADD PUSH2 0x1C3 JUMP JUMPDEST PUSH2 0x1DF PUSH2 0x294 CALLDATASIZE PUSH1 0x4 PUSH2 0x1124 JUMP JUMPDEST PUSH1 0xA PUSH1 0x20 MSTORE PUSH1 0x0 SWAP1 DUP2 MSTORE PUSH1 0x40 SWAP1 KECCAK256 SLOAD PUSH1 0xFF AND DUP2 JUMP JUMPDEST PUSH2 0x226 PUSH1 0x9 SLOAD DUP2 JUMP JUMPDEST PUSH2 0x226 PUSH2 0x2C0 CALLDATASIZE PUSH1 0x4 PUSH2 0x1124 JUMP JUMPDEST PUSH1 0x1 PUSH1 0x1 PUSH1 0xA0 SHL SUB AND PUSH1 0x0 SWAP1 DUP2 MSTORE PUSH1 0x1 PUSH1 0x20 MSTORE PUSH1 0x40 SWAP1 KECCAK256 SLOAD SWAP1 JUMP JUMPDEST PUSH2 0x23C PUSH2 0x5CB JUMP JUMPDEST PUSH2 0x23C PUSH2 0x2F1 CALLDATASIZE PUSH1 0x4 PUSH2 0x1154 JUMP JUMPDEST PUSH2 0x5DF JUMP JUMPDEST PUSH2 0x23C PUSH2 0x304 CALLDATASIZE PUSH1 0x4 PUSH2 0x109B JUMP JUMPDEST PUSH2 0x699 JUMP JUMPDEST PUSH1 0x6 SLOAD PUSH2 0x20A SWAP1 PUSH1 0x1 PUSH1 0x1 PUSH1 0xA0 SHL SUB AND DUP2 JUMP JUMPDEST PUSH2 0x226 PUSH2 0x79E JUMP JUMPDEST PUSH1 0x0 SLOAD PUSH1 0x1 PUSH1 0x1 PUSH1 0xA0 SHL SUB AND PUSH2 0x20A JUMP JUMPDEST PUSH2 0x226 PUSH12 0x33B2E3C9FD0803CE8000000 DUP2 JUMP JUMPDEST PUSH2 0x226 PUSH1 0xA DUP2 JUMP JUMPDEST PUSH2 0x1B6 PUSH2 0x7B5 JUMP JUMPDEST PUSH2 0x36B PUSH2 0x366 CALLDATASIZE PUSH1 0x4 PUSH2 0x118B JUMP JUMPDEST PUSH2 0x7C4 JUMP JUMPDEST PUSH1 0x40 DUP1 MLOAD SWAP3 DUP4 MSTORE PUSH1 0x20 DUP4 ADD SWAP2 SWAP1 SWAP2 MSTORE ADD PUSH2 0x1C3 JUMP JUMPDEST PUSH2 0x1DF PUSH2 0x38E CALLDATASIZE PUSH1 0x4 PUSH2 0x109B JUMP JUMPDEST PUSH2 0x805 JUMP JUMPDEST PUSH2 0x23C PUSH2 0x3A1 CALLDATASIZE PUSH1 0x4 PUSH2 0x11A4 JUMP JUMPDEST PUSH2 0x813 JUMP JUMPDEST PUSH2 0x226 PUSH2 0x3B4 CALLDATASIZE PUSH1 0x4 PUSH2 0x11A4 JUMP JUMPDEST PUSH1 0x1 PUSH1 0x1 PUSH1 0xA0 SHL SUB SWAP2 DUP3 AND PUSH1 0x0 SWAP1 DUP2 MSTORE PUSH1 0x2 PUSH1 0x20 SWAP1 DUP2 MSTORE PUSH1 0x40 DUP1 DUP4 KECCAK256 SWAP4 SWAP1 SWAP5 AND DUP3 MSTORE SWAP2 SWAP1 SWAP2 MSTORE KECCAK256 SLOAD SWAP1 JUMP JUMPDEST PUSH2 0x23C PUSH2 0x3ED CALLDATASIZE PUSH1 0x4 PUSH2 0x1124 JUMP JUMPDEST PUSH2 0x966 JUMP JUMPDEST PUSH2 0x226 PUSH1 0x8 SLOAD DUP2 JUMP JUMPDEST PUSH1 0x60 PUSH1 0x4 DUP1 SLOAD PUSH2 0x40A SWAP1 PUSH2 0x11D7 JUMP JUMPDEST DUP1 PUSH1 0x1F ADD PUSH1 0x20 DUP1 SWAP2 DIV MUL PUSH1 0x20 ADD PUSH1 0x40 MLOAD SWAP1 DUP2 ADD PUSH1 0x40 MSTORE DUP1 SWAP3 SWAP2 SWAP1 DUP2 DUP2 MSTORE PUSH1 0x20 ADD DUP3 DUP1 SLOAD PUSH2 0x436 SWAP1 PUSH2 0x11D7 JUMP JUMPDEST DUP1 ISZERO PUSH2 0x483 JUMPI DUP1 PUSH1 0x1F LT PUSH2 0x458 JUMPI PUSH2 0x100 DUP1 DUP4 SLOAD DIV MUL DUP4 MSTORE SWAP2 PUSH1 0x20 ADD SWAP2 PUSH2 0x483 JUMP JUMPDEST DUP3 ADD SWAP2 SWAP1 PUSH1 0x0 MSTORE PUSH1 0x20 PUSH1 0x0 KECCAK256 SWAP1 JUMPDEST DUP2 SLOAD DUP2 MSTORE SWAP1 PUSH1 0x1 ADD SWAP1 PUSH1 0x20 ADD DUP1 DUP4 GT PUSH2 0x466 JUMPI DUP3 SWAP1 SUB PUSH1 0x1F AND DUP3 ADD SWAP2 JUMPDEST POP POP POP POP POP SWAP1 POP SWAP1 JUMP JUMPDEST PUSH1 0x0 CALLER PUSH2 0x49B DUP2 DUP6 DUP6 PUSH2 0x9A1 JUMP JUMPDEST PUSH1 0x1 SWAP2 POP POP JUMPDEST SWAP3 SWAP2 POP POP JUMP JUMPDEST PUSH2 0x4AF PUSH2 0x9AE JUMP JUMPDEST PUSH1 0x0 DUP1 SLOAD PUSH1 0x40 MLOAD PUSH1 0x1 PUSH1 0x1 PUSH1 0xA0 SHL SUB SWAP1 SWAP2 AND SWAP2 SELFBALANCE DUP1 ISZERO PUSH2 0x8FC MUL SWAP3 SWAP1 SWAP2 DUP2 DUP2 DUP2 DUP6 DUP9 DUP9 CALL SWAP4 POP POP POP POP ISZERO DUP1 ISZERO PUSH2 0x4E9 JUMPI RETURNDATASIZE PUSH1 0x0 DUP1 RETURNDATACOPY RETURNDATASIZE PUSH1 0x0 REVERT JUMPDEST POP JUMP JUMPDEST PUSH2 0x4F4 PUSH2 0x9AE JUMP JUMPDEST PUSH1 0xA PUSH2 0x500 DUP3 DUP5 PUSH2 0x1227 JUMP JUMPDEST GT ISZERO PUSH2 0x55F JUMPI PUSH1 0x40 MLOAD PUSH3 0x461BCD PUSH1 0xE5 SHL DUP2 MSTORE PUSH1 0x20 PUSH1 0x4 DUP3 ADD MSTORE PUSH1 0x24 DUP1 DUP3 ADD MSTORE PUSH32 0x4D6F746F546F6B656E3A20746F74616C206665652065786365656473206D6178 PUSH1 0x44 DUP3 ADD MSTORE PUSH4 0x696D756D PUSH1 0xE0 SHL PUSH1 0x64 DUP3 ADD MSTORE PUSH1 0x84 ADD JUMPDEST PUSH1 0x40 MLOAD DUP1 SWAP2 SUB SWAP1 REVERT JUMPDEST PUSH1 0x8 DUP3 SWAP1 SSTORE PUSH1 0x9 DUP2 SWAP1 SSTORE PUSH1 0x40 DUP1 MLOAD DUP4 DUP2 MSTORE PUSH1 0x20 DUP2 ADD DUP4 SWAP1 MSTORE PUSH32 0x4F672C50736BA0FE8A4825ECFDE8BCD931727422A77AC89AF44FCCCE2746E0B3 SWAP2 ADD JUMPDEST PUSH1 0x40 MLOAD DUP1 SWAP2 SUB SWAP1 LOG1 POP POP JUMP JUMPDEST PUSH1 0x0 CALLER PUSH2 0x5B5 DUP6 DUP3 DUP6 PUSH2 0x9DB JUMP JUMPDEST PUSH2 0x5C0 DUP6 DUP6 DUP6 PUSH2 0xA5A JUMP JUMPDEST POP PUSH1 0x1 SWAP5 SWAP4 POP POP POP POP JUMP JUMPDEST PUSH2 0x5D3 PUSH2 0x9AE JUMP JUMPDEST PUSH2 0x5DD PUSH1 0x0 PUSH2 0xAB9 JUMP JUMPDEST JUMP JUMPDEST PUSH2 0x5E7 PUSH2 0x9AE JUMP JUMPDEST PUSH1 0x1 PUSH1 0x1 PUSH1 0xA0 SHL SUB DUP3 AND PUSH2 0x63D JUMPI PUSH1 0x40 MLOAD PUSH3 0x461BCD PUSH1 0xE5 SHL DUP2 MSTORE PUSH1 0x20 PUSH1 0x4 DUP3 ADD MSTORE PUSH1 0x1A PUSH1 0x24 DUP3 ADD MSTORE PUSH32 0x4D6F746F546F6B656E3A20696E76616C69642061646472657373000000000000 PUSH1 0x44 DUP3 ADD MSTORE PUSH1 0x64 ADD PUSH2 0x556 JUMP JUMPDEST PUSH1 0x1 PUSH1 0x1 PUSH1 0xA0 SHL SUB DUP3 AND PUSH1 0x0 DUP2 DUP2 MSTORE PUSH1 0xA PUSH1 0x20 SWAP1 DUP2 MSTORE PUSH1 0x40 SWAP2 DUP3 SWAP1 KECCAK256 DUP1 SLOAD PUSH1 0xFF NOT AND DUP6 ISZERO ISZERO SWAP1 DUP2 OR SWAP1 SWAP2 SSTORE DUP3 MLOAD SWAP4 DUP5 MSTORE SWAP1 DUP4 ADD MSTORE PUSH32 0x69E34A174B4A0CCE59950C4C852317E9797BDCAE125FBF8B5DD8B4311384412F SWAP2 ADD PUSH2 0x59B JUMP JUMPDEST PUSH2 0x6A1 PUSH2 0x9AE JUMP JUMPDEST ADDRESS PUSH1 0x1 PUSH1 0x1 PUSH1 0xA0 SHL SUB DUP4 AND SUB PUSH2 0x707 JUMPI PUSH1 0x40 MLOAD PUSH3 0x461BCD PUSH1 0xE5 SHL DUP2 MSTORE PUSH1 0x20 PUSH1 0x4 DUP3 ADD MSTORE PUSH1 0x25 PUSH1 0x24 DUP3 ADD MSTORE PUSH32 0x4D6F746F546F6B656E3A2063616E6E6F74207265636F766572204D4F544F2074 PUSH1 0x44 DUP3 ADD MSTORE PUSH5 0x6F6B656E73 PUSH1 0xD8 SHL PUSH1 0x64 DUP3 ADD MSTORE PUSH1 0x84 ADD PUSH2 0x556 JUMP JUMPDEST DUP2 PUSH1 0x1 PUSH1 0x1 PUSH1 0xA0 SHL SUB AND PUSH4 0xA9059CBB PUSH2 0x728 PUSH1 0x0 SLOAD PUSH1 0x1 PUSH1 0x1 PUSH1 0xA0 SHL SUB AND SWAP1 JUMP JUMPDEST PUSH1 0x40 MLOAD PUSH1 0x1 PUSH1 0x1 PUSH1 0xE0 SHL SUB NOT PUSH1 0xE0 DUP5 SWAP1 SHL AND DUP2 MSTORE PUSH1 0x1 PUSH1 0x1 PUSH1 0xA0 SHL SUB SWAP1 SWAP2 AND PUSH1 0x4 DUP3 ADD MSTORE PUSH1 0x24 DUP2 ADD DUP5 SWAP1 MSTORE PUSH1 0x44 ADD PUSH1 0x20 PUSH1 0x40 MLOAD DUP1 DUP4 SUB DUP2 PUSH1 0x0 DUP8 GAS CALL ISZERO DUP1 ISZERO PUSH2 0x775 JUMPI RETURNDATASIZE PUSH1 0x0 DUP1 RETURNDATACOPY RETURNDATASIZE PUSH1 0x0 REVERT JUMPDEST POP POP POP POP PUSH1 0x40 MLOAD RETURNDATASIZE PUSH1 0x1F NOT PUSH1 0x1F DUP3 ADD AND DUP3 ADD DUP1 PUSH1 0x40 MSTORE POP DUP2 ADD SWAP1 PUSH2 0x799 SWAP2 SWAP1 PUSH2 0x123A JUMP JUMPDEST POP POP POP JUMP JUMPDEST PUSH1 0x0 PUSH1 0x9 SLOAD PUSH1 0x8 SLOAD PUSH2 0x7B0 SWAP2 SWAP1 PUSH2 0x1227 JUMP JUMPDEST SWAP1 POP SWAP1 JUMP JUMPDEST PUSH1 0x60 PUSH1 0x5 DUP1 SLOAD PUSH2 0x40A SWAP1 PUSH2 0x11D7 JUMP JUMPDEST PUSH1 0x0 DUP1 PUSH1 0x0 PUSH1 0x9 SLOAD PUSH1 0x8 SLOAD PUSH2 0x7D9 SWAP2 SWAP1 PUSH2 0x1227 JUMP JUMPDEST SWAP1 POP PUSH1 0x64 PUSH2 0x7E7 DUP3 DUP7 PUSH2 0x1257 JUMP JUMPDEST PUSH2 0x7F1 SWAP2 SWAP1 PUSH2 0x126E JUMP JUMPDEST SWAP3 POP PUSH2 0x7FD DUP4 DUP6 PUSH2 0x1290 JUMP JUMPDEST SWAP2 POP POP SWAP2 POP SWAP2 JUMP JUMPDEST PUSH1 0x0 CALLER PUSH2 0x49B DUP2 DUP6 DUP6 PUSH2 0xA5A JUMP JUMPDEST PUSH2 0x81B PUSH2 0x9AE JUMP JUMPDEST PUSH1 0x1 PUSH1 0x1 PUSH1 0xA0 SHL SUB DUP3 AND PUSH2 0x87C JUMPI PUSH1 0x40 MLOAD PUSH3 0x461BCD PUSH1 0xE5 SHL DUP2 MSTORE PUSH1 0x20 PUSH1 0x4 DUP3 ADD MSTORE PUSH1 0x22 PUSH1 0x24 DUP3 ADD MSTORE PUSH32 0x4D6F746F546F6B656E3A20696E76616C6964206275796261636B206164647265 PUSH1 0x44 DUP3 ADD MSTORE PUSH2 0x7373 PUSH1 0xF0 SHL PUSH1 0x64 DUP3 ADD MSTORE PUSH1 0x84 ADD PUSH2 0x556 JUMP JUMPDEST PUSH1 0x1 PUSH1 0x1 PUSH1 0xA0 SHL SUB DUP2 AND PUSH2 0x8D2 JUMPI PUSH1 0x40 MLOAD PUSH3 0x461BCD PUSH1 0xE5 SHL DUP2 MSTORE PUSH1 0x20 PUSH1 0x4 DUP3 ADD DUP2 SWAP1 MSTORE PUSH1 0x24 DUP3 ADD MSTORE PUSH32 0x4D6F746F546F6B656E3A20696E76616C6964207661756C742061646472657373 PUSH1 0x44 DUP3 ADD MSTORE PUSH1 0x64 ADD PUSH2 0x556 JUMP JUMPDEST PUSH1 0x6 DUP1 SLOAD PUSH1 0x1 PUSH1 0x1 PUSH1 0xA0 SHL SUB DUP5 DUP2 AND PUSH1 0x1 PUSH1 0x1 PUSH1 0xA0 SHL SUB NOT SWAP3 DUP4 AND DUP2 OR SWAP1 SWAP4 SSTORE PUSH1 0x7 DUP1 SLOAD SWAP2 DUP6 AND SWAP2 SWAP1 SWAP3 AND DUP2 OR SWAP1 SWAP2 SSTORE PUSH1 0x0 DUP3 DUP2 MSTORE PUSH1 0xA PUSH1 0x20 SWAP1 DUP2 MSTORE PUSH1 0x40 DUP1 DUP4 KECCAK256 DUP1 SLOAD PUSH1 0xFF NOT SWAP1 DUP2 AND PUSH1 0x1 SWAP1 DUP2 OR SWAP1 SWAP3 SSTORE DUP6 DUP6 MSTORE SWAP4 DUP3 SWAP1 KECCAK256 DUP1 SLOAD SWAP1 SWAP5 AND OR SWAP1 SWAP3 SSTORE DUP2 MLOAD SWAP4 DUP5 MSTORE DUP4 ADD SWAP2 SWAP1 SWAP2 MSTORE PUSH32 0x14D346CBF9FFE1D19B9746E0B9391E5A4ACB05399F4CC217D3A20391BBDBB44F SWAP2 ADD PUSH2 0x59B JUMP JUMPDEST PUSH2 0x96E PUSH2 0x9AE JUMP JUMPDEST PUSH1 0x1 PUSH1 0x1 PUSH1 0xA0 SHL SUB DUP2 AND PUSH2 0x998 JUMPI PUSH1 0x40 MLOAD PUSH4 0x1E4FBDF7 PUSH1 0xE0 SHL DUP2 MSTORE PUSH1 0x0 PUSH1 0x4 DUP3 ADD MSTORE PUSH1 0x24 ADD PUSH2 0x556 JUMP JUMPDEST PUSH2 0x4E9 DUP2 PUSH2 0xAB9 JUMP JUMPDEST PUSH2 0x799 DUP4 DUP4 DUP4 PUSH1 0x1 PUSH2 0xB09 JUMP JUMPDEST PUSH1 0x0 SLOAD PUSH1 0x1 PUSH1 0x1 PUSH1 0xA0 SHL SUB AND CALLER EQ PUSH2 0x5DD JUMPI PUSH1 0x40 MLOAD PUSH4 0x118CDAA7 PUSH1 0xE0 SHL DUP2 MSTORE CALLER PUSH1 0x4 DUP3 ADD MSTORE PUSH1 0x24 ADD PUSH2 0x556 JUMP JUMPDEST PUSH1 0x1 PUSH1 0x1 PUSH1 0xA0 SHL SUB DUP4 DUP2 AND PUSH1 0x0 SWAP1 DUP2 MSTORE PUSH1 0x2 PUSH1 0x20 SWAP1 DUP2 MSTORE PUSH1 0x40 DUP1 DUP4 KECCAK256 SWAP4 DUP7 AND DUP4 MSTORE SWAP3 SWAP1 MSTORE KECCAK256 SLOAD PUSH1 0x0 NOT DUP2 LT ISZERO PUSH2 0xA54 JUMPI DUP2 DUP2 LT ISZERO PUSH2 0xA45 JUMPI PUSH1 0x40 MLOAD PUSH4 0x7DC7A0D9 PUSH1 0xE1 SHL DUP2 MSTORE PUSH1 0x1 PUSH1 0x1 PUSH1 0xA0 SHL SUB DUP5 AND PUSH1 0x4 DUP3 ADD MSTORE PUSH1 0x24 DUP2 ADD DUP3 SWAP1 MSTORE PUSH1 0x44 DUP2 ADD DUP4 SWAP1 MSTORE PUSH1 0x64 ADD PUSH2 0x556 JUMP JUMPDEST PUSH2 0xA54 DUP5 DUP5 DUP5 DUP5 SUB PUSH1 0x0 PUSH2 0xB09 JUMP JUMPDEST POP POP POP POP JUMP JUMPDEST PUSH1 0x1 PUSH1 0x1 PUSH1 0xA0 SHL SUB DUP4 AND PUSH2 0xA84 JUMPI PUSH1 0x40 MLOAD PUSH4 0x4B637E8F PUSH1 0xE1 SHL DUP2 MSTORE PUSH1 0x0 PUSH1 0x4 DUP3 ADD MSTORE PUSH1 0x24 ADD PUSH2 0x556 JUMP JUMPDEST PUSH1 0x1 PUSH1 0x1 PUSH1 0xA0 SHL SUB DUP3 AND PUSH2 0xAAE JUMPI PUSH1 0x40 MLOAD PUSH4 0xEC442F05 PUSH1 0xE0 SHL DUP2 MSTORE PUSH1 0x0 PUSH1 0x4 DUP3 ADD MSTORE PUSH1 0x24 ADD PUSH2 0x556 JUMP JUMPDEST PUSH2 0x799 DUP4 DUP4 DUP4 PUSH2 0xBDE JUMP JUMPDEST PUSH1 0x0 DUP1 SLOAD PUSH1 0x1 PUSH1 0x1 PUSH1 0xA0 SHL SUB DUP4 DUP2 AND PUSH1 0x1 PUSH1 0x1 PUSH1 0xA0 SHL SUB NOT DUP4 AND DUP2 OR DUP5 SSTORE PUSH1 0x40 MLOAD SWAP2 SWAP1 SWAP3 AND SWAP3 DUP4 SWAP2 PUSH32 0x8BE0079C531659141344CD1FD0A4F28419497F9722A3DAAFE3B4186F6B6457E0 SWAP2 SWAP1 LOG3 POP POP JUMP JUMPDEST PUSH1 0x1 PUSH1 0x1 PUSH1 0xA0 SHL SUB DUP5 AND PUSH2 0xB33 JUMPI PUSH1 0x40 MLOAD PUSH4 0xE602DF05 PUSH1 0xE0 SHL DUP2 MSTORE PUSH1 0x0 PUSH1 0x4 DUP3 ADD MSTORE PUSH1 0x24 ADD PUSH2 0x556 JUMP JUMPDEST PUSH1 0x1 PUSH1 0x1 PUSH1 0xA0 SHL SUB DUP4 AND PUSH2 0xB5D JUMPI PUSH1 0x40 MLOAD PUSH4 0x4A1406B1 PUSH1 0xE1 SHL DUP2 MSTORE PUSH1 0x0 PUSH1 0x4 DUP3 ADD MSTORE PUSH1 0x24 ADD PUSH2 0x556 JUMP JUMPDEST PUSH1 0x1 PUSH1 0x1 PUSH1 0xA0 SHL SUB DUP1 DUP6 AND PUSH1 0x0 SWAP1 DUP2 MSTORE PUSH1 0x2 PUSH1 0x20 SWAP1 DUP2 MSTORE PUSH1 0x40 DUP1 DUP4 KECCAK256 SWAP4 DUP8 AND DUP4 MSTORE SWAP3 SWAP1 MSTORE KECCAK256 DUP3 SWAP1 SSTORE DUP1 ISZERO PUSH2 0xA54 JUMPI DUP3 PUSH1 0x1 PUSH1 0x1 PUSH1 0xA0 SHL SUB AND DUP5 PUSH1 0x1 PUSH1 0x1 PUSH1 0xA0 SHL SUB AND PUSH32 0x8C5BE1E5EBEC7D5BD14F71427D1E84F3DD0314C0F7B2291E5B200AC8C7C3B925 DUP5 PUSH1 0x40 MLOAD PUSH2 0xBD0 SWAP2 DUP2 MSTORE PUSH1 0x20 ADD SWAP1 JUMP JUMPDEST PUSH1 0x40 MLOAD DUP1 SWAP2 SUB SWAP1 LOG3 POP POP POP POP JUMP JUMPDEST PUSH1 0x1 PUSH1 0x1 PUSH1 0xA0 SHL SUB DUP4 AND PUSH2 0xC42 JUMPI PUSH1 0x40 MLOAD PUSH3 0x461BCD PUSH1 0xE5 SHL DUP2 MSTORE PUSH1 0x20 PUSH1 0x4 DUP3 ADD MSTORE PUSH1 0x25 PUSH1 0x24 DUP3 ADD MSTORE PUSH32 0x45524332303A207472616E736665722066726F6D20746865207A65726F206164 PUSH1 0x44 DUP3 ADD MSTORE PUSH5 0x6472657373 PUSH1 0xD8 SHL PUSH1 0x64 DUP3 ADD MSTORE PUSH1 0x84 ADD PUSH2 0x556 JUMP JUMPDEST PUSH1 0x1 PUSH1 0x1 PUSH1 0xA0 SHL SUB DUP3 AND PUSH2 0xCA4 JUMPI PUSH1 0x40 MLOAD PUSH3 0x461BCD PUSH1 0xE5 SHL DUP2 MSTORE PUSH1 0x20 PUSH1 0x4 DUP3 ADD MSTORE PUSH1 0x23 PUSH1 0x24 DUP3 ADD MSTORE PUSH32 0x45524332303A207472616E7366657220746F20746865207A65726F2061646472 PUSH1 0x44 DUP3 ADD MSTORE PUSH3 0x657373 PUSH1 0xE8 SHL PUSH1 0x64 DUP3 ADD MSTORE PUSH1 0x84 ADD PUSH2 0x556 JUMP JUMPDEST PUSH1 0x0 DUP2 GT PUSH2 0xD11 JUMPI PUSH1 0x40 MLOAD PUSH3 0x461BCD PUSH1 0xE5 SHL DUP2 MSTORE PUSH1 0x20 PUSH1 0x4 DUP3 ADD MSTORE PUSH1 0x34 PUSH1 0x24 DUP3 ADD MSTORE PUSH32 0x4D6F746F546F6B656E3A207472616E7366657220616D6F756E74206D75737420 PUSH1 0x44 DUP3 ADD MSTORE PUSH20 0x62652067726561746572207468616E207A65726F PUSH1 0x60 SHL PUSH1 0x64 DUP3 ADD MSTORE PUSH1 0x84 ADD PUSH2 0x556 JUMP JUMPDEST PUSH1 0x1 PUSH1 0x1 PUSH1 0xA0 SHL SUB DUP4 AND PUSH1 0x0 SWAP1 DUP2 MSTORE PUSH1 0xA PUSH1 0x20 MSTORE PUSH1 0x40 DUP2 KECCAK256 SLOAD PUSH1 0xFF AND ISZERO DUP1 ISZERO PUSH2 0xD53 JUMPI POP PUSH1 0x1 PUSH1 0x1 PUSH1 0xA0 SHL SUB DUP4 AND PUSH1 0x0 SWAP1 DUP2 MSTORE PUSH1 0xA PUSH1 0x20 MSTORE PUSH1 0x40 SWAP1 KECCAK256 SLOAD PUSH1 0xFF AND ISZERO JUMPDEST DUP1 ISZERO PUSH2 0xD69 JUMPI POP PUSH1 0x6 SLOAD PUSH1 0x1 PUSH1 0x1 PUSH1 0xA0 SHL SUB AND ISZERO ISZERO JUMPDEST DUP1 ISZERO PUSH2 0xD7F JUMPI POP PUSH1 0x7 SLOAD PUSH1 0x1 PUSH1 0x1 PUSH1 0xA0 SHL SUB AND ISZERO ISZERO JUMPDEST SWAP1 POP DUP1 DUP1 ISZERO PUSH2 0xD9D JUMPI POP PUSH1 0x0 PUSH1 0x9 SLOAD PUSH1 0x8 SLOAD PUSH2 0xD9B SWAP2 SWAP1 PUSH2 0x1227 JUMP JUMPDEST GT JUMPDEST ISZERO PUSH2 0xE05 JUMPI PUSH1 0x0 PUSH1 0x9 SLOAD PUSH1 0x8 SLOAD PUSH2 0xDB4 SWAP2 SWAP1 PUSH2 0x1227 JUMP JUMPDEST SWAP1 POP PUSH1 0x0 PUSH1 0x64 PUSH2 0xDC4 DUP4 DUP7 PUSH2 0x1257 JUMP JUMPDEST PUSH2 0xDCE SWAP2 SWAP1 PUSH2 0x126E JUMP JUMPDEST SWAP1 POP PUSH1 0x0 PUSH2 0xDDC DUP3 DUP7 PUSH2 0x1290 JUMP JUMPDEST SWAP1 POP PUSH2 0xDE9 DUP8 ADDRESS DUP5 PUSH2 0xE10 JUMP JUMPDEST PUSH2 0xDF2 DUP3 PUSH2 0xF3A JUMP JUMPDEST PUSH2 0xDFD DUP8 DUP8 DUP4 PUSH2 0xE10 JUMP JUMPDEST POP POP POP PUSH2 0xA54 JUMP JUMPDEST PUSH2 0xA54 DUP5 DUP5 DUP5 PUSH2 0xA5A JUMP JUMPDEST PUSH1 0x1 PUSH1 0x1 PUSH1 0xA0 SHL SUB DUP4 AND PUSH2 0xE3B JUMPI DUP1 PUSH1 0x3 PUSH1 0x0 DUP3 DUP3 SLOAD PUSH2 0xE30 SWAP2 SWAP1 PUSH2 0x1227 JUMP JUMPDEST SWAP1 SWAP2 SSTORE POP PUSH2 0xEAD SWAP1 POP JUMP JUMPDEST PUSH1 0x1 PUSH1 0x1 PUSH1 0xA0 SHL SUB DUP4 AND PUSH1 0x0 SWAP1 DUP2 MSTORE PUSH1 0x1 PUSH1 0x20 MSTORE PUSH1 0x40 SWAP1 KECCAK256 SLOAD DUP2 DUP2 LT ISZERO PUSH2 0xE8E JUMPI PUSH1 0x40 MLOAD PUSH4 0x391434E3 PUSH1 0xE2 SHL DUP2 MSTORE PUSH1 0x1 PUSH1 0x1 PUSH1 0xA0 SHL SUB DUP6 AND PUSH1 0x4 DUP3 ADD MSTORE PUSH1 0x24 DUP2 ADD DUP3 SWAP1 MSTORE PUSH1 0x44 DUP2 ADD DUP4 SWAP1 MSTORE PUSH1 0x64 ADD PUSH2 0x556 JUMP JUMPDEST PUSH1 0x1 PUSH1 0x1 PUSH1 0xA0 SHL SUB DUP5 AND PUSH1 0x0 SWAP1 DUP2 MSTORE PUSH1 0x1 PUSH1 0x20 MSTORE PUSH1 0x40 SWAP1 KECCAK256 SWAP1 DUP3 SWAP1 SUB SWAP1 SSTORE JUMPDEST PUSH1 0x1 PUSH1 0x1 PUSH1 0xA0 SHL SUB DUP3 AND PUSH2 0xEC9 JUMPI PUSH1 0x3 DUP1 SLOAD DUP3 SWAP1 SUB SWAP1 SSTORE PUSH2 0xEE8 JUMP JUMPDEST PUSH1 0x1 PUSH1 0x1 PUSH1 0xA0 SHL SUB DUP3 AND PUSH1 0x0 SWAP1 DUP2 MSTORE PUSH1 0x1 PUSH1 0x20 MSTORE PUSH1 0x40 SWAP1 KECCAK256 DUP1 SLOAD DUP3 ADD SWAP1 SSTORE JUMPDEST DUP2 PUSH1 0x1 PUSH1 0x1 PUSH1 0xA0 SHL SUB AND DUP4 PUSH1 0x1 PUSH1 0x1 PUSH1 0xA0 SHL SUB AND PUSH32 0xDDF252AD1BE2C89B69C2B068FC378DAA952BA7F163C4A11628F55A4DF523B3EF DUP4 PUSH1 0x40 MLOAD PUSH2 0xF2D SWAP2 DUP2 MSTORE PUSH1 0x20 ADD SWAP1 JUMP JUMPDEST PUSH1 0x40 MLOAD DUP1 SWAP2 SUB SWAP1 LOG3 POP POP POP JUMP JUMPDEST DUP1 PUSH1 0x0 SUB PUSH2 0xF45 JUMPI POP JUMP JUMPDEST PUSH1 0x0 PUSH1 0x9 SLOAD PUSH1 0x8 SLOAD PUSH2 0xF57 SWAP2 SWAP1 PUSH2 0x1227 JUMP JUMPDEST SWAP1 POP PUSH1 0x0 DUP2 PUSH1 0x8 SLOAD DUP5 PUSH2 0xF6A SWAP2 SWAP1 PUSH2 0x1257 JUMP JUMPDEST PUSH2 0xF74 SWAP2 SWAP1 PUSH2 0x126E JUMP JUMPDEST SWAP1 POP PUSH1 0x0 PUSH2 0xF82 DUP3 DUP6 PUSH2 0x1290 JUMP JUMPDEST SWAP1 POP PUSH1 0x0 DUP3 GT DUP1 ISZERO PUSH2 0xF9E JUMPI POP PUSH1 0x6 SLOAD PUSH1 0x1 PUSH1 0x1 PUSH1 0xA0 SHL SUB AND ISZERO ISZERO JUMPDEST ISZERO PUSH2 0xFBB JUMPI PUSH1 0x6 SLOAD PUSH2 0xFBB SWAP1 ADDRESS SWAP1 PUSH1 0x1 PUSH1 0x1 PUSH1 0xA0 SHL SUB AND DUP5 PUSH2 0xE10 JUMP JUMPDEST PUSH1 0x0 DUP2 GT DUP1 ISZERO PUSH2 0xFD5 JUMPI POP PUSH1 0x7 SLOAD PUSH1 0x1 PUSH1 0x1 PUSH1 0xA0 SHL SUB AND ISZERO ISZERO JUMPDEST ISZERO PUSH2 0xFF2 JUMPI PUSH1 0x7 SLOAD PUSH2 0xFF2 SWAP1 ADDRESS SWAP1 PUSH1 0x1 PUSH1 0x1 PUSH1 0xA0 SHL SUB AND DUP4 PUSH2 0xE10 JUMP JUMPDEST PUSH1 0x40 DUP1 MLOAD DUP4 DUP2 MSTORE PUSH1 0x20 DUP2 ADD DUP4 SWAP1 MSTORE PUSH32 0x771D362663B46BD788CD13FC183C9432449A2BE6BCB81051BFEB484AFD9C5DD8 SWAP2 ADD PUSH1 0x40 MLOAD DUP1 SWAP2 SUB SWAP1 LOG1 POP POP POP POP JUMP JUMPDEST PUSH1 0x20 DUP2 MSTORE PUSH1 0x0 DUP3 MLOAD DUP1 PUSH1 0x20 DUP5 ADD MSTORE PUSH1 0x0 JUMPDEST DUP2 DUP2 LT ISZERO PUSH2 0x105F JUMPI PUSH1 0x20 DUP2 DUP7 ADD DUP2 ADD MLOAD PUSH1 0x40 DUP7 DUP5 ADD ADD MSTORE ADD PUSH2 0x1042 JUMP JUMPDEST POP PUSH1 0x0 PUSH1 0x40 DUP3 DUP6 ADD ADD MSTORE PUSH1 0x40 PUSH1 0x1F NOT PUSH1 0x1F DUP4 ADD AND DUP5 ADD ADD SWAP2 POP POP SWAP3 SWAP2 POP POP JUMP JUMPDEST DUP1 CALLDATALOAD PUSH1 0x1 PUSH1 0x1 PUSH1 0xA0 SHL SUB DUP2 AND DUP2 EQ PUSH2 0x1096 JUMPI PUSH1 0x0 DUP1 REVERT JUMPDEST SWAP2 SWAP1 POP JUMP JUMPDEST PUSH1 0x0 DUP1 PUSH1 0x40 DUP4 DUP6 SUB SLT ISZERO PUSH2 0x10AE JUMPI PUSH1 0x0 DUP1 REVERT JUMPDEST PUSH2 0x10B7 DUP4 PUSH2 0x107F JUMP JUMPDEST SWAP5 PUSH1 0x20 SWAP4 SWAP1 SWAP4 ADD CALLDATALOAD SWAP4 POP POP POP JUMP JUMPDEST PUSH1 0x0 DUP1 PUSH1 0x40 DUP4 DUP6 SUB SLT ISZERO PUSH2 0x10D8 JUMPI PUSH1 0x0 DUP1 REVERT JUMPDEST POP POP DUP1 CALLDATALOAD SWAP3 PUSH1 0x20 SWAP1 SWAP2 ADD CALLDATALOAD SWAP2 POP JUMP JUMPDEST PUSH1 0x0 DUP1 PUSH1 0x0 PUSH1 0x60 DUP5 DUP7 SUB SLT ISZERO PUSH2 0x10FC JUMPI PUSH1 0x0 DUP1 REVERT JUMPDEST PUSH2 0x1105 DUP5 PUSH2 0x107F JUMP JUMPDEST SWAP3 POP PUSH2 0x1113 PUSH1 0x20 DUP6 ADD PUSH2 0x107F JUMP JUMPDEST SWAP3 SWAP6 SWAP3 SWAP5 POP POP POP PUSH1 0x40 SWAP2 SWAP1 SWAP2 ADD CALLDATALOAD SWAP1 JUMP JUMPDEST PUSH1 0x0 PUSH1 0x20 DUP3 DUP5 SUB SLT ISZERO PUSH2 0x1136 JUMPI PUSH1 0x0 DUP1 REVERT JUMPDEST PUSH2 0x113F DUP3 PUSH2 0x107F JUMP JUMPDEST SWAP4 SWAP3 POP POP POP JUMP JUMPDEST DUP1 ISZERO ISZERO DUP2 EQ PUSH2 0x4E9 JUMPI PUSH1 0x0 DUP1 REVERT JUMPDEST PUSH1 0x0 DUP1 PUSH1 0x40 DUP4 DUP6 SUB SLT ISZERO PUSH2 0x1167 JUMPI PUSH1 0x0 DUP1 REVERT JUMPDEST PUSH2 0x1170 DUP4 PUSH2 0x107F JUMP JUMPDEST SWAP2 POP PUSH1 0x20 DUP4 ADD CALLDATALOAD PUSH2 0x1180 DUP2 PUSH2 0x1146 JUMP JUMPDEST DUP1 SWAP2 POP POP SWAP3 POP SWAP3 SWAP1 POP JUMP JUMPDEST PUSH1 0x0 PUSH1 0x20 DUP3 DUP5 SUB SLT ISZERO PUSH2 0x119D JUMPI PUSH1 0x0 DUP1 REVERT JUMPDEST POP CALLDATALOAD SWAP2 SWAP1 POP JUMP JUMPDEST PUSH1 0x0 DUP1 PUSH1 0x40 DUP4 DUP6 SUB SLT ISZERO PUSH2 0x11B7 JUMPI PUSH1 0x0 DUP1 REVERT JUMPDEST PUSH2 0x11C0 DUP4 PUSH2 0x107F JUMP JUMPDEST SWAP2 POP PUSH2 0x11CE PUSH1 0x20 DUP5 ADD PUSH2 0x107F JUMP JUMPDEST SWAP1 POP SWAP3 POP SWAP3 SWAP1 POP JUMP JUMPDEST PUSH1 0x1 DUP2 DUP2 SHR SWAP1 DUP3 AND DUP1 PUSH2 0x11EB JUMPI PUSH1 0x7F DUP3 AND SWAP2 POP JUMPDEST PUSH1 0x20 DUP3 LT DUP2 SUB PUSH2 0x120B JUMPI PUSH4 0x4E487B71 PUSH1 0xE0 SHL PUSH1 0x0 MSTORE PUSH1 0x22 PUSH1 0x4 MSTORE PUSH1 0x24 PUSH1 0x0 REVERT JUMPDEST POP SWAP2 SWAP1 POP JUMP JUMPDEST PUSH4 0x4E487B71 PUSH1 0xE0 SHL PUSH1 0x0 MSTORE PUSH1 0x11 PUSH1 0x4 MSTORE PUSH1 0x24 PUSH1 0x0 REVERT JUMPDEST DUP1 DUP3 ADD DUP1 DUP3 GT ISZERO PUSH2 0x4A1 JUMPI PUSH2 0x4A1 PUSH2 0x1211 JUMP JUMPDEST PUSH1 0x0 PUSH1 0x20 DUP3 DUP5 SUB SLT ISZERO PUSH2 0x124C JUMPI PUSH1 0x0 DUP1 REVERT JUMPDEST DUP2 MLOAD PUSH2 0x113F DUP2 PUSH2 0x1146 JUMP JUMPDEST DUP1 DUP3 MUL DUP2 ISZERO DUP3 DUP3 DIV DUP5 EQ OR PUSH2 0x4A1 JUMPI PUSH2 0x4A1 PUSH2 0x1211 JUMP JUMPDEST PUSH1 0x0 DUP3 PUSH2 0x128B JUMPI PUSH4 0x4E487B71 PUSH1 0xE0 SHL PUSH1 0x0 MSTORE PUSH1 0x12 PUSH1 0x4 MSTORE PUSH1 0x24 PUSH1 0x0 REVERT JUMPDEST POP DIV SWAP1 JUMP JUMPDEST DUP2 DUP2 SUB DUP2 DUP2 GT ISZERO PUSH2 0x4A1 JUMPI PUSH2 0x4A1 PUSH2 0x1211 JUMP INVALID LOG2 PUSH5 0x6970667358 0x22 SLT KECCAK256 STATICCALL 0xC6 GAS DELEGATECALL DUP8 JUMPDEST CODESIZE SWAP8 CREATE 0xBC XOR 0xA7 EXTCODESIZE 0xF 0xE9 0xCD ADDRESS DUP7 REVERT PUSH1 0x86 0xDA DUP15 0xC8 0x27 0xD1 MSIZE PUSH18 0xF39F1EF364736F6C634300081B0033000000 "},"methodIdentifiers":{"BASE_SWAP_ROUTER()":"0c8797c3","MAX_FEE_RATE()":"92f6576e","TOTAL_SUPPLY()":"902d55a5","allowance(address,address)":"dd62ed3e","approve(address,uint256)":"095ea7b3","balanceOf(address)":"70a08231","buybackContract()":"8542b336","buybackRate()":"f76024c4","calculateFee(uint256)":"99a5d747","decimals()":"313ce567","emergencyRecoverETH()":"186e2d77","emergencyRecoverToken(address,uint256)":"79020194","feeExempt(address)":"398daa85","getTotalFeeRate()":"894e47e1","liquidityRate()":"548cbeb0","name()":"06fdde03","owner()":"8da5cb5b","renounceOwnership()":"715018a6","setContracts(address,address)":"d8952a49","setFeeExemption(address,bool)":"751fd179","symbol()":"95d89b41","totalSupply()":"18160ddd","transfer(address,uint256)":"a9059cbb","transferFrom(address,address,uint256)":"23b872dd","transferOwnership(address)":"f2fde38b","updateFeeRates(uint256,uint256)":"1bca0524","vaultContract()":"2274346b"}}}}}