{"contracts/AccumulatingVault.sol":{"AccumulatingVault":{"abi":[{"inputs":[{"internalType":"address","name":"_motoToken","type":"address"},{"internalType":"address","name":"_router","type":"address"},{"internalType":"address","name":"initialOwner","type":"address"}],"stateMutability":"nonpayable","type":"constructor"},{"inputs":[{"internalType":"address","name":"owner","type":"address"}],"name":"OwnableInvalidOwner","type":"error"},{"inputs":[{"internalType":"address","name":"account","type":"address"}],"name":"OwnableUnauthorizedAccount","type":"error"},{"inputs":[],"name":"ReentrancyGuardReentrantCall","type":"error"},{"anonymous":false,"inputs":[{"indexed":false,"internalType":"uint256","name":"tokenAmount","type":"uint256"},{"indexed":false,"internalType":"uint256","name":"ethAmount","type":"uint256"},{"indexed":false,"internalType":"uint256","name":"liquidity","type":"uint256"}],"name":"LiquidityAdded","type":"event"},{"anonymous":false,"inputs":[{"indexed":false,"internalType":"uint256","name":"minTokens","type":"uint256"},{"indexed":false,"internalType":"uint256","name":"minETH","type":"uint256"}],"name":"MinAmountsUpdated","type":"event"},{"anonymous":false,"inputs":[{"indexed":true,"internalType":"address","name":"previousOwner","type":"address"},{"indexed":true,"internalType":"address","name":"newOwner","type":"address"}],"name":"OwnershipTransferred","type":"event"},{"anonymous":false,"inputs":[{"indexed":false,"internalType":"uint256","name":"rewardPercentage","type":"uint256"},{"indexed":false,"internalType":"uint256","name":"liquidityPercentage","type":"uint256"}],"name":"PercentagesUpdated","type":"event"},{"anonymous":false,"inputs":[{"indexed":true,"internalType":"address","name":"user","type":"address"},{"indexed":false,"internalType":"uint256","name":"amount","type":"uint256"}],"name":"RewardsClaimed","type":"event"},{"anonymous":false,"inputs":[{"indexed":false,"internalType":"uint256","name":"totalHolders","type":"uint256"},{"indexed":false,"internalType":"uint256","name":"totalETH","type":"uint256"}],"name":"RewardsDistributed","type":"event"},{"anonymous":false,"inputs":[{"indexed":false,"internalType":"uint256","name":"tokensConverted","type":"uint256"},{"indexed":false,"internalType":"uint256","name":"ethReceived","type":"uint256"}],"name":"TokensConverted","type":"event"},{"stateMutability":"payable","type":"fallback"},{"inputs":[],"name":"canProcessTokens","outputs":[{"internalType":"bool","name":"canProcess","type":"bool"},{"internalType":"uint256","name":"tokenBalance","type":"uint256"}],"stateMutability":"view","type":"function"},{"inputs":[],"name":"claimCooldown","outputs":[{"internalType":"uint256","name":"","type":"uint256"}],"stateMutability":"view","type":"function"},{"inputs":[],"name":"claimRewards","outputs":[],"stateMutability":"nonpayable","type":"function"},{"inputs":[{"internalType":"address[]","name":"holders","type":"address[]"}],"name":"distributeRewards","outputs":[],"stateMutability":"nonpayable","type":"function"},{"inputs":[],"name":"emergencyWithdrawETH","outputs":[],"stateMutability":"nonpayable","type":"function"},{"inputs":[{"internalType":"address","name":"token","type":"address"},{"internalType":"uint256","name":"amount","type":"uint256"}],"name":"emergencyWithdrawToken","outputs":[],"stateMutability":"nonpayable","type":"function"},{"inputs":[{"internalType":"address","name":"user","type":"address"}],"name":"getUserRewardInfo","outputs":[{"internalType":"uint256","name":"claimableAmount","type":"uint256"},{"internalType":"uint256","name":"nextClaimTime","type":"uint256"}],"stateMutability":"view","type":"function"},{"inputs":[{"internalType":"address","name":"","type":"address"}],"name":"lastClaimTime","outputs":[{"internalType":"uint256","name":"","type":"uint256"}],"stateMutability":"view","type":"function"},{"inputs":[],"name":"liquidityPercentage","outputs":[{"internalType":"uint256","name":"","type":"uint256"}],"stateMutability":"view","type":"function"},{"inputs":[],"name":"maxSlippage","outputs":[{"internalType":"uint256","name":"","type":"uint256"}],"stateMutability":"view","type":"function"},{"inputs":[],"name":"minETHForLiquidity","outputs":[{"internalType":"uint256","name":"","type":"uint256"}],"stateMutability":"view","type":"function"},{"inputs":[],"name":"minTokensForConversion","outputs":[{"internalType":"uint256","name":"","type":"uint256"}],"stateMutability":"view","type":"function"},{"inputs":[],"name":"motoToken","outputs":[{"internalType":"contract IERC20","name":"","type":"address"}],"stateMutability":"view","type":"function"},{"inputs":[],"name":"owner","outputs":[{"internalType":"address","name":"","type":"address"}],"stateMutability":"view","type":"function"},{"inputs":[],"name":"processTokens","outputs":[],"stateMutability":"nonpayable","type":"function"},{"inputs":[],"name":"renounceOwnership","outputs":[],"stateMutability":"nonpayable","type":"function"},{"inputs":[],"name":"rewardPercentage","outputs":[{"internalType":"uint256","name":"","type":"uint256"}],"stateMutability":"view","type":"function"},{"inputs":[{"internalType":"address","name":"","type":"address"}],"name":"rewards","outputs":[{"internalType":"uint256","name":"","type":"uint256"}],"stateMutability":"view","type":"function"},{"inputs":[],"name":"router","outputs":[{"internalType":"contract IUniswapV2Router02","name":"","type":"address"}],"stateMutability":"view","type":"function"},{"inputs":[],"name":"totalETHForLiquidity","outputs":[{"internalType":"uint256","name":"","type":"uint256"}],"stateMutability":"view","type":"function"},{"inputs":[],"name":"totalETHForRewards","outputs":[{"internalType":"uint256","name":"","type":"uint256"}],"stateMutability":"view","type":"function"},{"inputs":[],"name":"totalRewardsDistributed","outputs":[{"internalType":"uint256","name":"","type":"uint256"}],"stateMutability":"view","type":"function"},{"inputs":[{"internalType":"address","name":"newOwner","type":"address"}],"name":"transferOwnership","outputs":[],"stateMutability":"nonpayable","type":"function"},{"inputs":[{"internalType":"uint256","name":"_cooldown","type":"uint256"}],"name":"updateClaimCooldown","outputs":[],"stateMutability":"nonpayable","type":"function"},{"inputs":[{"internalType":"uint256","name":"_maxSlippage","type":"uint256"}],"name":"updateMaxSlippage","outputs":[],"stateMutability":"nonpayable","type":"function"},{"inputs":[{"internalType":"uint256","name":"_minTokens","type":"uint256"},{"internalType":"uint256","name":"_minETH","type":"uint256"}],"name":"updateMinAmounts","outputs":[],"stateMutability":"nonpayable","type":"function"},{"inputs":[{"internalType":"uint256","name":"_rewardPercentage","type":"uint256"},{"internalType":"uint256","name":"_liquidityPercentage","type":"uint256"}],"name":"updatePercentages","outputs":[],"stateMutability":"nonpayable","type":"function"},{"stateMutability":"payable","type":"receive"}],"evm":{"bytecode":{"linkReferences":{},"object":"60c0604052603c6007556028600855681b1ae4d6e2ef500000600955662386f26fc10000600a556101f4600b55610e10600c5534801561003e57600080fd5b5060405161212d38038061212d83398101604081905261005d9161025a565b806001600160a01b03811661008d57604051631e4fbdf760e01b8152600060048201526024015b60405180910390fd5b610096816101ee565b50600180556001600160a01b0383166101075760405162461bcd60e51b815260206004820152602d60248201527f416363756d756c6174696e675661756c743a20696e76616c6964204d4f544f2060448201526c746f6b656e206164647265737360981b6064820152608401610084565b6001600160a01b03821661016f5760405162461bcd60e51b815260206004820152602960248201527f416363756d756c6174696e675661756c743a20696e76616c696420726f75746560448201526872206164647265737360b81b6064820152608401610084565b6001600160a01b0381166101d65760405162461bcd60e51b815260206004820152602860248201527f416363756d756c6174696e675661756c743a20696e76616c6964206f776e6572604482015267206164647265737360c01b6064820152608401610084565b506001600160a01b0391821660a0521660805261029d565b600080546001600160a01b038381166001600160a01b0319831681178455604051919092169283917f8be0079c531659141344cd1fd0a4f28419497f9722a3daafe3b4186f6b6457e09190a35050565b80516001600160a01b038116811461025557600080fd5b919050565b60008060006060848603121561026f57600080fd5b6102788461023e565b92506102866020850161023e565b91506102946040850161023e565b90509250925092565b60805160a051611ded610340600039600081816104610152818161058001528181610b8f01528181610c6f01528181610de20152818161116a015281816111fd01528181611564015281816117ba015261186101526000818161049501528181611138015281816112510152818161130c015281816113db015281816114af015281816115b10152818161169c0152818161178801526118310152611ded6000f3fe6080604052600436106101895760003560e01c8063a4c3b091116100e0578063df37ab4c11610084578063f7cfc2e011610061578063f7cfc2e01461044f578063f887ea4014610483578063f896acc7146104b7578063fdea3657146104d757005b8063df37ab4c14610404578063ee17254614610419578063f2fde38b1461042f57005b8063c20d2295116100bd578063c20d229514610398578063c5a55152146103b8578063c93dc77e146103d8578063cefce826146103ee57005b8063a4c3b0911461032b578063b1d23f021461034b578063b77cf9c61461036b57005b806338c01c6811610147578063715018a611610124578063715018a6146102b957806384536017146102ce5780638c04166f146102e35780638da5cb5b146102f957005b806338c01c681461025857806352d472eb1461026e578063695173101461028457005b806217c5781461018b578063048b87ba146101b45780630700037d146101ca5780630d286df9146101f757806326ee4ab414610217578063372500ab14610243575b005b34801561019757600080fd5b506101a160095481565b6040519081526020015b60405180910390f35b3480156101c057600080fd5b506101a160085481565b3480156101d657600080fd5b506101a16101e53660046119e4565b60026020526000908152604090205481565b34801561020357600080fd5b50610189610212366004611a08565b6104ed565b34801561022357600080fd5b5061022c61055e565b6040805192151583526020830191909152016101ab565b34801561024f57600080fd5b506101896105f9565b34801561026457600080fd5b506101a160055481565b34801561027a57600080fd5b506101a160075481565b34801561029057600080fd5b506102a461029f3660046119e4565b610813565b604080519283526020830191909152016101ab565b3480156102c557600080fd5b50610189610859565b3480156102da57600080fd5b5061018961086b565b3480156102ef57600080fd5b506101a1600b5481565b34801561030557600080fd5b506000546001600160a01b03165b6040516001600160a01b0390911681526020016101ab565b34801561033757600080fd5b50610189610346366004611a21565b6108b0565b34801561035757600080fd5b50610189610366366004611a4d565b61094f565b34801561037757600080fd5b506101a16103863660046119e4565b60036020526000908152604090205481565b3480156103a457600080fd5b506101896103b3366004611a4d565b61099f565b3480156103c457600080fd5b506101896103d3366004611a6f565b610a57565b3480156103e457600080fd5b506101a1600a5481565b3480156103fa57600080fd5b506101a160065481565b34801561041057600080fd5b50610189610dc2565b34801561042557600080fd5b506101a160045481565b34801561043b57600080fd5b5061018961044a3660046119e4565b610fd4565b34801561045b57600080fd5b506103137f000000000000000000000000000000000000000000000000000000000000000081565b34801561048f57600080fd5b506103137f000000000000000000000000000000000000000000000000000000000000000081565b3480156104c357600080fd5b506101896104d2366004611a08565b61100f565b3480156104e357600080fd5b506101a1600c5481565b6104f561107a565b620151808111156105595760405162461bcd60e51b8152602060048201526024808201527f416363756d756c6174696e675661756c743a20636f6f6c646f776e20746f6f206044820152636c6f6e6760e01b60648201526084015b60405180910390fd5b600c55565b6040516370a0823160e01b815230600482015260009081906001600160a01b037f000000000000000000000000000000000000000000000000000000000000000016906370a0823190602401602060405180830381865afa1580156105c7573d6000803e3d6000fd5b505050506040513d601f19601f820116820180604052508101906105eb9190611ae6565b905060095481101591509091565b6106016110a7565b3360008181526002602052604090205461066c5760405162461bcd60e51b815260206004820152602660248201527f416363756d756c6174696e675661756c743a206e6f207265776172647320746f60448201526520636c61696d60d01b6064820152608401610550565b600c546001600160a01b0382166000908152600360205260409020546106929190611b15565b4210156106f35760405162461bcd60e51b815260206004820152602960248201527f416363756d756c6174696e675661756c743a20636c61696d20636f6f6c646f776044820152681b881b9bdd081b595d60ba1b6064820152608401610550565b6001600160a01b038116600081815260026020908152604080832080549084905560039092528083204290555190929083908381818185875af1925050503d806000811461075d576040519150601f19603f3d011682016040523d82523d6000602084013e610762565b606091505b50509050806107c25760405162461bcd60e51b815260206004820152602660248201527f416363756d756c6174696e675661756c743a20455448207472616e736665722060448201526519985a5b195960d21b6064820152608401610550565b826001600160a01b03167ffc30cddea38e2bf4d6ea7d3f9ed3b6ad7f176419f4963bd81318067a4aee73fe836040516107fd91815260200190565b60405180910390a250505061081160018055565b565b6001600160a01b038116600090815260026020908152604080832054600c5460039093529083205490929161084791611b15565b9050428110156108545750425b915091565b61086161107a565b61081160006110d1565b61087361107a565b600080546040516001600160a01b03909116914780156108fc02929091818181858888f193505050501580156108ad573d6000803e3d6000fd5b50565b6108b861107a565b816001600160a01b031663a9059cbb6108d96000546001600160a01b031690565b6040516001600160e01b031960e084901b1681526001600160a01b039091166004820152602481018490526044016020604051808303816000875af1158015610926573d6000803e3d6000fd5b505050506040513d601f19601f8201168201806040525081019061094a9190611b2e565b505050565b61095761107a565b6009829055600a81905560408051838152602081018390527f0516c186cf8751443f5237c121870265c38584bd3565be12ff51c24325b7e96091015b60405180910390a15050565b6109a761107a565b6109b18183611b15565b606414610a175760405162461bcd60e51b815260206004820152602e60248201527f416363756d756c6174696e675661756c743a2070657263656e7461676573206d60448201526d07573742073756d20746f203130360941b6064820152608401610550565b6007829055600881905560408051838152602081018390527fd3df56766ddb000ec4baeedc57e730d6fdda10f47ceec2e2c8a3a711b0e81edf9101610993565b610a5f6110a7565b600060055411610ac95760405162461bcd60e51b815260206004820152602f60248201527f416363756d756c6174696e675661756c743a206e6f2045544820617661696c6160448201526e626c6520666f72207265776172647360881b6064820152608401610550565b80610b255760405162461bcd60e51b815260206004820152602660248201527f416363756d756c6174696e675661756c743a206e6f20686f6c646572732070726044820152651bdd9a59195960d21b6064820152608401610550565b6064811115610b8b5760405162461bcd60e51b815260206004820152602c60248201527f416363756d756c6174696e675661756c743a20746f6f206d616e7920686f6c6460448201526b0cae4e640d2dc40c4c2e8c6d60a31b6064820152608401610550565b60007f00000000000000000000000000000000000000000000000000000000000000006001600160a01b03166318160ddd6040518163ffffffff1660e01b8152600401602060405180830381865afa158015610beb573d6000803e3d6000fd5b505050506040513d601f19601f82011682018060405250810190610c0f9190611ae6565b6005549091506000805b84811015610d48576000868683818110610c3557610c35611b50565b9050602002016020810190610c4a91906119e4565b6040516370a0823160e01b81526001600160a01b0380831660048301529192506000917f000000000000000000000000000000000000000000000000000000000000000016906370a0823190602401602060405180830381865afa158015610cb6573d6000803e3d6000fd5b505050506040513d601f19601f82011682018060405250810190610cda9190611ae6565b90508015610d3e57600086610cef8388611b66565b610cf99190611b7d565b90508015610d3c576001600160a01b03831660009081526002602052604081208054839290610d29908490611b15565b90915550610d3990508186611b15565b94505b505b5050600101610c19565b508060056000828254610d5b9190611b9f565b925050819055508060046000828254610d749190611b15565b909155505060408051858152602081018390527f29e98ba00d07f171959c4ddcd2f3020debc7c52cf537a034d7e664340d098c6c910160405180910390a1505050610dbe60018055565b5050565b610dca6110a7565b6040516370a0823160e01b81523060048201526000907f00000000000000000000000000000000000000000000000000000000000000006001600160a01b0316906370a0823190602401602060405180830381865afa158015610e31573d6000803e3d6000fd5b505050506040513d601f19601f82011682018060405250810190610e559190611ae6565b9050600954811015610eb85760405162461bcd60e51b815260206004820152602660248201527f416363756d756c6174696e675661756c743a20696e73756666696369656e7420604482015265746f6b656e7360d01b6064820152608401610550565b6000610ec382611121565b905060008111610f205760405162461bcd60e51b815260206004820152602260248201527f416363756d756c6174696e675661756c743a206e6f2045544820726563656976604482015261195960f21b6064820152608401610550565b6000606460075483610f329190611b66565b610f3c9190611b7d565b90506000610f4a8284611b9f565b90508160056000828254610f5e9190611b15565b925050819055508060066000828254610f779190611b15565b909155505060408051858152602081018590527fb1f942e613354ea6896e9ad64893df77c1e11d211a1733a4551feef9d2d4cc62910160405180910390a1600a548110610fc757610fc78161148c565b5050505061081160018055565b610fdc61107a565b6001600160a01b03811661100657604051631e4fbdf760e01b815260006004820152602401610550565b6108ad816110d1565b61101761107a565b6107d08111156110755760405162461bcd60e51b8152602060048201526024808201527f416363756d756c6174696e675661756c743a20736c69707061676520746f6f206044820152630d0d2ced60e31b6064820152608401610550565b600b55565b6000546001600160a01b031633146108115760405163118cdaa760e01b8152336004820152602401610550565b6002600154036110ca57604051633ee5aeb560e01b815260040160405180910390fd5b6002600155565b600080546001600160a01b038381166001600160a01b0319831681178455604051919092169283917f8be0079c531659141344cd1fd0a4f28419497f9722a3daafe3b4186f6b6457e09190a35050565b60405163095ea7b360e01b81526001600160a01b037f000000000000000000000000000000000000000000000000000000000000000081166004830152602482018390526000917f00000000000000000000000000000000000000000000000000000000000000009091169063095ea7b3906044016020604051808303816000875af11580156111b5573d6000803e3d6000fd5b505050506040513d601f19601f820116820180604052508101906111d99190611b2e565b506040805160028082526060820183526000926020830190803683370190505090507f00000000000000000000000000000000000000000000000000000000000000008160008151811061122f5761122f611b50565b60200260200101906001600160a01b031690816001600160a01b0316815250507f00000000000000000000000000000000000000000000000000000000000000006001600160a01b031663ad5c46486040518163ffffffff1660e01b8152600401602060405180830381865afa1580156112ad573d6000803e3d6000fd5b505050506040513d601f19601f820116820180604052508101906112d19190611bc8565b816001815181106112e4576112e4611b50565b6001600160a01b03928316602091820292909201015260405163d06ca61f60e01b81526000917f0000000000000000000000000000000000000000000000000000000000000000169063d06ca61f906113439087908690600401611c2a565b600060405180830381865afa158015611360573d6000803e3d6000fd5b505050506040513d6000823e601f3d908101601f191682016040526113889190810190611c4b565b90506000612710600b5461271061139f9190611b9f565b836001815181106113b2576113b2611b50565b60200260200101516113c49190611b66565b6113ce9190611b7d565b9050476001600160a01b037f0000000000000000000000000000000000000000000000000000000000000000166318cbafe5878487306114104261012c611b15565b6040518663ffffffff1660e01b8152600401611430959493929190611d18565b6000604051808303816000875af115801561144f573d6000803e3d6000fd5b505050506040513d6000823e601f3d908101601f191682016040526114779190810190611c4b565b506114828147611b9f565b9695505050505050565b6040805160028082526060820183526000926020830190803683370190505090507f00000000000000000000000000000000000000000000000000000000000000006001600160a01b031663ad5c46486040518163ffffffff1660e01b8152600401602060405180830381865afa15801561150b573d6000803e3d6000fd5b505050506040513d601f19601f8201168201806040525081019061152f9190611bc8565b8160008151811061154257611542611b50565b60200260200101906001600160a01b031690816001600160a01b0316815250507f00000000000000000000000000000000000000000000000000000000000000008160018151811061159657611596611b50565b6001600160a01b0392831660209182029290920101526000907f00000000000000000000000000000000000000000000000000000000000000001663d06ca61f6115e1600286611b7d565b846040518363ffffffff1660e01b81526004016115ff929190611c2a565b600060405180830381865afa15801561161c573d6000803e3d6000fd5b505050506040513d6000823e601f3d908101601f191682016040526116449190810190611c4b565b905060008160018151811061165b5761165b611b50565b602002602001015190506000612710600b5461271061167a9190611b9f565b6116849084611b66565b61168e9190611b7d565b905060006001600160a01b037f000000000000000000000000000000000000000000000000000000000000000016637ff36ab56116cc600289611b7d565b8488306116db4261012c611b15565b6040518663ffffffff1660e01b81526004016116fa9493929190611d54565b60006040518083038185885af1158015611718573d6000803e3d6000fd5b50505050506040513d6000823e601f3d908101601f191682016040526117419190810190611c4b565b905060008160018151811061175857611758611b50565b6020026020010151905060006002886117719190611b7d565b60405163095ea7b360e01b81526001600160a01b037f000000000000000000000000000000000000000000000000000000000000000081166004830152602482018590529192507f00000000000000000000000000000000000000000000000000000000000000009091169063095ea7b3906044016020604051808303816000875af1158015611805573d6000803e3d6000fd5b505050506040513d601f19601f820116820180604052508101906118299190611b2e565b5060008060007f00000000000000000000000000000000000000000000000000000000000000006001600160a01b031663f305d719857f000000000000000000000000000000000000000000000000000000000000000088612710600b546127106118949190611b9f565b61189e908c611b66565b6118a89190611b7d565b612710600b546127106118bb9190611b9f565b6118c5908c611b66565b6118cf9190611b7d565b6000546001600160a01b03166118e74261012c611b15565b60405160e089901b6001600160e01b03191681526001600160a01b039687166004820152602481019590955260448501939093526064840191909152909216608482015260a481019190915260c40160606040518083038185885af1158015611954573d6000803e3d6000fd5b50505050506040513d601f19601f820116820180604052508101906119799190611d89565b604080518481526020810184905290810182905292955090935091507fd7f28048575eead8851d024ead087913957dfb4fd1a02b4d1573f5352a5a2be39060600160405180910390a15050505050505050505050565b6001600160a01b03811681146108ad57600080fd5b6000602082840312156119f657600080fd5b8135611a01816119cf565b9392505050565b600060208284031215611a1a57600080fd5b5035919050565b60008060408385031215611a3457600080fd5b8235611a3f816119cf565b946020939093013593505050565b60008060408385031215611a6057600080fd5b50508035926020909101359150565b60008060208385031215611a8257600080fd5b823567ffffffffffffffff811115611a9957600080fd5b8301601f81018513611aaa57600080fd5b803567ffffffffffffffff811115611ac157600080fd5b8560208260051b8401011115611ad657600080fd5b6020919091019590945092505050565b600060208284031215611af857600080fd5b5051919050565b634e487b7160e01b600052601160045260246000fd5b80820180821115611b2857611b28611aff565b92915050565b600060208284031215611b4057600080fd5b81518015158114611a0157600080fd5b634e487b7160e01b600052603260045260246000fd5b8082028115828204841417611b2857611b28611aff565b600082611b9a57634e487b7160e01b600052601260045260246000fd5b500490565b81810381811115611b2857611b28611aff565b634e487b7160e01b600052604160045260246000fd5b600060208284031215611bda57600080fd5b8151611a01816119cf565b600081518084526020840193506020830160005b82811015611c205781516001600160a01b0316865260209586019590910190600101611bf9565b5093949350505050565b828152604060208201526000611c436040830184611be5565b949350505050565b600060208284031215611c5d57600080fd5b815167ffffffffffffffff811115611c7457600080fd5b8201601f81018413611c8557600080fd5b805167ffffffffffffffff811115611c9f57611c9f611bb2565b8060051b604051601f19603f830116810181811067ffffffffffffffff82111715611ccc57611ccc611bb2565b604052918252602081840181019290810187841115611cea57600080fd5b6020850194505b83851015611d0d57845180825260209586019590935001611cf1565b509695505050505050565b85815284602082015260a060408201526000611d3760a0830186611be5565b6001600160a01b0394909416606083015250608001529392505050565b848152608060208201526000611d6d6080830186611be5565b6001600160a01b03949094166040830152506060015292915050565b600080600060608486031215611d9e57600080fd5b505081516020830151604090930151909492935091905056fea2646970667358221220281f6e8950813ba4f31875d1d72c75fe3495757e7b4eccb29d73b1a57d3f799f64736f6c634300081b0033","opcodes":"PUSH1 0xC0 PUSH1 0x40 MSTORE PUSH1 0x3C PUSH1 0x7 SSTORE PUSH1 0x28 PUSH1 0x8 SSTORE PUSH9 0x1B1AE4D6E2EF500000 PUSH1 0x9 SSTORE PUSH7 0x2386F26FC10000 PUSH1 0xA SSTORE PUSH2 0x1F4 PUSH1 0xB SSTORE PUSH2 0xE10 PUSH1 0xC SSTORE CALLVALUE DUP1 ISZERO PUSH2 0x3E JUMPI PUSH1 0x0 DUP1 REVERT JUMPDEST POP PUSH1 0x40 MLOAD PUSH2 0x212D CODESIZE SUB DUP1 PUSH2 0x212D DUP4 CODECOPY DUP2 ADD PUSH1 0x40 DUP2 SWAP1 MSTORE PUSH2 0x5D SWAP2 PUSH2 0x25A JUMP JUMPDEST DUP1 PUSH1 0x1 PUSH1 0x1 PUSH1 0xA0 SHL SUB DUP2 AND PUSH2 0x8D JUMPI PUSH1 0x40 MLOAD PUSH4 0x1E4FBDF7 PUSH1 0xE0 SHL DUP2 MSTORE PUSH1 0x0 PUSH1 0x4 DUP3 ADD MSTORE PUSH1 0x24 ADD JUMPDEST PUSH1 0x40 MLOAD DUP1 SWAP2 SUB SWAP1 REVERT JUMPDEST PUSH2 0x96 DUP2 PUSH2 0x1EE JUMP JUMPDEST POP PUSH1 0x1 DUP1 SSTORE PUSH1 0x1 PUSH1 0x1 PUSH1 0xA0 SHL SUB DUP4 AND PUSH2 0x107 JUMPI PUSH1 0x40 MLOAD PUSH3 0x461BCD PUSH1 0xE5 SHL DUP2 MSTORE PUSH1 0x20 PUSH1 0x4 DUP3 ADD MSTORE PUSH1 0x2D PUSH1 0x24 DUP3 ADD MSTORE PUSH32 0x416363756D756C6174696E675661756C743A20696E76616C6964204D4F544F20 PUSH1 0x44 DUP3 ADD MSTORE PUSH13 0x746F6B656E2061646472657373 PUSH1 0x98 SHL PUSH1 0x64 DUP3 ADD MSTORE PUSH1 0x84 ADD PUSH2 0x84 JUMP JUMPDEST PUSH1 0x1 PUSH1 0x1 PUSH1 0xA0 SHL SUB DUP3 AND PUSH2 0x16F JUMPI PUSH1 0x40 MLOAD PUSH3 0x461BCD PUSH1 0xE5 SHL DUP2 MSTORE PUSH1 0x20 PUSH1 0x4 DUP3 ADD MSTORE PUSH1 0x29 PUSH1 0x24 DUP3 ADD MSTORE PUSH32 0x416363756D756C6174696E675661756C743A20696E76616C696420726F757465 PUSH1 0x44 DUP3 ADD MSTORE PUSH9 0x722061646472657373 PUSH1 0xB8 SHL PUSH1 0x64 DUP3 ADD MSTORE PUSH1 0x84 ADD PUSH2 0x84 JUMP JUMPDEST PUSH1 0x1 PUSH1 0x1 PUSH1 0xA0 SHL SUB DUP2 AND PUSH2 0x1D6 JUMPI PUSH1 0x40 MLOAD PUSH3 0x461BCD PUSH1 0xE5 SHL DUP2 MSTORE PUSH1 0x20 PUSH1 0x4 DUP3 ADD MSTORE PUSH1 0x28 PUSH1 0x24 DUP3 ADD MSTORE PUSH32 0x416363756D756C6174696E675661756C743A20696E76616C6964206F776E6572 PUSH1 0x44 DUP3 ADD MSTORE PUSH8 0x2061646472657373 PUSH1 0xC0 SHL PUSH1 0x64 DUP3 ADD MSTORE PUSH1 0x84 ADD PUSH2 0x84 JUMP JUMPDEST POP PUSH1 0x1 PUSH1 0x1 PUSH1 0xA0 SHL SUB SWAP2 DUP3 AND PUSH1 0xA0 MSTORE AND PUSH1 0x80 MSTORE PUSH2 0x29D JUMP JUMPDEST PUSH1 0x0 DUP1 SLOAD PUSH1 0x1 PUSH1 0x1 PUSH1 0xA0 SHL SUB DUP4 DUP2 AND PUSH1 0x1 PUSH1 0x1 PUSH1 0xA0 SHL SUB NOT DUP4 AND DUP2 OR DUP5 SSTORE PUSH1 0x40 MLOAD SWAP2 SWAP1 SWAP3 AND SWAP3 DUP4 SWAP2 PUSH32 0x8BE0079C531659141344CD1FD0A4F28419497F9722A3DAAFE3B4186F6B6457E0 SWAP2 SWAP1 LOG3 POP POP JUMP JUMPDEST DUP1 MLOAD PUSH1 0x1 PUSH1 0x1 PUSH1 0xA0 SHL SUB DUP2 AND DUP2 EQ PUSH2 0x255 JUMPI PUSH1 0x0 DUP1 REVERT JUMPDEST SWAP2 SWAP1 POP JUMP JUMPDEST PUSH1 0x0 DUP1 PUSH1 0x0 PUSH1 0x60 DUP5 DUP7 SUB SLT ISZERO PUSH2 0x26F JUMPI PUSH1 0x0 DUP1 REVERT JUMPDEST PUSH2 0x278 DUP5 PUSH2 0x23E JUMP JUMPDEST SWAP3 POP PUSH2 0x286 PUSH1 0x20 DUP6 ADD PUSH2 0x23E JUMP JUMPDEST SWAP2 POP PUSH2 0x294 PUSH1 0x40 DUP6 ADD PUSH2 0x23E JUMP JUMPDEST SWAP1 POP SWAP3 POP SWAP3 POP SWAP3 JUMP JUMPDEST PUSH1 0x80 MLOAD PUSH1 0xA0 MLOAD PUSH2 0x1DED PUSH2 0x340 PUSH1 0x0 CODECOPY PUSH1 0x0 DUP2 DUP2 PUSH2 0x461 ADD MSTORE DUP2 DUP2 PUSH2 0x580 ADD MSTORE DUP2 DUP2 PUSH2 0xB8F ADD MSTORE DUP2 DUP2 PUSH2 0xC6F ADD MSTORE DUP2 DUP2 PUSH2 0xDE2 ADD MSTORE DUP2 DUP2 PUSH2 0x116A ADD MSTORE DUP2 DUP2 PUSH2 0x11FD ADD MSTORE DUP2 DUP2 PUSH2 0x1564 ADD MSTORE DUP2 DUP2 PUSH2 0x17BA ADD MSTORE PUSH2 0x1861 ADD MSTORE PUSH1 0x0 DUP2 DUP2 PUSH2 0x495 ADD MSTORE DUP2 DUP2 PUSH2 0x1138 ADD MSTORE DUP2 DUP2 PUSH2 0x1251 ADD MSTORE DUP2 DUP2 PUSH2 0x130C ADD MSTORE DUP2 DUP2 PUSH2 0x13DB ADD MSTORE DUP2 DUP2 PUSH2 0x14AF ADD MSTORE DUP2 DUP2 PUSH2 0x15B1 ADD MSTORE DUP2 DUP2 PUSH2 0x169C ADD MSTORE DUP2 DUP2 PUSH2 0x1788 ADD MSTORE PUSH2 0x1831 ADD MSTORE PUSH2 0x1DED PUSH1 0x0 RETURN INVALID PUSH1 0x80 PUSH1 0x40 MSTORE PUSH1 0x4 CALLDATASIZE LT PUSH2 0x189 JUMPI PUSH1 0x0 CALLDATALOAD PUSH1 0xE0 SHR DUP1 PUSH4 0xA4C3B091 GT PUSH2 0xE0 JUMPI DUP1 PUSH4 0xDF37AB4C GT PUSH2 0x84 JUMPI DUP1 PUSH4 0xF7CFC2E0 GT PUSH2 0x61 JUMPI DUP1 PUSH4 0xF7CFC2E0 EQ PUSH2 0x44F JUMPI DUP1 PUSH4 0xF887EA40 EQ PUSH2 0x483 JUMPI DUP1 PUSH4 0xF896ACC7 EQ PUSH2 0x4B7 JUMPI DUP1 PUSH4 0xFDEA3657 EQ PUSH2 0x4D7 JUMPI STOP JUMPDEST DUP1 PUSH4 0xDF37AB4C EQ PUSH2 0x404 JUMPI DUP1 PUSH4 0xEE172546 EQ PUSH2 0x419 JUMPI DUP1 PUSH4 0xF2FDE38B EQ PUSH2 0x42F JUMPI STOP JUMPDEST DUP1 PUSH4 0xC20D2295 GT PUSH2 0xBD JUMPI DUP1 PUSH4 0xC20D2295 EQ PUSH2 0x398 JUMPI DUP1 PUSH4 0xC5A55152 EQ PUSH2 0x3B8 JUMPI DUP1 PUSH4 0xC93DC77E EQ PUSH2 0x3D8 JUMPI DUP1 PUSH4 0xCEFCE826 EQ PUSH2 0x3EE JUMPI STOP JUMPDEST DUP1 PUSH4 0xA4C3B091 EQ PUSH2 0x32B JUMPI DUP1 PUSH4 0xB1D23F02 EQ PUSH2 0x34B JUMPI DUP1 PUSH4 0xB77CF9C6 EQ PUSH2 0x36B JUMPI STOP JUMPDEST DUP1 PUSH4 0x38C01C68 GT PUSH2 0x147 JUMPI DUP1 PUSH4 0x715018A6 GT PUSH2 0x124 JUMPI DUP1 PUSH4 0x715018A6 EQ PUSH2 0x2B9 JUMPI DUP1 PUSH4 0x84536017 EQ PUSH2 0x2CE JUMPI DUP1 PUSH4 0x8C04166F EQ PUSH2 0x2E3 JUMPI DUP1 PUSH4 0x8DA5CB5B EQ PUSH2 0x2F9 JUMPI STOP JUMPDEST DUP1 PUSH4 0x38C01C68 EQ PUSH2 0x258 JUMPI DUP1 PUSH4 0x52D472EB EQ PUSH2 0x26E JUMPI DUP1 PUSH4 0x69517310 EQ PUSH2 0x284 JUMPI STOP JUMPDEST DUP1 PUSH3 0x17C578 EQ PUSH2 0x18B JUMPI DUP1 PUSH4 0x48B87BA EQ PUSH2 0x1B4 JUMPI DUP1 PUSH4 0x700037D EQ PUSH2 0x1CA JUMPI DUP1 PUSH4 0xD286DF9 EQ PUSH2 0x1F7 JUMPI DUP1 PUSH4 0x26EE4AB4 EQ PUSH2 0x217 JUMPI DUP1 PUSH4 0x372500AB EQ PUSH2 0x243 JUMPI JUMPDEST STOP JUMPDEST CALLVALUE DUP1 ISZERO PUSH2 0x197 JUMPI PUSH1 0x0 DUP1 REVERT JUMPDEST POP PUSH2 0x1A1 PUSH1 0x9 SLOAD DUP2 JUMP JUMPDEST PUSH1 0x40 MLOAD SWAP1 DUP2 MSTORE PUSH1 0x20 ADD JUMPDEST PUSH1 0x40 MLOAD DUP1 SWAP2 SUB SWAP1 RETURN JUMPDEST CALLVALUE DUP1 ISZERO PUSH2 0x1C0 JUMPI PUSH1 0x0 DUP1 REVERT JUMPDEST POP PUSH2 0x1A1 PUSH1 0x8 SLOAD DUP2 JUMP JUMPDEST CALLVALUE DUP1 ISZERO PUSH2 0x1D6 JUMPI PUSH1 0x0 DUP1 REVERT JUMPDEST POP PUSH2 0x1A1 PUSH2 0x1E5 CALLDATASIZE PUSH1 0x4 PUSH2 0x19E4 JUMP JUMPDEST PUSH1 0x2 PUSH1 0x20 MSTORE PUSH1 0x0 SWAP1 DUP2 MSTORE PUSH1 0x40 SWAP1 KECCAK256 SLOAD DUP2 JUMP JUMPDEST CALLVALUE DUP1 ISZERO PUSH2 0x203 JUMPI PUSH1 0x0 DUP1 REVERT JUMPDEST POP PUSH2 0x189 PUSH2 0x212 CALLDATASIZE PUSH1 0x4 PUSH2 0x1A08 JUMP JUMPDEST PUSH2 0x4ED JUMP JUMPDEST CALLVALUE DUP1 ISZERO PUSH2 0x223 JUMPI PUSH1 0x0 DUP1 REVERT JUMPDEST POP PUSH2 0x22C PUSH2 0x55E JUMP JUMPDEST PUSH1 0x40 DUP1 MLOAD SWAP3 ISZERO ISZERO DUP4 MSTORE PUSH1 0x20 DUP4 ADD SWAP2 SWAP1 SWAP2 MSTORE ADD PUSH2 0x1AB JUMP JUMPDEST CALLVALUE DUP1 ISZERO PUSH2 0x24F JUMPI PUSH1 0x0 DUP1 REVERT JUMPDEST POP PUSH2 0x189 PUSH2 0x5F9 JUMP JUMPDEST CALLVALUE DUP1 ISZERO PUSH2 0x264 JUMPI PUSH1 0x0 DUP1 REVERT JUMPDEST POP PUSH2 0x1A1 PUSH1 0x5 SLOAD DUP2 JUMP JUMPDEST CALLVALUE DUP1 ISZERO PUSH2 0x27A JUMPI PUSH1 0x0 DUP1 REVERT JUMPDEST POP PUSH2 0x1A1 PUSH1 0x7 SLOAD DUP2 JUMP JUMPDEST CALLVALUE DUP1 ISZERO PUSH2 0x290 JUMPI PUSH1 0x0 DUP1 REVERT JUMPDEST POP PUSH2 0x2A4 PUSH2 0x29F CALLDATASIZE PUSH1 0x4 PUSH2 0x19E4 JUMP JUMPDEST PUSH2 0x813 JUMP JUMPDEST PUSH1 0x40 DUP1 MLOAD SWAP3 DUP4 MSTORE PUSH1 0x20 DUP4 ADD SWAP2 SWAP1 SWAP2 MSTORE ADD PUSH2 0x1AB JUMP JUMPDEST CALLVALUE DUP1 ISZERO PUSH2 0x2C5 JUMPI PUSH1 0x0 DUP1 REVERT JUMPDEST POP PUSH2 0x189 PUSH2 0x859 JUMP JUMPDEST CALLVALUE DUP1 ISZERO PUSH2 0x2DA JUMPI PUSH1 0x0 DUP1 REVERT JUMPDEST POP PUSH2 0x189 PUSH2 0x86B JUMP JUMPDEST CALLVALUE DUP1 ISZERO PUSH2 0x2EF JUMPI PUSH1 0x0 DUP1 REVERT JUMPDEST POP PUSH2 0x1A1 PUSH1 0xB SLOAD DUP2 JUMP JUMPDEST CALLVALUE DUP1 ISZERO PUSH2 0x305 JUMPI PUSH1 0x0 DUP1 REVERT JUMPDEST POP PUSH1 0x0 SLOAD PUSH1 0x1 PUSH1 0x1 PUSH1 0xA0 SHL SUB AND JUMPDEST PUSH1 0x40 MLOAD PUSH1 0x1 PUSH1 0x1 PUSH1 0xA0 SHL SUB SWAP1 SWAP2 AND DUP2 MSTORE PUSH1 0x20 ADD PUSH2 0x1AB JUMP JUMPDEST CALLVALUE DUP1 ISZERO PUSH2 0x337 JUMPI PUSH1 0x0 DUP1 REVERT JUMPDEST POP PUSH2 0x189 PUSH2 0x346 CALLDATASIZE PUSH1 0x4 PUSH2 0x1A21 JUMP JUMPDEST PUSH2 0x8B0 JUMP JUMPDEST CALLVALUE DUP1 ISZERO PUSH2 0x357 JUMPI PUSH1 0x0 DUP1 REVERT JUMPDEST POP PUSH2 0x189 PUSH2 0x366 CALLDATASIZE PUSH1 0x4 PUSH2 0x1A4D JUMP JUMPDEST PUSH2 0x94F JUMP JUMPDEST CALLVALUE DUP1 ISZERO PUSH2 0x377 JUMPI PUSH1 0x0 DUP1 REVERT JUMPDEST POP PUSH2 0x1A1 PUSH2 0x386 CALLDATASIZE PUSH1 0x4 PUSH2 0x19E4 JUMP JUMPDEST PUSH1 0x3 PUSH1 0x20 MSTORE PUSH1 0x0 SWAP1 DUP2 MSTORE PUSH1 0x40 SWAP1 KECCAK256 SLOAD DUP2 JUMP JUMPDEST CALLVALUE DUP1 ISZERO PUSH2 0x3A4 JUMPI PUSH1 0x0 DUP1 REVERT JUMPDEST POP PUSH2 0x189 PUSH2 0x3B3 CALLDATASIZE PUSH1 0x4 PUSH2 0x1A4D JUMP JUMPDEST PUSH2 0x99F JUMP JUMPDEST CALLVALUE DUP1 ISZERO PUSH2 0x3C4 JUMPI PUSH1 0x0 DUP1 REVERT JUMPDEST POP PUSH2 0x189 PUSH2 0x3D3 CALLDATASIZE PUSH1 0x4 PUSH2 0x1A6F JUMP JUMPDEST PUSH2 0xA57 JUMP JUMPDEST CALLVALUE DUP1 ISZERO PUSH2 0x3E4 JUMPI PUSH1 0x0 DUP1 REVERT JUMPDEST POP PUSH2 0x1A1 PUSH1 0xA SLOAD DUP2 JUMP JUMPDEST CALLVALUE DUP1 ISZERO PUSH2 0x3FA JUMPI PUSH1 0x0 DUP1 REVERT JUMPDEST POP PUSH2 0x1A1 PUSH1 0x6 SLOAD DUP2 JUMP JUMPDEST CALLVALUE DUP1 ISZERO PUSH2 0x410 JUMPI PUSH1 0x0 DUP1 REVERT JUMPDEST POP PUSH2 0x189 PUSH2 0xDC2 JUMP JUMPDEST CALLVALUE DUP1 ISZERO PUSH2 0x425 JUMPI PUSH1 0x0 DUP1 REVERT JUMPDEST POP PUSH2 0x1A1 PUSH1 0x4 SLOAD DUP2 JUMP JUMPDEST CALLVALUE DUP1 ISZERO PUSH2 0x43B JUMPI PUSH1 0x0 DUP1 REVERT JUMPDEST POP PUSH2 0x189 PUSH2 0x44A CALLDATASIZE PUSH1 0x4 PUSH2 0x19E4 JUMP JUMPDEST PUSH2 0xFD4 JUMP JUMPDEST CALLVALUE DUP1 ISZERO PUSH2 0x45B JUMPI PUSH1 0x0 DUP1 REVERT JUMPDEST POP PUSH2 0x313 PUSH32 0x0 DUP2 JUMP JUMPDEST CALLVALUE DUP1 ISZERO PUSH2 0x48F JUMPI PUSH1 0x0 DUP1 REVERT JUMPDEST POP PUSH2 0x313 PUSH32 0x0 DUP2 JUMP JUMPDEST CALLVALUE DUP1 ISZERO PUSH2 0x4C3 JUMPI PUSH1 0x0 DUP1 REVERT JUMPDEST POP PUSH2 0x189 PUSH2 0x4D2 CALLDATASIZE PUSH1 0x4 PUSH2 0x1A08 JUMP JUMPDEST PUSH2 0x100F JUMP JUMPDEST CALLVALUE DUP1 ISZERO PUSH2 0x4E3 JUMPI PUSH1 0x0 DUP1 REVERT JUMPDEST POP PUSH2 0x1A1 PUSH1 0xC SLOAD DUP2 JUMP JUMPDEST PUSH2 0x4F5 PUSH2 0x107A JUMP JUMPDEST PUSH3 0x15180 DUP2 GT ISZERO PUSH2 0x559 JUMPI PUSH1 0x40 MLOAD PUSH3 0x461BCD PUSH1 0xE5 SHL DUP2 MSTORE PUSH1 0x20 PUSH1 0x4 DUP3 ADD MSTORE PUSH1 0x24 DUP1 DUP3 ADD MSTORE PUSH32 0x416363756D756C6174696E675661756C743A20636F6F6C646F776E20746F6F20 PUSH1 0x44 DUP3 ADD MSTORE PUSH4 0x6C6F6E67 PUSH1 0xE0 SHL PUSH1 0x64 DUP3 ADD MSTORE PUSH1 0x84 ADD JUMPDEST PUSH1 0x40 MLOAD DUP1 SWAP2 SUB SWAP1 REVERT JUMPDEST PUSH1 0xC SSTORE JUMP JUMPDEST PUSH1 0x40 MLOAD PUSH4 0x70A08231 PUSH1 0xE0 SHL DUP2 MSTORE ADDRESS PUSH1 0x4 DUP3 ADD MSTORE PUSH1 0x0 SWAP1 DUP2 SWAP1 PUSH1 0x1 PUSH1 0x1 PUSH1 0xA0 SHL SUB PUSH32 0x0 AND SWAP1 PUSH4 0x70A08231 SWAP1 PUSH1 0x24 ADD PUSH1 0x20 PUSH1 0x40 MLOAD DUP1 DUP4 SUB DUP2 DUP7 GAS STATICCALL ISZERO DUP1 ISZERO PUSH2 0x5C7 JUMPI RETURNDATASIZE PUSH1 0x0 DUP1 RETURNDATACOPY RETURNDATASIZE PUSH1 0x0 REVERT JUMPDEST POP POP POP POP PUSH1 0x40 MLOAD RETURNDATASIZE PUSH1 0x1F NOT PUSH1 0x1F DUP3 ADD AND DUP3 ADD DUP1 PUSH1 0x40 MSTORE POP DUP2 ADD SWAP1 PUSH2 0x5EB SWAP2 SWAP1 PUSH2 0x1AE6 JUMP JUMPDEST SWAP1 POP PUSH1 0x9 SLOAD DUP2 LT ISZERO SWAP2 POP SWAP1 SWAP2 JUMP JUMPDEST PUSH2 0x601 PUSH2 0x10A7 JUMP JUMPDEST CALLER PUSH1 0x0 DUP2 DUP2 MSTORE PUSH1 0x2 PUSH1 0x20 MSTORE PUSH1 0x40 SWAP1 KECCAK256 SLOAD PUSH2 0x66C JUMPI PUSH1 0x40 MLOAD PUSH3 0x461BCD PUSH1 0xE5 SHL DUP2 MSTORE PUSH1 0x20 PUSH1 0x4 DUP3 ADD MSTORE PUSH1 0x26 PUSH1 0x24 DUP3 ADD MSTORE PUSH32 0x416363756D756C6174696E675661756C743A206E6F207265776172647320746F PUSH1 0x44 DUP3 ADD MSTORE PUSH6 0x20636C61696D PUSH1 0xD0 SHL PUSH1 0x64 DUP3 ADD MSTORE PUSH1 0x84 ADD PUSH2 0x550 JUMP JUMPDEST PUSH1 0xC SLOAD PUSH1 0x1 PUSH1 0x1 PUSH1 0xA0 SHL SUB DUP3 AND PUSH1 0x0 SWAP1 DUP2 MSTORE PUSH1 0x3 PUSH1 0x20 MSTORE PUSH1 0x40 SWAP1 KECCAK256 SLOAD PUSH2 0x692 SWAP2 SWAP1 PUSH2 0x1B15 JUMP JUMPDEST TIMESTAMP LT ISZERO PUSH2 0x6F3 JUMPI PUSH1 0x40 MLOAD PUSH3 0x461BCD PUSH1 0xE5 SHL DUP2 MSTORE PUSH1 0x20 PUSH1 0x4 DUP3 ADD MSTORE PUSH1 0x29 PUSH1 0x24 DUP3 ADD MSTORE PUSH32 0x416363756D756C6174696E675661756C743A20636C61696D20636F6F6C646F77 PUSH1 0x44 DUP3 ADD MSTORE PUSH9 0x1B881B9BDD081B595D PUSH1 0xBA SHL PUSH1 0x64 DUP3 ADD MSTORE PUSH1 0x84 ADD PUSH2 0x550 JUMP JUMPDEST PUSH1 0x1 PUSH1 0x1 PUSH1 0xA0 SHL SUB DUP2 AND PUSH1 0x0 DUP2 DUP2 MSTORE PUSH1 0x2 PUSH1 0x20 SWAP1 DUP2 MSTORE PUSH1 0x40 DUP1 DUP4 KECCAK256 DUP1 SLOAD SWAP1 DUP5 SWAP1 SSTORE PUSH1 0x3 SWAP1 SWAP3 MSTORE DUP1 DUP4 KECCAK256 TIMESTAMP SWAP1 SSTORE MLOAD SWAP1 SWAP3 SWAP1 DUP4 SWAP1 DUP4 DUP2 DUP2 DUP2 DUP6 DUP8 GAS CALL SWAP3 POP POP POP RETURNDATASIZE DUP1 PUSH1 0x0 DUP2 EQ PUSH2 0x75D JUMPI PUSH1 0x40 MLOAD SWAP2 POP PUSH1 0x1F NOT PUSH1 0x3F RETURNDATASIZE ADD AND DUP3 ADD PUSH1 0x40 MSTORE RETURNDATASIZE DUP3 MSTORE RETURNDATASIZE PUSH1 0x0 PUSH1 0x20 DUP5 ADD RETURNDATACOPY PUSH2 0x762 JUMP JUMPDEST PUSH1 0x60 SWAP2 POP JUMPDEST POP POP SWAP1 POP DUP1 PUSH2 0x7C2 JUMPI PUSH1 0x40 MLOAD PUSH3 0x461BCD PUSH1 0xE5 SHL DUP2 MSTORE PUSH1 0x20 PUSH1 0x4 DUP3 ADD MSTORE PUSH1 0x26 PUSH1 0x24 DUP3 ADD MSTORE PUSH32 0x416363756D756C6174696E675661756C743A20455448207472616E7366657220 PUSH1 0x44 DUP3 ADD MSTORE PUSH6 0x19985A5B1959 PUSH1 0xD2 SHL PUSH1 0x64 DUP3 ADD MSTORE PUSH1 0x84 ADD PUSH2 0x550 JUMP JUMPDEST DUP3 PUSH1 0x1 PUSH1 0x1 PUSH1 0xA0 SHL SUB AND PUSH32 0xFC30CDDEA38E2BF4D6EA7D3F9ED3B6AD7F176419F4963BD81318067A4AEE73FE DUP4 PUSH1 0x40 MLOAD PUSH2 0x7FD SWAP2 DUP2 MSTORE PUSH1 0x20 ADD SWAP1 JUMP JUMPDEST PUSH1 0x40 MLOAD DUP1 SWAP2 SUB SWAP1 LOG2 POP POP POP PUSH2 0x811 PUSH1 0x1 DUP1 SSTORE JUMP JUMPDEST JUMP JUMPDEST PUSH1 0x1 PUSH1 0x1 PUSH1 0xA0 SHL SUB DUP2 AND PUSH1 0x0 SWAP1 DUP2 MSTORE PUSH1 0x2 PUSH1 0x20 SWAP1 DUP2 MSTORE PUSH1 0x40 DUP1 DUP4 KECCAK256 SLOAD PUSH1 0xC SLOAD PUSH1 0x3 SWAP1 SWAP4 MSTORE SWAP1 DUP4 KECCAK256 SLOAD SWAP1 SWAP3 SWAP2 PUSH2 0x847 SWAP2 PUSH2 0x1B15 JUMP JUMPDEST SWAP1 POP TIMESTAMP DUP2 LT ISZERO PUSH2 0x854 JUMPI POP TIMESTAMP JUMPDEST SWAP2 POP SWAP2 JUMP JUMPDEST PUSH2 0x861 PUSH2 0x107A JUMP JUMPDEST PUSH2 0x811 PUSH1 0x0 PUSH2 0x10D1 JUMP JUMPDEST PUSH2 0x873 PUSH2 0x107A JUMP JUMPDEST PUSH1 0x0 DUP1 SLOAD PUSH1 0x40 MLOAD PUSH1 0x1 PUSH1 0x1 PUSH1 0xA0 SHL SUB SWAP1 SWAP2 AND SWAP2 SELFBALANCE DUP1 ISZERO PUSH2 0x8FC MUL SWAP3 SWAP1 SWAP2 DUP2 DUP2 DUP2 DUP6 DUP9 DUP9 CALL SWAP4 POP POP POP POP ISZERO DUP1 ISZERO PUSH2 0x8AD JUMPI RETURNDATASIZE PUSH1 0x0 DUP1 RETURNDATACOPY RETURNDATASIZE PUSH1 0x0 REVERT JUMPDEST POP JUMP JUMPDEST PUSH2 0x8B8 PUSH2 0x107A JUMP JUMPDEST DUP2 PUSH1 0x1 PUSH1 0x1 PUSH1 0xA0 SHL SUB AND PUSH4 0xA9059CBB PUSH2 0x8D9 PUSH1 0x0 SLOAD PUSH1 0x1 PUSH1 0x1 PUSH1 0xA0 SHL SUB AND SWAP1 JUMP JUMPDEST PUSH1 0x40 MLOAD PUSH1 0x1 PUSH1 0x1 PUSH1 0xE0 SHL SUB NOT PUSH1 0xE0 DUP5 SWAP1 SHL AND DUP2 MSTORE PUSH1 0x1 PUSH1 0x1 PUSH1 0xA0 SHL SUB SWAP1 SWAP2 AND PUSH1 0x4 DUP3 ADD MSTORE PUSH1 0x24 DUP2 ADD DUP5 SWAP1 MSTORE PUSH1 0x44 ADD PUSH1 0x20 PUSH1 0x40 MLOAD DUP1 DUP4 SUB DUP2 PUSH1 0x0 DUP8 GAS CALL ISZERO DUP1 ISZERO PUSH2 0x926 JUMPI RETURNDATASIZE PUSH1 0x0 DUP1 RETURNDATACOPY RETURNDATASIZE PUSH1 0x0 REVERT JUMPDEST POP POP POP POP PUSH1 0x40 MLOAD RETURNDATASIZE PUSH1 0x1F NOT PUSH1 0x1F DUP3 ADD AND DUP3 ADD DUP1 PUSH1 0x40 MSTORE POP DUP2 ADD SWAP1 PUSH2 0x94A SWAP2 SWAP1 PUSH2 0x1B2E JUMP JUMPDEST POP POP POP JUMP JUMPDEST PUSH2 0x957 PUSH2 0x107A JUMP JUMPDEST PUSH1 0x9 DUP3 SWAP1 SSTORE PUSH1 0xA DUP2 SWAP1 SSTORE PUSH1 0x40 DUP1 MLOAD DUP4 DUP2 MSTORE PUSH1 0x20 DUP2 ADD DUP4 SWAP1 MSTORE PUSH32 0x516C186CF8751443F5237C121870265C38584BD3565BE12FF51C24325B7E960 SWAP2 ADD JUMPDEST PUSH1 0x40 MLOAD DUP1 SWAP2 SUB SWAP1 LOG1 POP POP JUMP JUMPDEST PUSH2 0x9A7 PUSH2 0x107A JUMP JUMPDEST PUSH2 0x9B1 DUP2 DUP4 PUSH2 0x1B15 JUMP JUMPDEST PUSH1 0x64 EQ PUSH2 0xA17 JUMPI PUSH1 0x40 MLOAD PUSH3 0x461BCD PUSH1 0xE5 SHL DUP2 MSTORE PUSH1 0x20 PUSH1 0x4 DUP3 ADD MSTORE PUSH1 0x2E PUSH1 0x24 DUP3 ADD MSTORE PUSH32 0x416363756D756C6174696E675661756C743A2070657263656E7461676573206D PUSH1 0x44 DUP3 ADD MSTORE PUSH14 0x7573742073756D20746F2031303 PUSH1 0x94 SHL PUSH1 0x64 DUP3 ADD MSTORE PUSH1 0x84 ADD PUSH2 0x550 JUMP JUMPDEST PUSH1 0x7 DUP3 SWAP1 SSTORE PUSH1 0x8 DUP2 SWAP1 SSTORE PUSH1 0x40 DUP1 MLOAD DUP4 DUP2 MSTORE PUSH1 0x20 DUP2 ADD DUP4 SWAP1 MSTORE PUSH32 0xD3DF56766DDB000EC4BAEEDC57E730D6FDDA10F47CEEC2E2C8A3A711B0E81EDF SWAP2 ADD PUSH2 0x993 JUMP JUMPDEST PUSH2 0xA5F PUSH2 0x10A7 JUMP JUMPDEST PUSH1 0x0 PUSH1 0x5 SLOAD GT PUSH2 0xAC9 JUMPI PUSH1 0x40 MLOAD PUSH3 0x461BCD PUSH1 0xE5 SHL DUP2 MSTORE PUSH1 0x20 PUSH1 0x4 DUP3 ADD MSTORE PUSH1 0x2F PUSH1 0x24 DUP3 ADD MSTORE PUSH32 0x416363756D756C6174696E675661756C743A206E6F2045544820617661696C61 PUSH1 0x44 DUP3 ADD MSTORE PUSH15 0x626C6520666F722072657761726473 PUSH1 0x88 SHL PUSH1 0x64 DUP3 ADD MSTORE PUSH1 0x84 ADD PUSH2 0x550 JUMP JUMPDEST DUP1 PUSH2 0xB25 JUMPI PUSH1 0x40 MLOAD PUSH3 0x461BCD PUSH1 0xE5 SHL DUP2 MSTORE PUSH1 0x20 PUSH1 0x4 DUP3 ADD MSTORE PUSH1 0x26 PUSH1 0x24 DUP3 ADD MSTORE PUSH32 0x416363756D756C6174696E675661756C743A206E6F20686F6C64657273207072 PUSH1 0x44 DUP3 ADD MSTORE PUSH6 0x1BDD9A591959 PUSH1 0xD2 SHL PUSH1 0x64 DUP3 ADD MSTORE PUSH1 0x84 ADD PUSH2 0x550 JUMP JUMPDEST PUSH1 0x64 DUP2 GT ISZERO PUSH2 0xB8B JUMPI PUSH1 0x40 MLOAD PUSH3 0x461BCD PUSH1 0xE5 SHL DUP2 MSTORE PUSH1 0x20 PUSH1 0x4 DUP3 ADD MSTORE PUSH1 0x2C PUSH1 0x24 DUP3 ADD MSTORE PUSH32 0x416363756D756C6174696E675661756C743A20746F6F206D616E7920686F6C64 PUSH1 0x44 DUP3 ADD MSTORE PUSH12 0xCAE4E640D2DC40C4C2E8C6D PUSH1 0xA3 SHL PUSH1 0x64 DUP3 ADD MSTORE PUSH1 0x84 ADD PUSH2 0x550 JUMP JUMPDEST PUSH1 0x0 PUSH32 0x0 PUSH1 0x1 PUSH1 0x1 PUSH1 0xA0 SHL SUB AND PUSH4 0x18160DDD PUSH1 0x40 MLOAD DUP2 PUSH4 0xFFFFFFFF AND PUSH1 0xE0 SHL DUP2 MSTORE PUSH1 0x4 ADD PUSH1 0x20 PUSH1 0x40 MLOAD DUP1 DUP4 SUB DUP2 DUP7 GAS STATICCALL ISZERO DUP1 ISZERO PUSH2 0xBEB JUMPI RETURNDATASIZE PUSH1 0x0 DUP1 RETURNDATACOPY RETURNDATASIZE PUSH1 0x0 REVERT JUMPDEST POP POP POP POP PUSH1 0x40 MLOAD RETURNDATASIZE PUSH1 0x1F NOT PUSH1 0x1F DUP3 ADD AND DUP3 ADD DUP1 PUSH1 0x40 MSTORE POP DUP2 ADD SWAP1 PUSH2 0xC0F SWAP2 SWAP1 PUSH2 0x1AE6 JUMP JUMPDEST PUSH1 0x5 SLOAD SWAP1 SWAP2 POP PUSH1 0x0 DUP1 JUMPDEST DUP5 DUP2 LT ISZERO PUSH2 0xD48 JUMPI PUSH1 0x0 DUP7 DUP7 DUP4 DUP2 DUP2 LT PUSH2 0xC35 JUMPI PUSH2 0xC35 PUSH2 0x1B50 JUMP JUMPDEST SWAP1 POP PUSH1 0x20 MUL ADD PUSH1 0x20 DUP2 ADD SWAP1 PUSH2 0xC4A SWAP2 SWAP1 PUSH2 0x19E4 JUMP JUMPDEST PUSH1 0x40 MLOAD PUSH4 0x70A08231 PUSH1 0xE0 SHL DUP2 MSTORE PUSH1 0x1 PUSH1 0x1 PUSH1 0xA0 SHL SUB DUP1 DUP4 AND PUSH1 0x4 DUP4 ADD MSTORE SWAP2 SWAP3 POP PUSH1 0x0 SWAP2 PUSH32 0x0 AND SWAP1 PUSH4 0x70A08231 SWAP1 PUSH1 0x24 ADD PUSH1 0x20 PUSH1 0x40 MLOAD DUP1 DUP4 SUB DUP2 DUP7 GAS STATICCALL ISZERO DUP1 ISZERO PUSH2 0xCB6 JUMPI RETURNDATASIZE PUSH1 0x0 DUP1 RETURNDATACOPY RETURNDATASIZE PUSH1 0x0 REVERT JUMPDEST POP POP POP POP PUSH1 0x40 MLOAD RETURNDATASIZE PUSH1 0x1F NOT PUSH1 0x1F DUP3 ADD AND DUP3 ADD DUP1 PUSH1 0x40 MSTORE POP DUP2 ADD SWAP1 PUSH2 0xCDA SWAP2 SWAP1 PUSH2 0x1AE6 JUMP JUMPDEST SWAP1 POP DUP1 ISZERO PUSH2 0xD3E JUMPI PUSH1 0x0 DUP7 PUSH2 0xCEF DUP4 DUP9 PUSH2 0x1B66 JUMP JUMPDEST PUSH2 0xCF9 SWAP2 SWAP1 PUSH2 0x1B7D JUMP JUMPDEST SWAP1 POP DUP1 ISZERO PUSH2 0xD3C JUMPI PUSH1 0x1 PUSH1 0x1 PUSH1 0xA0 SHL SUB DUP4 AND PUSH1 0x0 SWAP1 DUP2 MSTORE PUSH1 0x2 PUSH1 0x20 MSTORE PUSH1 0x40 DUP2 KECCAK256 DUP1 SLOAD DUP4 SWAP3 SWAP1 PUSH2 0xD29 SWAP1 DUP5 SWAP1 PUSH2 0x1B15 JUMP JUMPDEST SWAP1 SWAP2 SSTORE POP PUSH2 0xD39 SWAP1 POP DUP2 DUP7 PUSH2 0x1B15 JUMP JUMPDEST SWAP5 POP JUMPDEST POP JUMPDEST POP POP PUSH1 0x1 ADD PUSH2 0xC19 JUMP JUMPDEST POP DUP1 PUSH1 0x5 PUSH1 0x0 DUP3 DUP3 SLOAD PUSH2 0xD5B SWAP2 SWAP1 PUSH2 0x1B9F JUMP JUMPDEST SWAP3 POP POP DUP2 SWAP1 SSTORE POP DUP1 PUSH1 0x4 PUSH1 0x0 DUP3 DUP3 SLOAD PUSH2 0xD74 SWAP2 SWAP1 PUSH2 0x1B15 JUMP JUMPDEST SWAP1 SWAP2 SSTORE POP POP PUSH1 0x40 DUP1 MLOAD DUP6 DUP2 MSTORE PUSH1 0x20 DUP2 ADD DUP4 SWAP1 MSTORE PUSH32 0x29E98BA00D07F171959C4DDCD2F3020DEBC7C52CF537A034D7E664340D098C6C SWAP2 ADD PUSH1 0x40 MLOAD DUP1 SWAP2 SUB SWAP1 LOG1 POP POP POP PUSH2 0xDBE PUSH1 0x1 DUP1 SSTORE JUMP JUMPDEST POP POP JUMP JUMPDEST PUSH2 0xDCA PUSH2 0x10A7 JUMP JUMPDEST PUSH1 0x40 MLOAD PUSH4 0x70A08231 PUSH1 0xE0 SHL DUP2 MSTORE ADDRESS PUSH1 0x4 DUP3 ADD MSTORE PUSH1 0x0 SWAP1 PUSH32 0x0 PUSH1 0x1 PUSH1 0x1 PUSH1 0xA0 SHL SUB AND SWAP1 PUSH4 0x70A08231 SWAP1 PUSH1 0x24 ADD PUSH1 0x20 PUSH1 0x40 MLOAD DUP1 DUP4 SUB DUP2 DUP7 GAS STATICCALL ISZERO DUP1 ISZERO PUSH2 0xE31 JUMPI RETURNDATASIZE PUSH1 0x0 DUP1 RETURNDATACOPY RETURNDATASIZE PUSH1 0x0 REVERT JUMPDEST POP POP POP POP PUSH1 0x40 MLOAD RETURNDATASIZE PUSH1 0x1F NOT PUSH1 0x1F DUP3 ADD AND DUP3 ADD DUP1 PUSH1 0x40 MSTORE POP DUP2 ADD SWAP1 PUSH2 0xE55 SWAP2 SWAP1 PUSH2 0x1AE6 JUMP JUMPDEST SWAP1 POP PUSH1 0x9 SLOAD DUP2 LT ISZERO PUSH2 0xEB8 JUMPI PUSH1 0x40 MLOAD PUSH3 0x461BCD PUSH1 0xE5 SHL DUP2 MSTORE PUSH1 0x20 PUSH1 0x4 DUP3 ADD MSTORE PUSH1 0x26 PUSH1 0x24 DUP3 ADD MSTORE PUSH32 0x416363756D756C6174696E675661756C743A20696E73756666696369656E7420 PUSH1 0x44 DUP3 ADD MSTORE PUSH6 0x746F6B656E73 PUSH1 0xD0 SHL PUSH1 0x64 DUP3 ADD MSTORE PUSH1 0x84 ADD PUSH2 0x550 JUMP JUMPDEST PUSH1 0x0 PUSH2 0xEC3 DUP3 PUSH2 0x1121 JUMP JUMPDEST SWAP1 POP PUSH1 0x0 DUP2 GT PUSH2 0xF20 JUMPI PUSH1 0x40 MLOAD PUSH3 0x461BCD PUSH1 0xE5 SHL DUP2 MSTORE PUSH1 0x20 PUSH1 0x4 DUP3 ADD MSTORE PUSH1 0x22 PUSH1 0x24 DUP3 ADD MSTORE PUSH32 0x416363756D756C6174696E675661756C743A206E6F2045544820726563656976 PUSH1 0x44 DUP3 ADD MSTORE PUSH2 0x1959 PUSH1 0xF2 SHL PUSH1 0x64 DUP3 ADD MSTORE PUSH1 0x84 ADD PUSH2 0x550 JUMP JUMPDEST PUSH1 0x0 PUSH1 0x64 PUSH1 0x7 SLOAD DUP4 PUSH2 0xF32 SWAP2 SWAP1 PUSH2 0x1B66 JUMP JUMPDEST PUSH2 0xF3C SWAP2 SWAP1 PUSH2 0x1B7D JUMP JUMPDEST SWAP1 POP PUSH1 0x0 PUSH2 0xF4A DUP3 DUP5 PUSH2 0x1B9F JUMP JUMPDEST SWAP1 POP DUP2 PUSH1 0x5 PUSH1 0x0 DUP3 DUP3 SLOAD PUSH2 0xF5E SWAP2 SWAP1 PUSH2 0x1B15 JUMP JUMPDEST SWAP3 POP POP DUP2 SWAP1 SSTORE POP DUP1 PUSH1 0x6 PUSH1 0x0 DUP3 DUP3 SLOAD PUSH2 0xF77 SWAP2 SWAP1 PUSH2 0x1B15 JUMP JUMPDEST SWAP1 SWAP2 SSTORE POP POP PUSH1 0x40 DUP1 MLOAD DUP6 DUP2 MSTORE PUSH1 0x20 DUP2 ADD DUP6 SWAP1 MSTORE PUSH32 0xB1F942E613354EA6896E9AD64893DF77C1E11D211A1733A4551FEEF9D2D4CC62 SWAP2 ADD PUSH1 0x40 MLOAD DUP1 SWAP2 SUB SWAP1 LOG1 PUSH1 0xA SLOAD DUP2 LT PUSH2 0xFC7 JUMPI PUSH2 0xFC7 DUP2 PUSH2 0x148C JUMP JUMPDEST POP POP POP POP PUSH2 0x811 PUSH1 0x1 DUP1 SSTORE JUMP JUMPDEST PUSH2 0xFDC PUSH2 0x107A JUMP JUMPDEST PUSH1 0x1 PUSH1 0x1 PUSH1 0xA0 SHL SUB DUP2 AND PUSH2 0x1006 JUMPI PUSH1 0x40 MLOAD PUSH4 0x1E4FBDF7 PUSH1 0xE0 SHL DUP2 MSTORE PUSH1 0x0 PUSH1 0x4 DUP3 ADD MSTORE PUSH1 0x24 ADD PUSH2 0x550 JUMP JUMPDEST PUSH2 0x8AD DUP2 PUSH2 0x10D1 JUMP JUMPDEST PUSH2 0x1017 PUSH2 0x107A JUMP JUMPDEST PUSH2 0x7D0 DUP2 GT ISZERO PUSH2 0x1075 JUMPI PUSH1 0x40 MLOAD PUSH3 0x461BCD PUSH1 0xE5 SHL DUP2 MSTORE PUSH1 0x20 PUSH1 0x4 DUP3 ADD MSTORE PUSH1 0x24 DUP1 DUP3 ADD MSTORE PUSH32 0x416363756D756C6174696E675661756C743A20736C69707061676520746F6F20 PUSH1 0x44 DUP3 ADD MSTORE PUSH4 0xD0D2CED PUSH1 0xE3 SHL PUSH1 0x64 DUP3 ADD MSTORE PUSH1 0x84 ADD PUSH2 0x550 JUMP JUMPDEST PUSH1 0xB SSTORE JUMP JUMPDEST PUSH1 0x0 SLOAD PUSH1 0x1 PUSH1 0x1 PUSH1 0xA0 SHL SUB AND CALLER EQ PUSH2 0x811 JUMPI PUSH1 0x40 MLOAD PUSH4 0x118CDAA7 PUSH1 0xE0 SHL DUP2 MSTORE CALLER PUSH1 0x4 DUP3 ADD MSTORE PUSH1 0x24 ADD PUSH2 0x550 JUMP JUMPDEST PUSH1 0x2 PUSH1 0x1 SLOAD SUB PUSH2 0x10CA JUMPI PUSH1 0x40 MLOAD PUSH4 0x3EE5AEB5 PUSH1 0xE0 SHL DUP2 MSTORE PUSH1 0x4 ADD PUSH1 0x40 MLOAD DUP1 SWAP2 SUB SWAP1 REVERT JUMPDEST PUSH1 0x2 PUSH1 0x1 SSTORE JUMP JUMPDEST PUSH1 0x0 DUP1 SLOAD PUSH1 0x1 PUSH1 0x1 PUSH1 0xA0 SHL SUB DUP4 DUP2 AND PUSH1 0x1 PUSH1 0x1 PUSH1 0xA0 SHL SUB NOT DUP4 AND DUP2 OR DUP5 SSTORE PUSH1 0x40 MLOAD SWAP2 SWAP1 SWAP3 AND SWAP3 DUP4 SWAP2 PUSH32 0x8BE0079C531659141344CD1FD0A4F28419497F9722A3DAAFE3B4186F6B6457E0 SWAP2 SWAP1 LOG3 POP POP JUMP JUMPDEST PUSH1 0x40 MLOAD PUSH4 0x95EA7B3 PUSH1 0xE0 SHL DUP2 MSTORE PUSH1 0x1 PUSH1 0x1 PUSH1 0xA0 SHL SUB PUSH32 0x0 DUP2 AND PUSH1 0x4 DUP4 ADD MSTORE PUSH1 0x24 DUP3 ADD DUP4 SWAP1 MSTORE PUSH1 0x0 SWAP2 PUSH32 0x0 SWAP1 SWAP2 AND SWAP1 PUSH4 0x95EA7B3 SWAP1 PUSH1 0x44 ADD PUSH1 0x20 PUSH1 0x40 MLOAD DUP1 DUP4 SUB DUP2 PUSH1 0x0 DUP8 GAS CALL ISZERO DUP1 ISZERO PUSH2 0x11B5 JUMPI RETURNDATASIZE PUSH1 0x0 DUP1 RETURNDATACOPY RETURNDATASIZE PUSH1 0x0 REVERT JUMPDEST POP POP POP POP PUSH1 0x40 MLOAD RETURNDATASIZE PUSH1 0x1F NOT PUSH1 0x1F DUP3 ADD AND DUP3 ADD DUP1 PUSH1 0x40 MSTORE POP DUP2 ADD SWAP1 PUSH2 0x11D9 SWAP2 SWAP1 PUSH2 0x1B2E JUMP JUMPDEST POP PUSH1 0x40 DUP1 MLOAD PUSH1 0x2 DUP1 DUP3 MSTORE PUSH1 0x60 DUP3 ADD DUP4 MSTORE PUSH1 0x0 SWAP3 PUSH1 0x20 DUP4 ADD SWAP1 DUP1 CALLDATASIZE DUP4 CALLDATACOPY ADD SWAP1 POP POP SWAP1 POP PUSH32 0x0 DUP2 PUSH1 0x0 DUP2 MLOAD DUP2 LT PUSH2 0x122F JUMPI PUSH2 0x122F PUSH2 0x1B50 JUMP JUMPDEST PUSH1 0x20 MUL PUSH1 0x20 ADD ADD SWAP1 PUSH1 0x1 PUSH1 0x1 PUSH1 0xA0 SHL SUB AND SWAP1 DUP2 PUSH1 0x1 PUSH1 0x1 PUSH1 0xA0 SHL SUB AND DUP2 MSTORE POP POP PUSH32 0x0 PUSH1 0x1 PUSH1 0x1 PUSH1 0xA0 SHL SUB AND PUSH4 0xAD5C4648 PUSH1 0x40 MLOAD DUP2 PUSH4 0xFFFFFFFF AND PUSH1 0xE0 SHL DUP2 MSTORE PUSH1 0x4 ADD PUSH1 0x20 PUSH1 0x40 MLOAD DUP1 DUP4 SUB DUP2 DUP7 GAS STATICCALL ISZERO DUP1 ISZERO PUSH2 0x12AD JUMPI RETURNDATASIZE PUSH1 0x0 DUP1 RETURNDATACOPY RETURNDATASIZE PUSH1 0x0 REVERT JUMPDEST POP POP POP POP PUSH1 0x40 MLOAD RETURNDATASIZE PUSH1 0x1F NOT PUSH1 0x1F DUP3 ADD AND DUP3 ADD DUP1 PUSH1 0x40 MSTORE POP DUP2 ADD SWAP1 PUSH2 0x12D1 SWAP2 SWAP1 PUSH2 0x1BC8 JUMP JUMPDEST DUP2 PUSH1 0x1 DUP2 MLOAD DUP2 LT PUSH2 0x12E4 JUMPI PUSH2 0x12E4 PUSH2 0x1B50 JUMP JUMPDEST PUSH1 0x1 PUSH1 0x1 PUSH1 0xA0 SHL SUB SWAP3 DUP4 AND PUSH1 0x20 SWAP2 DUP3 MUL SWAP3 SWAP1 SWAP3 ADD ADD MSTORE PUSH1 0x40 MLOAD PUSH4 0xD06CA61F PUSH1 0xE0 SHL DUP2 MSTORE PUSH1 0x0 SWAP2 PUSH32 0x0 AND SWAP1 PUSH4 0xD06CA61F SWAP1 PUSH2 0x1343 SWAP1 DUP8 SWAP1 DUP7 SWAP1 PUSH1 0x4 ADD PUSH2 0x1C2A JUMP JUMPDEST PUSH1 0x0 PUSH1 0x40 MLOAD DUP1 DUP4 SUB DUP2 DUP7 GAS STATICCALL ISZERO DUP1 ISZERO PUSH2 0x1360 JUMPI RETURNDATASIZE PUSH1 0x0 DUP1 RETURNDATACOPY RETURNDATASIZE PUSH1 0x0 REVERT JUMPDEST POP POP POP POP PUSH1 0x40 MLOAD RETURNDATASIZE PUSH1 0x0 DUP3 RETURNDATACOPY PUSH1 0x1F RETURNDATASIZE SWAP1 DUP2 ADD PUSH1 0x1F NOT AND DUP3 ADD PUSH1 0x40 MSTORE PUSH2 0x1388 SWAP2 SWAP1 DUP2 ADD SWAP1 PUSH2 0x1C4B JUMP JUMPDEST SWAP1 POP PUSH1 0x0 PUSH2 0x2710 PUSH1 0xB SLOAD PUSH2 0x2710 PUSH2 0x139F SWAP2 SWAP1 PUSH2 0x1B9F JUMP JUMPDEST DUP4 PUSH1 0x1 DUP2 MLOAD DUP2 LT PUSH2 0x13B2 JUMPI PUSH2 0x13B2 PUSH2 0x1B50 JUMP JUMPDEST PUSH1 0x20 MUL PUSH1 0x20 ADD ADD MLOAD PUSH2 0x13C4 SWAP2 SWAP1 PUSH2 0x1B66 JUMP JUMPDEST PUSH2 0x13CE SWAP2 SWAP1 PUSH2 0x1B7D JUMP JUMPDEST SWAP1 POP SELFBALANCE PUSH1 0x1 PUSH1 0x1 PUSH1 0xA0 SHL SUB PUSH32 0x0 AND PUSH4 0x18CBAFE5 DUP8 DUP5 DUP8 ADDRESS PUSH2 0x1410 TIMESTAMP PUSH2 0x12C PUSH2 0x1B15 JUMP JUMPDEST PUSH1 0x40 MLOAD DUP7 PUSH4 0xFFFFFFFF AND PUSH1 0xE0 SHL DUP2 MSTORE PUSH1 0x4 ADD PUSH2 0x1430 SWAP6 SWAP5 SWAP4 SWAP3 SWAP2 SWAP1 PUSH2 0x1D18 JUMP JUMPDEST PUSH1 0x0 PUSH1 0x40 MLOAD DUP1 DUP4 SUB DUP2 PUSH1 0x0 DUP8 GAS CALL ISZERO DUP1 ISZERO PUSH2 0x144F JUMPI RETURNDATASIZE PUSH1 0x0 DUP1 RETURNDATACOPY RETURNDATASIZE PUSH1 0x0 REVERT JUMPDEST POP POP POP POP PUSH1 0x40 MLOAD RETURNDATASIZE PUSH1 0x0 DUP3 RETURNDATACOPY PUSH1 0x1F RETURNDATASIZE SWAP1 DUP2 ADD PUSH1 0x1F NOT AND DUP3 ADD PUSH1 0x40 MSTORE PUSH2 0x1477 SWAP2 SWAP1 DUP2 ADD SWAP1 PUSH2 0x1C4B JUMP JUMPDEST POP PUSH2 0x1482 DUP2 SELFBALANCE PUSH2 0x1B9F JUMP JUMPDEST SWAP7 SWAP6 POP POP POP POP POP POP JUMP JUMPDEST PUSH1 0x40 DUP1 MLOAD PUSH1 0x2 DUP1 DUP3 MSTORE PUSH1 0x60 DUP3 ADD DUP4 MSTORE PUSH1 0x0 SWAP3 PUSH1 0x20 DUP4 ADD SWAP1 DUP1 CALLDATASIZE DUP4 CALLDATACOPY ADD SWAP1 POP POP SWAP1 POP PUSH32 0x0 PUSH1 0x1 PUSH1 0x1 PUSH1 0xA0 SHL SUB AND PUSH4 0xAD5C4648 PUSH1 0x40 MLOAD DUP2 PUSH4 0xFFFFFFFF AND PUSH1 0xE0 SHL DUP2 MSTORE PUSH1 0x4 ADD PUSH1 0x20 PUSH1 0x40 MLOAD DUP1 DUP4 SUB DUP2 DUP7 GAS STATICCALL ISZERO DUP1 ISZERO PUSH2 0x150B JUMPI RETURNDATASIZE PUSH1 0x0 DUP1 RETURNDATACOPY RETURNDATASIZE PUSH1 0x0 REVERT JUMPDEST POP POP POP POP PUSH1 0x40 MLOAD RETURNDATASIZE PUSH1 0x1F NOT PUSH1 0x1F DUP3 ADD AND DUP3 ADD DUP1 PUSH1 0x40 MSTORE POP DUP2 ADD SWAP1 PUSH2 0x152F SWAP2 SWAP1 PUSH2 0x1BC8 JUMP JUMPDEST DUP2 PUSH1 0x0 DUP2 MLOAD DUP2 LT PUSH2 0x1542 JUMPI PUSH2 0x1542 PUSH2 0x1B50 JUMP JUMPDEST PUSH1 0x20 MUL PUSH1 0x20 ADD ADD SWAP1 PUSH1 0x1 PUSH1 0x1 PUSH1 0xA0 SHL SUB AND SWAP1 DUP2 PUSH1 0x1 PUSH1 0x1 PUSH1 0xA0 SHL SUB AND DUP2 MSTORE POP POP PUSH32 0x0 DUP2 PUSH1 0x1 DUP2 MLOAD DUP2 LT PUSH2 0x1596 JUMPI PUSH2 0x1596 PUSH2 0x1B50 JUMP JUMPDEST PUSH1 0x1 PUSH1 0x1 PUSH1 0xA0 SHL SUB SWAP3 DUP4 AND PUSH1 0x20 SWAP2 DUP3 MUL SWAP3 SWAP1 SWAP3 ADD ADD MSTORE PUSH1 0x0 SWAP1 PUSH32 0x0 AND PUSH4 0xD06CA61F PUSH2 0x15E1 PUSH1 0x2 DUP7 PUSH2 0x1B7D JUMP JUMPDEST DUP5 PUSH1 0x40 MLOAD DUP4 PUSH4 0xFFFFFFFF AND PUSH1 0xE0 SHL DUP2 MSTORE PUSH1 0x4 ADD PUSH2 0x15FF SWAP3 SWAP2 SWAP1 PUSH2 0x1C2A JUMP JUMPDEST PUSH1 0x0 PUSH1 0x40 MLOAD DUP1 DUP4 SUB DUP2 DUP7 GAS STATICCALL ISZERO DUP1 ISZERO PUSH2 0x161C JUMPI RETURNDATASIZE PUSH1 0x0 DUP1 RETURNDATACOPY RETURNDATASIZE PUSH1 0x0 REVERT JUMPDEST POP POP POP POP PUSH1 0x40 MLOAD RETURNDATASIZE PUSH1 0x0 DUP3 RETURNDATACOPY PUSH1 0x1F RETURNDATASIZE SWAP1 DUP2 ADD PUSH1 0x1F NOT AND DUP3 ADD PUSH1 0x40 MSTORE PUSH2 0x1644 SWAP2 SWAP1 DUP2 ADD SWAP1 PUSH2 0x1C4B JUMP JUMPDEST SWAP1 POP PUSH1 0x0 DUP2 PUSH1 0x1 DUP2 MLOAD DUP2 LT PUSH2 0x165B JUMPI PUSH2 0x165B PUSH2 0x1B50 JUMP JUMPDEST PUSH1 0x20 MUL PUSH1 0x20 ADD ADD MLOAD SWAP1 POP PUSH1 0x0 PUSH2 0x2710 PUSH1 0xB SLOAD PUSH2 0x2710 PUSH2 0x167A SWAP2 SWAP1 PUSH2 0x1B9F JUMP JUMPDEST PUSH2 0x1684 SWAP1 DUP5 PUSH2 0x1B66 JUMP JUMPDEST PUSH2 0x168E SWAP2 SWAP1 PUSH2 0x1B7D JUMP JUMPDEST SWAP1 POP PUSH1 0x0 PUSH1 0x1 PUSH1 0x1 PUSH1 0xA0 SHL SUB PUSH32 0x0 AND PUSH4 0x7FF36AB5 PUSH2 0x16CC PUSH1 0x2 DUP10 PUSH2 0x1B7D JUMP JUMPDEST DUP5 DUP9 ADDRESS PUSH2 0x16DB TIMESTAMP PUSH2 0x12C PUSH2 0x1B15 JUMP JUMPDEST PUSH1 0x40 MLOAD DUP7 PUSH4 0xFFFFFFFF AND PUSH1 0xE0 SHL DUP2 MSTORE PUSH1 0x4 ADD PUSH2 0x16FA SWAP5 SWAP4 SWAP3 SWAP2 SWAP1 PUSH2 0x1D54 JUMP JUMPDEST PUSH1 0x0 PUSH1 0x40 MLOAD DUP1 DUP4 SUB DUP2 DUP6 DUP9 GAS CALL ISZERO DUP1 ISZERO PUSH2 0x1718 JUMPI RETURNDATASIZE PUSH1 0x0 DUP1 RETURNDATACOPY RETURNDATASIZE PUSH1 0x0 REVERT JUMPDEST POP POP POP POP POP PUSH1 0x40 MLOAD RETURNDATASIZE PUSH1 0x0 DUP3 RETURNDATACOPY PUSH1 0x1F RETURNDATASIZE SWAP1 DUP2 ADD PUSH1 0x1F NOT AND DUP3 ADD PUSH1 0x40 MSTORE PUSH2 0x1741 SWAP2 SWAP1 DUP2 ADD SWAP1 PUSH2 0x1C4B JUMP JUMPDEST SWAP1 POP PUSH1 0x0 DUP2 PUSH1 0x1 DUP2 MLOAD DUP2 LT PUSH2 0x1758 JUMPI PUSH2 0x1758 PUSH2 0x1B50 JUMP JUMPDEST PUSH1 0x20 MUL PUSH1 0x20 ADD ADD MLOAD SWAP1 POP PUSH1 0x0 PUSH1 0x2 DUP9 PUSH2 0x1771 SWAP2 SWAP1 PUSH2 0x1B7D JUMP JUMPDEST PUSH1 0x40 MLOAD PUSH4 0x95EA7B3 PUSH1 0xE0 SHL DUP2 MSTORE PUSH1 0x1 PUSH1 0x1 PUSH1 0xA0 SHL SUB PUSH32 0x0 DUP2 AND PUSH1 0x4 DUP4 ADD MSTORE PUSH1 0x24 DUP3 ADD DUP6 SWAP1 MSTORE SWAP2 SWAP3 POP PUSH32 0x0 SWAP1 SWAP2 AND SWAP1 PUSH4 0x95EA7B3 SWAP1 PUSH1 0x44 ADD PUSH1 0x20 PUSH1 0x40 MLOAD DUP1 DUP4 SUB DUP2 PUSH1 0x0 DUP8 GAS CALL ISZERO DUP1 ISZERO PUSH2 0x1805 JUMPI RETURNDATASIZE PUSH1 0x0 DUP1 RETURNDATACOPY RETURNDATASIZE PUSH1 0x0 REVERT JUMPDEST POP POP POP POP PUSH1 0x40 MLOAD RETURNDATASIZE PUSH1 0x1F NOT PUSH1 0x1F DUP3 ADD AND DUP3 ADD DUP1 PUSH1 0x40 MSTORE POP DUP2 ADD SWAP1 PUSH2 0x1829 SWAP2 SWAP1 PUSH2 0x1B2E JUMP JUMPDEST POP PUSH1 0x0 DUP1 PUSH1 0x0 PUSH32 0x0 PUSH1 0x1 PUSH1 0x1 PUSH1 0xA0 SHL SUB AND PUSH4 0xF305D719 DUP6 PUSH32 0x0 DUP9 PUSH2 0x2710 PUSH1 0xB SLOAD PUSH2 0x2710 PUSH2 0x1894 SWAP2 SWAP1 PUSH2 0x1B9F JUMP JUMPDEST PUSH2 0x189E SWAP1 DUP13 PUSH2 0x1B66 JUMP JUMPDEST PUSH2 0x18A8 SWAP2 SWAP1 PUSH2 0x1B7D JUMP JUMPDEST PUSH2 0x2710 PUSH1 0xB SLOAD PUSH2 0x2710 PUSH2 0x18BB SWAP2 SWAP1 PUSH2 0x1B9F JUMP JUMPDEST PUSH2 0x18C5 SWAP1 DUP13 PUSH2 0x1B66 JUMP JUMPDEST PUSH2 0x18CF SWAP2 SWAP1 PUSH2 0x1B7D JUMP JUMPDEST PUSH1 0x0 SLOAD PUSH1 0x1 PUSH1 0x1 PUSH1 0xA0 SHL SUB AND PUSH2 0x18E7 TIMESTAMP PUSH2 0x12C PUSH2 0x1B15 JUMP JUMPDEST PUSH1 0x40 MLOAD PUSH1 0xE0 DUP10 SWAP1 SHL PUSH1 0x1 PUSH1 0x1 PUSH1 0xE0 SHL SUB NOT AND DUP2 MSTORE PUSH1 0x1 PUSH1 0x1 PUSH1 0xA0 SHL SUB SWAP7 DUP8 AND PUSH1 0x4 DUP3 ADD MSTORE PUSH1 0x24 DUP2 ADD SWAP6 SWAP1 SWAP6 MSTORE PUSH1 0x44 DUP6 ADD SWAP4 SWAP1 SWAP4 MSTORE PUSH1 0x64 DUP5 ADD SWAP2 SWAP1 SWAP2 MSTORE SWAP1 SWAP3 AND PUSH1 0x84 DUP3 ADD MSTORE PUSH1 0xA4 DUP2 ADD SWAP2 SWAP1 SWAP2 MSTORE PUSH1 0xC4 ADD PUSH1 0x60 PUSH1 0x40 MLOAD DUP1 DUP4 SUB DUP2 DUP6 DUP9 GAS CALL ISZERO DUP1 ISZERO PUSH2 0x1954 JUMPI RETURNDATASIZE PUSH1 0x0 DUP1 RETURNDATACOPY RETURNDATASIZE PUSH1 0x0 REVERT JUMPDEST POP POP POP POP POP PUSH1 0x40 MLOAD RETURNDATASIZE PUSH1 0x1F NOT PUSH1 0x1F DUP3 ADD AND DUP3 ADD DUP1 PUSH1 0x40 MSTORE POP DUP2 ADD SWAP1 PUSH2 0x1979 SWAP2 SWAP1 PUSH2 0x1D89 JUMP JUMPDEST PUSH1 0x40 DUP1 MLOAD DUP5 DUP2 MSTORE PUSH1 0x20 DUP2 ADD DUP5 SWAP1 MSTORE SWAP1 DUP2 ADD DUP3 SWAP1 MSTORE SWAP3 SWAP6 POP SWAP1 SWAP4 POP SWAP2 POP PUSH32 0xD7F28048575EEAD8851D024EAD087913957DFB4FD1A02B4D1573F5352A5A2BE3 SWAP1 PUSH1 0x60 ADD PUSH1 0x40 MLOAD DUP1 SWAP2 SUB SWAP1 LOG1 POP POP POP POP POP POP POP POP POP POP POP JUMP JUMPDEST PUSH1 0x1 PUSH1 0x1 PUSH1 0xA0 SHL SUB DUP2 AND DUP2 EQ PUSH2 0x8AD JUMPI PUSH1 0x0 DUP1 REVERT JUMPDEST PUSH1 0x0 PUSH1 0x20 DUP3 DUP5 SUB SLT ISZERO PUSH2 0x19F6 JUMPI PUSH1 0x0 DUP1 REVERT JUMPDEST DUP2 CALLDATALOAD PUSH2 0x1A01 DUP2 PUSH2 0x19CF JUMP JUMPDEST SWAP4 SWAP3 POP POP POP JUMP JUMPDEST PUSH1 0x0 PUSH1 0x20 DUP3 DUP5 SUB SLT ISZERO PUSH2 0x1A1A JUMPI PUSH1 0x0 DUP1 REVERT JUMPDEST POP CALLDATALOAD SWAP2 SWAP1 POP JUMP JUMPDEST PUSH1 0x0 DUP1 PUSH1 0x40 DUP4 DUP6 SUB SLT ISZERO PUSH2 0x1A34 JUMPI PUSH1 0x0 DUP1 REVERT JUMPDEST DUP3 CALLDATALOAD PUSH2 0x1A3F DUP2 PUSH2 0x19CF JUMP JUMPDEST SWAP5 PUSH1 0x20 SWAP4 SWAP1 SWAP4 ADD CALLDATALOAD SWAP4 POP POP POP JUMP JUMPDEST PUSH1 0x0 DUP1 PUSH1 0x40 DUP4 DUP6 SUB SLT ISZERO PUSH2 0x1A60 JUMPI PUSH1 0x0 DUP1 REVERT JUMPDEST POP POP DUP1 CALLDATALOAD SWAP3 PUSH1 0x20 SWAP1 SWAP2 ADD CALLDATALOAD SWAP2 POP JUMP JUMPDEST PUSH1 0x0 DUP1 PUSH1 0x20 DUP4 DUP6 SUB SLT ISZERO PUSH2 0x1A82 JUMPI PUSH1 0x0 DUP1 REVERT JUMPDEST DUP3 CALLDATALOAD PUSH8 0xFFFFFFFFFFFFFFFF DUP2 GT ISZERO PUSH2 0x1A99 JUMPI PUSH1 0x0 DUP1 REVERT JUMPDEST DUP4 ADD PUSH1 0x1F DUP2 ADD DUP6 SGT PUSH2 0x1AAA JUMPI PUSH1 0x0 DUP1 REVERT JUMPDEST DUP1 CALLDATALOAD PUSH8 0xFFFFFFFFFFFFFFFF DUP2 GT ISZERO PUSH2 0x1AC1 JUMPI PUSH1 0x0 DUP1 REVERT JUMPDEST DUP6 PUSH1 0x20 DUP3 PUSH1 0x5 SHL DUP5 ADD ADD GT ISZERO PUSH2 0x1AD6 JUMPI PUSH1 0x0 DUP1 REVERT JUMPDEST PUSH1 0x20 SWAP2 SWAP1 SWAP2 ADD SWAP6 SWAP1 SWAP5 POP SWAP3 POP POP POP JUMP JUMPDEST PUSH1 0x0 PUSH1 0x20 DUP3 DUP5 SUB SLT ISZERO PUSH2 0x1AF8 JUMPI PUSH1 0x0 DUP1 REVERT JUMPDEST POP MLOAD SWAP2 SWAP1 POP JUMP JUMPDEST PUSH4 0x4E487B71 PUSH1 0xE0 SHL PUSH1 0x0 MSTORE PUSH1 0x11 PUSH1 0x4 MSTORE PUSH1 0x24 PUSH1 0x0 REVERT JUMPDEST DUP1 DUP3 ADD DUP1 DUP3 GT ISZERO PUSH2 0x1B28 JUMPI PUSH2 0x1B28 PUSH2 0x1AFF JUMP JUMPDEST SWAP3 SWAP2 POP POP JUMP JUMPDEST PUSH1 0x0 PUSH1 0x20 DUP3 DUP5 SUB SLT ISZERO PUSH2 0x1B40 JUMPI PUSH1 0x0 DUP1 REVERT JUMPDEST DUP2 MLOAD DUP1 ISZERO ISZERO DUP2 EQ PUSH2 0x1A01 JUMPI PUSH1 0x0 DUP1 REVERT JUMPDEST PUSH4 0x4E487B71 PUSH1 0xE0 SHL PUSH1 0x0 MSTORE PUSH1 0x32 PUSH1 0x4 MSTORE PUSH1 0x24 PUSH1 0x0 REVERT JUMPDEST DUP1 DUP3 MUL DUP2 ISZERO DUP3 DUP3 DIV DUP5 EQ OR PUSH2 0x1B28 JUMPI PUSH2 0x1B28 PUSH2 0x1AFF JUMP JUMPDEST PUSH1 0x0 DUP3 PUSH2 0x1B9A JUMPI PUSH4 0x4E487B71 PUSH1 0xE0 SHL PUSH1 0x0 MSTORE PUSH1 0x12 PUSH1 0x4 MSTORE PUSH1 0x24 PUSH1 0x0 REVERT JUMPDEST POP DIV SWAP1 JUMP JUMPDEST DUP2 DUP2 SUB DUP2 DUP2 GT ISZERO PUSH2 0x1B28 JUMPI PUSH2 0x1B28 PUSH2 0x1AFF JUMP JUMPDEST PUSH4 0x4E487B71 PUSH1 0xE0 SHL PUSH1 0x0 MSTORE PUSH1 0x41 PUSH1 0x4 MSTORE PUSH1 0x24 PUSH1 0x0 REVERT JUMPDEST PUSH1 0x0 PUSH1 0x20 DUP3 DUP5 SUB SLT ISZERO PUSH2 0x1BDA JUMPI PUSH1 0x0 DUP1 REVERT JUMPDEST DUP2 MLOAD PUSH2 0x1A01 DUP2 PUSH2 0x19CF JUMP JUMPDEST PUSH1 0x0 DUP2 MLOAD DUP1 DUP5 MSTORE PUSH1 0x20 DUP5 ADD SWAP4 POP PUSH1 0x20 DUP4 ADD PUSH1 0x0 JUMPDEST DUP3 DUP2 LT ISZERO PUSH2 0x1C20 JUMPI DUP2 MLOAD PUSH1 0x1 PUSH1 0x1 PUSH1 0xA0 SHL SUB AND DUP7 MSTORE PUSH1 0x20 SWAP6 DUP7 ADD SWAP6 SWAP1 SWAP2 ADD SWAP1 PUSH1 0x1 ADD PUSH2 0x1BF9 JUMP JUMPDEST POP SWAP4 SWAP5 SWAP4 POP POP POP POP JUMP JUMPDEST DUP3 DUP2 MSTORE PUSH1 0x40 PUSH1 0x20 DUP3 ADD MSTORE PUSH1 0x0 PUSH2 0x1C43 PUSH1 0x40 DUP4 ADD DUP5 PUSH2 0x1BE5 JUMP JUMPDEST SWAP5 SWAP4 POP POP POP POP JUMP JUMPDEST PUSH1 0x0 PUSH1 0x20 DUP3 DUP5 SUB SLT ISZERO PUSH2 0x1C5D JUMPI PUSH1 0x0 DUP1 REVERT JUMPDEST DUP2 MLOAD PUSH8 0xFFFFFFFFFFFFFFFF DUP2 GT ISZERO PUSH2 0x1C74 JUMPI PUSH1 0x0 DUP1 REVERT JUMPDEST DUP3 ADD PUSH1 0x1F DUP2 ADD DUP5 SGT PUSH2 0x1C85 JUMPI PUSH1 0x0 DUP1 REVERT JUMPDEST DUP1 MLOAD PUSH8 0xFFFFFFFFFFFFFFFF DUP2 GT ISZERO PUSH2 0x1C9F JUMPI PUSH2 0x1C9F PUSH2 0x1BB2 JUMP JUMPDEST DUP1 PUSH1 0x5 SHL PUSH1 0x40 MLOAD PUSH1 0x1F NOT PUSH1 0x3F DUP4 ADD AND DUP2 ADD DUP2 DUP2 LT PUSH8 0xFFFFFFFFFFFFFFFF DUP3 GT OR ISZERO PUSH2 0x1CCC JUMPI PUSH2 0x1CCC PUSH2 0x1BB2 JUMP JUMPDEST PUSH1 0x40 MSTORE SWAP2 DUP3 MSTORE PUSH1 0x20 DUP2 DUP5 ADD DUP2 ADD SWAP3 SWAP1 DUP2 ADD DUP8 DUP5 GT ISZERO PUSH2 0x1CEA JUMPI PUSH1 0x0 DUP1 REVERT JUMPDEST PUSH1 0x20 DUP6 ADD SWAP5 POP JUMPDEST DUP4 DUP6 LT ISZERO PUSH2 0x1D0D JUMPI DUP5 MLOAD DUP1 DUP3 MSTORE PUSH1 0x20 SWAP6 DUP7 ADD SWAP6 SWAP1 SWAP4 POP ADD PUSH2 0x1CF1 JUMP JUMPDEST POP SWAP7 SWAP6 POP POP POP POP POP POP JUMP JUMPDEST DUP6 DUP2 MSTORE DUP5 PUSH1 0x20 DUP3 ADD MSTORE PUSH1 0xA0 PUSH1 0x40 DUP3 ADD MSTORE PUSH1 0x0 PUSH2 0x1D37 PUSH1 0xA0 DUP4 ADD DUP7 PUSH2 0x1BE5 JUMP JUMPDEST PUSH1 0x1 PUSH1 0x1 PUSH1 0xA0 SHL SUB SWAP5 SWAP1 SWAP5 AND PUSH1 0x60 DUP4 ADD MSTORE POP PUSH1 0x80 ADD MSTORE SWAP4 SWAP3 POP POP POP JUMP JUMPDEST DUP5 DUP2 MSTORE PUSH1 0x80 PUSH1 0x20 DUP3 ADD MSTORE PUSH1 0x0 PUSH2 0x1D6D PUSH1 0x80 DUP4 ADD DUP7 PUSH2 0x1BE5 JUMP JUMPDEST PUSH1 0x1 PUSH1 0x1 PUSH1 0xA0 SHL SUB SWAP5 SWAP1 SWAP5 AND PUSH1 0x40 DUP4 ADD MSTORE POP PUSH1 0x60 ADD MSTORE SWAP3 SWAP2 POP POP JUMP JUMPDEST PUSH1 0x0 DUP1 PUSH1 0x0 PUSH1 0x60 DUP5 DUP7 SUB SLT ISZERO PUSH2 0x1D9E JUMPI PUSH1 0x0 DUP1 REVERT JUMPDEST POP POP DUP2 MLOAD PUSH1 0x20 DUP4 ADD MLOAD PUSH1 0x40 SWAP1 SWAP4 ADD MLOAD SWAP1 SWAP5 SWAP3 SWAP4 POP SWAP2 SWAP1 POP JUMP INVALID LOG2 PUSH5 0x6970667358 0x22 SLT KECCAK256 0x28 0x1F PUSH15 0x8950813BA4F31875D1D72C75FE3495 PUSH22 0x7E7B4ECCB29D73B1A57D3F799F64736F6C634300081B STOP CALLER "},"methodIdentifiers":{"canProcessTokens()":"26ee4ab4","claimCooldown()":"fdea3657","claimRewards()":"372500ab","distributeRewards(address[])":"c5a55152","emergencyWithdrawETH()":"84536017","emergencyWithdrawToken(address,uint256)":"a4c3b091","getUserRewardInfo(address)":"69517310","lastClaimTime(address)":"b77cf9c6","liquidityPercentage()":"048b87ba","maxSlippage()":"8c04166f","minETHForLiquidity()":"c93dc77e","minTokensForConversion()":"0017c578","motoToken()":"f7cfc2e0","owner()":"8da5cb5b","processTokens()":"df37ab4c","renounceOwnership()":"715018a6","rewardPercentage()":"52d472eb","rewards(address)":"0700037d","router()":"f887ea40","totalETHForLiquidity()":"cefce826","totalETHForRewards()":"38c01c68","totalRewardsDistributed()":"ee172546","transferOwnership(address)":"f2fde38b","updateClaimCooldown(uint256)":"0d286df9","updateMaxSlippage(uint256)":"f896acc7","updateMinAmounts(uint256,uint256)":"b1d23f02","updatePercentages(uint256,uint256)":"c20d2295"}}}}}