{
  "_format": "hh-sol-artifact-1",
  "contractName": "Buyback",
  "sourceName": "contracts/Buyback.sol",
  "abi": [
    {
      "inputs": [
        {
          "internalType": "address",
          "name": "_motoToken",
          "type": "address"
        },
        {
          "internalType": "address",
          "name": "_router",
          "type": "address"
        },
        {
          "internalType": "address",
          "name": "initialOwner",
          "type": "address"
        }
      ],
      "stateMutability": "nonpayable",
      "type": "constructor"
    },
    {
      "inputs": [
        {
          "internalType": "address",
          "name": "owner",
          "type": "address"
        }
      ],
      "name": "OwnableInvalidOwner",
      "type": "error"
    },
    {
      "inputs": [
        {
          "internalType": "address",
          "name": "account",
          "type": "address"
        }
      ],
      "name": "OwnableUnauthorizedAccount",
      "type": "error"
    },
    {
      "inputs": [],
      "name": "ReentrancyGuardReentrantCall",
      "type": "error"
    },
    {
      "anonymous": false,
      "inputs": [
        {
          "indexed": false,
          "internalType": "uint256",
          "name": "tokensSwappedForETH",
          "type": "uint256"
        },
        {
          "indexed": false,
          "internalType": "uint256",
          "name": "ethReceived",
          "type": "uint256"
        },
        {
          "indexed": false,
          "internalType": "uint256",
          "name": "tokensBought",
          "type": "uint256"
        },
        {
          "indexed": false,
          "internalType": "uint256",
          "name": "tokensBurned",
          "type": "uint256"
        }
      ],
      "name": "BuybackExecuted",
      "type": "event"
    },
    {
      "anonymous": false,
      "inputs": [
        {
          "indexed": false,
          "internalType": "address",
          "name": "token",
          "type": "address"
        },
        {
          "indexed": false,
          "internalType": "uint256",
          "name": "amount",
          "type": "uint256"
        }
      ],
      "name": "EmergencyWithdraw",
      "type": "event"
    },
    {
      "anonymous": false,
      "inputs": [
        {
          "indexed": false,
          "internalType": "uint256",
          "name": "newMaxSlippage",
          "type": "uint256"
        }
      ],
      "name": "MaxSlippageUpdated",
      "type": "event"
    },
    {
      "anonymous": false,
      "inputs": [
        {
          "indexed": false,
          "internalType": "uint256",
          "name": "newMinTokens",
          "type": "uint256"
        }
      ],
      "name": "MinTokensUpdated",
      "type": "event"
    },
    {
      "anonymous": false,
      "inputs": [
        {
          "indexed": true,
          "internalType": "address",
          "name": "previousOwner",
          "type": "address"
        },
        {
          "indexed": true,
          "internalType": "address",
          "name": "newOwner",
          "type": "address"
        }
      ],
      "name": "OwnershipTransferred",
      "type": "event"
    },
    {
      "stateMutability": "payable",
      "type": "fallback"
    },
    {
      "inputs": [],
      "name": "DEAD",
      "outputs": [
        {
          "internalType": "address",
          "name": "",
          "type": "address"
        }
      ],
      "stateMutability": "view",
      "type": "function"
    },
    {
      "inputs": [],
      "name": "canExecuteBuyback",
      "outputs": [
        {
          "internalType": "bool",
          "name": "canExecute",
          "type": "bool"
        },
        {
          "internalType": "uint256",
          "name": "tokenBalance",
          "type": "uint256"
        }
      ],
      "stateMutability": "view",
      "type": "function"
    },
    {
      "inputs": [],
      "name": "emergencyWithdrawETH",
      "outputs": [],
      "stateMutability": "nonpayable",
      "type": "function"
    },
    {
      "inputs": [
        {
          "internalType": "address",
          "name": "token",
          "type": "address"
        },
        {
          "internalType": "uint256",
          "name": "amount",
          "type": "uint256"
        }
      ],
      "name": "emergencyWithdrawToken",
      "outputs": [],
      "stateMutability": "nonpayable",
      "type": "function"
    },
    {
      "inputs": [],
      "name": "executeBuyback",
      "outputs": [],
      "stateMutability": "nonpayable",
      "type": "function"
    },
    {
      "inputs": [],
      "name": "getExpectedETHFromTokens",
      "outputs": [
        {
          "internalType": "uint256",
          "name": "expectedETH",
          "type": "uint256"
        }
      ],
      "stateMutability": "view",
      "type": "function"
    },
    {
      "inputs": [],
      "name": "maxSlippage",
      "outputs": [
        {
          "internalType": "uint256",
          "name": "",
          "type": "uint256"
        }
      ],
      "stateMutability": "view",
      "type": "function"
    },
    {
      "inputs": [],
      "name": "minTokensForBuyback",
      "outputs": [
        {
          "internalType": "uint256",
          "name": "",
          "type": "uint256"
        }
      ],
      "stateMutability": "view",
      "type": "function"
    },
    {
      "inputs": [],
      "name": "motoToken",
      "outputs": [
        {
          "internalType": "contract IERC20",
          "name": "",
          "type": "address"
        }
      ],
      "stateMutability": "view",
      "type": "function"
    },
    {
      "inputs": [],
      "name": "owner",
      "outputs": [
        {
          "internalType": "address",
          "name": "",
          "type": "address"
        }
      ],
      "stateMutability": "view",
      "type": "function"
    },
    {
      "inputs": [],
      "name": "renounceOwnership",
      "outputs": [],
      "stateMutability": "nonpayable",
      "type": "function"
    },
    {
      "inputs": [],
      "name": "router",
      "outputs": [
        {
          "internalType": "contract IUniswapV2Router02",
          "name": "",
          "type": "address"
        }
      ],
      "stateMutability": "view",
      "type": "function"
    },
    {
      "inputs": [
        {
          "internalType": "address",
          "name": "newOwner",
          "type": "address"
        }
      ],
      "name": "transferOwnership",
      "outputs": [],
      "stateMutability": "nonpayable",
      "type": "function"
    },
    {
      "inputs": [
        {
          "internalType": "uint256",
          "name": "_maxSlippage",
          "type": "uint256"
        }
      ],
      "name": "updateMaxSlippage",
      "outputs": [],
      "stateMutability": "nonpayable",
      "type": "function"
    },
    {
      "inputs": [
        {
          "internalType": "uint256",
          "name": "_minTokens",
          "type": "uint256"
        }
      ],
      "name": "updateMinTokensForBuyback",
      "outputs": [],
      "stateMutability": "nonpayable",
      "type": "function"
    },
    {
      "stateMutability": "payable",
      "type": "receive"
    }
  ],
  "bytecode": "0x60c0604052683635c9adc5dea000006002556101f460035534801561002357600080fd5b5060405161175a38038061175a83398101604081905261004291610212565b806001600160a01b03811661007257604051631e4fbdf760e01b8152600060048201526024015b60405180910390fd5b61007b816101a6565b50600180556001600160a01b0383166100e25760405162461bcd60e51b815260206004820152602360248201527f4275796261636b3a20696e76616c6964204d4f544f20746f6b656e206164647260448201526265737360e81b6064820152608401610069565b6001600160a01b0382166101385760405162461bcd60e51b815260206004820152601f60248201527f4275796261636b3a20696e76616c696420726f757465722061646472657373006044820152606401610069565b6001600160a01b03811661018e5760405162461bcd60e51b815260206004820152601e60248201527f4275796261636b3a20696e76616c6964206f776e6572206164647265737300006044820152606401610069565b506001600160a01b0391821660a05216608052610255565b600080546001600160a01b038381166001600160a01b0319831681178455604051919092169283917f8be0079c531659141344cd1fd0a4f28419497f9722a3daafe3b4186f6b6457e09190a35050565b80516001600160a01b038116811461020d57600080fd5b919050565b60008060006060848603121561022757600080fd5b610230846101f6565b925061023e602085016101f6565b915061024c604085016101f6565b90509250925092565b60805160a0516114706102ea6000396000818161025e015281816102f60152818161039101528181610431015281816106e701528181610b2c01528181610bbf0152610f2a015260008181610292015281816104850152818161053d01528181610afa01528181610c1301528181610cce01528181610d9d01528181610e7501528181610f84015261105401526114706000f3fe6080604052600436106100df5760003560e01c80638c04166f11610084578063f2fde38b11610056578063f2fde38b1461022c578063f7cfc2e01461024c578063f887ea4014610280578063f896acc7146102b457005b80638c04166f146101c35780638da5cb5b146101d95780638e10e77a146101f7578063a4c3b0911461020c57005b8063715018a6116100bd578063715018a61461016357806373df7735146101785780637d72e1491461019857806384536017146101ae57005b806303fd2a45146100e15780633fb20efe146101145780635d3757ed14610140575b005b3480156100ed57600080fd5b506100f761dead81565b6040516001600160a01b0390911681526020015b60405180910390f35b34801561012057600080fd5b506101296102d4565b60408051921515835260208301919091520161010b565b34801561014c57600080fd5b5061015561036f565b60405190815260200161010b565b34801561016f57600080fd5b506100df6105e4565b34801561018457600080fd5b506100df610193366004611119565b6105f8565b3480156101a457600080fd5b5061015560025481565b3480156101ba57600080fd5b506100df61063c565b3480156101cf57600080fd5b5061015560035481565b3480156101e557600080fd5b506000546001600160a01b03166100f7565b34801561020357600080fd5b506100df6106c7565b34801561021857600080fd5b506100df610227366004611147565b61088e565b34801561023857600080fd5b506100df610247366004611173565b61096f565b34801561025857600080fd5b506100f77f000000000000000000000000000000000000000000000000000000000000000081565b34801561028c57600080fd5b506100f77f000000000000000000000000000000000000000000000000000000000000000081565b3480156102c057600080fd5b506100df6102cf366004611119565b6109ad565b6040516370a0823160e01b815230600482015260009081906001600160a01b037f000000000000000000000000000000000000000000000000000000000000000016906370a0823190602401602060405180830381865afa15801561033d573d6000803e3d6000fd5b505050506040513d601f19601f820116820180604052508101906103619190611197565b905060025481101591509091565b6040516370a0823160e01b815230600482015260009081906001600160a01b037f000000000000000000000000000000000000000000000000000000000000000016906370a0823190602401602060405180830381865afa1580156103d8573d6000803e3d6000fd5b505050506040513d601f19601f820116820180604052508101906103fc9190611197565b90508060000361040e57600091505090565b6040805160028082526060820183526000926020830190803683370190505090507f000000000000000000000000000000000000000000000000000000000000000081600081518110610463576104636111c6565b60200260200101906001600160a01b031690816001600160a01b0316815250507f00000000000000000000000000000000000000000000000000000000000000006001600160a01b031663ad5c46486040518163ffffffff1660e01b8152600401602060405180830381865afa1580156104e1573d6000803e3d6000fd5b505050506040513d601f19601f8201168201806040525081019061050591906111dc565b81600181518110610518576105186111c6565b6001600160a01b03928316602091820292909201015260405163d06ca61f60e01b81527f00000000000000000000000000000000000000000000000000000000000000009091169063d06ca61f90610576908590859060040161123e565b600060405180830381865afa9250505080156105b457506040513d6000823e601f3d908101601f191682016040526105b1919081019061125f565b60015b6105c15760009250505090565b806001815181106105d4576105d46111c6565b6020026020010151935050505090565b6105ec610a3c565b6105f66000610a69565b565b610600610a3c565b60028190556040518181527fde9e41948b38bcc608d7c12826a2c468aaf66e24def8083198fbb088814d3c44906020015b60405180910390a150565b610644610a3c565b476106576000546001600160a01b031690565b6001600160a01b03166108fc829081150290604051600060405180830381858888f1935050505015801561068f573d6000803e3d6000fd5b506040805160008152602081018390527f5fafa99d0643513820be26656b45130b01e1c03062e1266bf36f88cbd3bd96959101610631565b6106cf610ab9565b6040516370a0823160e01b81523060048201526000907f00000000000000000000000000000000000000000000000000000000000000006001600160a01b0316906370a0823190602401602060405180830381865afa158015610736573d6000803e3d6000fd5b505050506040513d601f19601f8201168201806040525081019061075a9190611197565b90506002548110156107c45760405162461bcd60e51b815260206004820152602860248201527f4275796261636b3a20696e73756666696369656e7420746f6b656e7320666f72604482015267206275796261636b60c01b60648201526084015b60405180910390fd5b60006107cf82610ae3565b90506000811161082c5760405162461bcd60e51b815260206004820152602260248201527f4275796261636b3a206e6f204554482072656365697665642066726f6d207377604482015261061760f41b60648201526084016107bb565b600061083782610e4e565b6040805185815260208101859052908101829052606081018290529091507f42659a4aa613c1e350c764f0ff2be36a175ac2a1e4b77b8e1467d1fed32becc89060800160405180910390a15050506105f660018055565b610896610a3c565b816001600160a01b031663a9059cbb6108b76000546001600160a01b031690565b6040516001600160e01b031960e084901b1681526001600160a01b039091166004820152602481018490526044016020604051808303816000875af1158015610904573d6000803e3d6000fd5b505050506040513d601f19601f82011682018060405250810190610928919061132c565b50604080516001600160a01b0384168152602081018390527f5fafa99d0643513820be26656b45130b01e1c03062e1266bf36f88cbd3bd9695910160405180910390a15050565b610977610a3c565b6001600160a01b0381166109a157604051631e4fbdf760e01b8152600060048201526024016107bb565b6109aa81610a69565b50565b6109b5610a3c565b6107d0811115610a075760405162461bcd60e51b815260206004820152601a60248201527f4275796261636b3a20736c69707061676520746f6f206869676800000000000060448201526064016107bb565b60038190556040518181527f9c922f6d0c990b250e9dd0a427a5c8da7f44b960f697fecb31cbbd8ba79ec8c290602001610631565b6000546001600160a01b031633146105f65760405163118cdaa760e01b81523360048201526024016107bb565b600080546001600160a01b038381166001600160a01b0319831681178455604051919092169283917f8be0079c531659141344cd1fd0a4f28419497f9722a3daafe3b4186f6b6457e09190a35050565b600260015403610adc57604051633ee5aeb560e01b815260040160405180910390fd5b6002600155565b60405163095ea7b360e01b81526001600160a01b037f000000000000000000000000000000000000000000000000000000000000000081166004830152602482018390526000917f00000000000000000000000000000000000000000000000000000000000000009091169063095ea7b3906044016020604051808303816000875af1158015610b77573d6000803e3d6000fd5b505050506040513d601f19601f82011682018060405250810190610b9b919061132c565b506040805160028082526060820183526000926020830190803683370190505090507f000000000000000000000000000000000000000000000000000000000000000081600081518110610bf157610bf16111c6565b60200260200101906001600160a01b031690816001600160a01b0316815250507f00000000000000000000000000000000000000000000000000000000000000006001600160a01b031663ad5c46486040518163ffffffff1660e01b8152600401602060405180830381865afa158015610c6f573d6000803e3d6000fd5b505050506040513d601f19601f82011682018060405250810190610c9391906111dc565b81600181518110610ca657610ca66111c6565b6001600160a01b03928316602091820292909201015260405163d06ca61f60e01b81526000917f0000000000000000000000000000000000000000000000000000000000000000169063d06ca61f90610d05908790869060040161123e565b600060405180830381865afa158015610d22573d6000803e3d6000fd5b505050506040513d6000823e601f3d908101601f19168201604052610d4a919081019061125f565b90506000612710600354612710610d619190611364565b83600181518110610d7457610d746111c6565b6020026020010151610d86919061137d565b610d909190611394565b9050476001600160a01b037f0000000000000000000000000000000000000000000000000000000000000000166318cbafe587848730610dd24261012c6113b6565b6040518663ffffffff1660e01b8152600401610df29594939291906113c9565b6000604051808303816000875af1158015610e11573d6000803e3d6000fd5b505050506040513d6000823e601f3d908101601f19168201604052610e39919081019061125f565b50610e448147611364565b9695505050505050565b604080516002808252606082018352600092839291906020830190803683370190505090507f00000000000000000000000000000000000000000000000000000000000000006001600160a01b031663ad5c46486040518163ffffffff1660e01b8152600401602060405180830381865afa158015610ed1573d6000803e3d6000fd5b505050506040513d601f19601f82011682018060405250810190610ef591906111dc565b81600081518110610f0857610f086111c6565b60200260200101906001600160a01b031690816001600160a01b0316815250507f000000000000000000000000000000000000000000000000000000000000000081600181518110610f5c57610f5c6111c6565b6001600160a01b03928316602091820292909201015260405163d06ca61f60e01b81526000917f0000000000000000000000000000000000000000000000000000000000000000169063d06ca61f90610fbb908790869060040161123e565b600060405180830381865afa158015610fd8573d6000803e3d6000fd5b505050506040513d6000823e601f3d908101601f19168201604052611000919081019061125f565b905060006127106003546127106110179190611364565b8360018151811061102a5761102a6111c6565b602002602001015161103c919061137d565b6110469190611394565b905060006001600160a01b037f000000000000000000000000000000000000000000000000000000000000000016637ff36ab587848761dead61108b4261012c6113b6565b6040518663ffffffff1660e01b81526004016110aa9493929190611405565b60006040518083038185885af11580156110c8573d6000803e3d6000fd5b50505050506040513d6000823e601f3d908101601f191682016040526110f1919081019061125f565b905080600181518110611106576111066111c6565b6020026020010151945050505050919050565b60006020828403121561112b57600080fd5b5035919050565b6001600160a01b03811681146109aa57600080fd5b6000806040838503121561115a57600080fd5b823561116581611132565b946020939093013593505050565b60006020828403121561118557600080fd5b813561119081611132565b9392505050565b6000602082840312156111a957600080fd5b5051919050565b634e487b7160e01b600052604160045260246000fd5b634e487b7160e01b600052603260045260246000fd5b6000602082840312156111ee57600080fd5b815161119081611132565b600081518084526020840193506020830160005b828110156112345781516001600160a01b031686526020958601959091019060010161120d565b5093949350505050565b82815260406020820152600061125760408301846111f9565b949350505050565b60006020828403121561127157600080fd5b815167ffffffffffffffff81111561128857600080fd5b8201601f8101841361129957600080fd5b805167ffffffffffffffff8111156112b3576112b36111b0565b8060051b604051601f19603f830116810181811067ffffffffffffffff821117156112e0576112e06111b0565b6040529182526020818401810192908101878411156112fe57600080fd5b6020850194505b8385101561132157845180825260209586019590935001611305565b509695505050505050565b60006020828403121561133e57600080fd5b8151801515811461119057600080fd5b634e487b7160e01b600052601160045260246000fd5b818103818111156113775761137761134e565b92915050565b80820281158282048414176113775761137761134e565b6000826113b157634e487b7160e01b600052601260045260246000fd5b500490565b808201808211156113775761137761134e565b85815284602082015260a0604082015260006113e860a08301866111f9565b6001600160a01b0394909416606083015250608001529392505050565b84815260806020820152600061141e60808301866111f9565b6001600160a01b0394909416604083015250606001529291505056fea264697066735822122081ff9042828e70c319fe53e338bbbc2782cb59c39fcf110676e4a4a9d6c59daf64736f6c634300081b0033",
  "linkReferences": {},
  "deployedLinkReferences": {}
}