{
  "_format": "hh-sol-artifact-1",
  "contractName": "MockUniswapV2Router",
  "sourceName": "contracts/MockUniswapV2Router.sol",
  "abi": [
    {
      "inputs": [],
      "stateMutability": "nonpayable",
      "type": "constructor"
    },
    {
      "inputs": [],
      "name": "WETH",
      "outputs": [
        {
          "internalType": "address",
          "name": "",
          "type": "address"
        }
      ],
      "stateMutability": "view",
      "type": "function"
    },
    {
      "inputs": [
        {
          "internalType": "address",
          "name": "token",
          "type": "address"
        },
        {
          "internalType": "uint256",
          "name": "amountTokenDesired",
          "type": "uint256"
        },
        {
          "internalType": "uint256",
          "name": "amountTokenMin",
          "type": "uint256"
        },
        {
          "internalType": "uint256",
          "name": "amountETHMin",
          "type": "uint256"
        },
        {
          "internalType": "address",
          "name": "to",
          "type": "address"
        },
        {
          "internalType": "uint256",
          "name": "deadline",
          "type": "uint256"
        }
      ],
      "name": "addLiquidityETH",
      "outputs": [
        {
          "internalType": "uint256",
          "name": "amountToken",
          "type": "uint256"
        },
        {
          "internalType": "uint256",
          "name": "amountETH",
          "type": "uint256"
        },
        {
          "internalType": "uint256",
          "name": "liquidity",
          "type": "uint256"
        }
      ],
      "stateMutability": "payable",
      "type": "function"
    },
    {
      "inputs": [],
      "name": "factory",
      "outputs": [
        {
          "internalType": "address",
          "name": "",
          "type": "address"
        }
      ],
      "stateMutability": "pure",
      "type": "function"
    },
    {
      "inputs": [
        {
          "internalType": "uint256",
          "name": "amountIn",
          "type": "uint256"
        },
        {
          "internalType": "address[]",
          "name": "path",
          "type": "address[]"
        }
      ],
      "name": "getAmountsOut",
      "outputs": [
        {
          "internalType": "uint256[]",
          "name": "amounts",
          "type": "uint256[]"
        }
      ],
      "stateMutability": "view",
      "type": "function"
    },
    {
      "inputs": [
        {
          "internalType": "address",
          "name": "token",
          "type": "address"
        },
        {
          "internalType": "uint256",
          "name": "priceInETH",
          "type": "uint256"
        }
      ],
      "name": "setTokenPrice",
      "outputs": [],
      "stateMutability": "nonpayable",
      "type": "function"
    },
    {
      "inputs": [
        {
          "internalType": "uint256",
          "name": "amountOutMin",
          "type": "uint256"
        },
        {
          "internalType": "address[]",
          "name": "path",
          "type": "address[]"
        },
        {
          "internalType": "address",
          "name": "to",
          "type": "address"
        },
        {
          "internalType": "uint256",
          "name": "deadline",
          "type": "uint256"
        }
      ],
      "name": "swapExactETHForTokens",
      "outputs": [
        {
          "internalType": "uint256[]",
          "name": "amounts",
          "type": "uint256[]"
        }
      ],
      "stateMutability": "payable",
      "type": "function"
    },
    {
      "inputs": [
        {
          "internalType": "uint256",
          "name": "amountIn",
          "type": "uint256"
        },
        {
          "internalType": "uint256",
          "name": "amountOutMin",
          "type": "uint256"
        },
        {
          "internalType": "address[]",
          "name": "path",
          "type": "address[]"
        },
        {
          "internalType": "address",
          "name": "to",
          "type": "address"
        },
        {
          "internalType": "uint256",
          "name": "deadline",
          "type": "uint256"
        }
      ],
      "name": "swapExactTokensForETH",
      "outputs": [
        {
          "internalType": "uint256[]",
          "name": "amounts",
          "type": "uint256[]"
        }
      ],
      "stateMutability": "nonpayable",
      "type": "function"
    },
    {
      "inputs": [
        {
          "internalType": "address",
          "name": "",
          "type": "address"
        }
      ],
      "name": "tokenPrices",
      "outputs": [
        {
          "internalType": "uint256",
          "name": "",
          "type": "uint256"
        }
      ],
      "stateMutability": "view",
      "type": "function"
    },
    {
      "stateMutability": "payable",
      "type": "receive"
    }
  ],
  "bytecode": "0x6080604052348015600f57600080fd5b507342000000000000000000000000000000000000066000908152602052670de0b6b3a76400007faa544f6996e1da4967517881576aedff824813d40fbf84798b92a9de03a071fe55610d96806100676000396000f3fe60806040526004361061007f5760003560e01c8063ad5c46481161004e578063ad5c464814610148578063c45a01551461017b578063d06ca61f1461018f578063f305d719146101af57600080fd5b806318cbafe51461008b578063204120bc146100c1578063431f63c9146100fc5780637ff36ab51461013557600080fd5b3661008657005b600080fd5b34801561009757600080fd5b506100ab6100a6366004610aaf565b6101dd565b6040516100b89190610b21565b60405180910390f35b3480156100cd57600080fd5b506100ee6100dc366004610b64565b60006020819052908152604090205481565b6040519081526020016100b8565b34801561010857600080fd5b50610133610117366004610b7f565b6001600160a01b03909116600090815260208190526040902055565b005b6100ab610143366004610ba9565b610492565b34801561015457600080fd5b506101636006602160991b0181565b6040516001600160a01b0390911681526020016100b8565b34801561018757600080fd5b506000610163565b34801561019b57600080fd5b506100ab6101aa366004610c0f565b610702565b6101c26101bd366004610c5b565b610906565b604080519384526020840192909252908201526060016100b8565b6060600284146102085760405162461bcd60e51b81526004016101ff90610cb5565b60405180910390fd5b6006602160991b018585600181811061022357610223610cdb565b90506020020160208101906102389190610b64565b6001600160a01b0316146102825760405162461bcd60e51b815260206004820152601160248201527009aeae6e840e6eec2e040e8de40ae8aa89607b1b60448201526064016101ff565b60008585600081811061029757610297610cdb565b90506020020160208101906102ac9190610b64565b6001600160a01b038116600090815260208190526040902054909150806103055760405162461bcd60e51b815260206004820152600d60248201526c141c9a58d9481b9bdd081cd95d609a1b60448201526064016101ff565b6000670de0b6b3a764000061031a838c610cf1565b6103249190610d1c565b9050888110156103765760405162461bcd60e51b815260206004820152601a60248201527f496e73756666696369656e74206f757470757420616d6f756e7400000000000060448201526064016101ff565b6040516323b872dd60e01b8152336004820152306024820152604481018b90526001600160a01b038416906323b872dd906064016020604051808303816000875af11580156103c9573d6000803e3d6000fd5b505050506040513d601f19601f820116820180604052508101906103ed9190610d3e565b506040516001600160a01b0387169082156108fc029083906000818181858888f19350505050158015610424573d6000803e3d6000fd5b506040805160028082526060820183529091602083019080368337019050509350898460008151811061045957610459610cdb565b602002602001018181525050808460018151811061047957610479610cdb565b6020026020010181815250505050509695505050505050565b6060600284146104b45760405162461bcd60e51b81526004016101ff90610cb5565b6006602160991b0185856000816104cd576104cd610cdb565b90506020020160208101906104e29190610b64565b6001600160a01b03161461052e5760405162461bcd60e51b815260206004820152601360248201527209aeae6e840e6eec2e040cce4deda40ae8aa89606b1b60448201526064016101ff565b60008585600181811061054357610543610cdb565b90506020020160208101906105589190610b64565b6001600160a01b038116600090815260208190526040902054909150806105b15760405162461bcd60e51b815260206004820152600d60248201526c141c9a58d9481b9bdd081cd95d609a1b60448201526064016101ff565b6000816105c634670de0b6b3a7640000610cf1565b6105d09190610d1c565b9050888110156106225760405162461bcd60e51b815260206004820152601a60248201527f496e73756666696369656e74206f757470757420616d6f756e7400000000000060448201526064016101ff565b60405163a9059cbb60e01b81526001600160a01b0387811660048301526024820183905284169063a9059cbb906044016020604051808303816000875af1158015610671573d6000803e3d6000fd5b505050506040513d601f19601f820116820180604052508101906106959190610d3e565b50604080516002808252606082018352909160208301908036833701905050935034846000815181106106ca576106ca610cdb565b60200260200101818152505080846001815181106106ea576106ea610cdb565b60200260200101818152505050505095945050505050565b6060600282146107245760405162461bcd60e51b81526004016101ff90610cb5565b6040805160028082526060820183529091602083019080368337019050509050838160008151811061075857610758610cdb565b60209081029190910101526006602160991b018383600181811061077e5761077e610cdb565b90506020020160208101906107939190610b64565b6001600160a01b03160361082c576000806000858560008181106107b9576107b9610cdb565b90506020020160208101906107ce9190610b64565b6001600160a01b031681526020810191909152604001600020549050670de0b6b3a76400006107fd8287610cf1565b6108079190610d1c565b8260018151811061081a5761081a610cdb565b602002602001018181525050506108ff565b6006602160991b01838360008161084557610845610cdb565b905060200201602081019061085a9190610b64565b6001600160a01b0316036108c45760008060008585600181811061088057610880610cdb565b90506020020160208101906108959190610b64565b6001600160a01b031681526020810191909152604001600020549050806107fd86670de0b6b3a7640000610cf1565b60405162461bcd60e51b815260206004820152601060248201526f0aadce6eae0e0dee4e8cac840e0c2e8d60831b60448201526064016101ff565b9392505050565b60008060008534101561094e5760405162461bcd60e51b815260206004820152601060248201526f092dce6eaccccd2c6d2cadce8408aa8960831b60448201526064016101ff565b8688101561099e5760405162461bcd60e51b815260206004820152601960248201527f496e73756666696369656e7420746f6b656e20616d6f756e740000000000000060448201526064016101ff565b6040516323b872dd60e01b8152336004820152306024820152604481018990526001600160a01b038a16906323b872dd906064016020604051808303816000875af11580156109f1573d6000803e3d6000fd5b505050506040513d601f19601f82011682018060405250810190610a159190610d3e565b50879250349150670de0b6b3a7640000610a2f8385610cf1565b610a399190610d1c565b905096509650969350505050565b60008083601f840112610a5957600080fd5b50813567ffffffffffffffff811115610a7157600080fd5b6020830191508360208260051b8501011115610a8c57600080fd5b9250929050565b80356001600160a01b0381168114610aaa57600080fd5b919050565b60008060008060008060a08789031215610ac857600080fd5b8635955060208701359450604087013567ffffffffffffffff811115610aed57600080fd5b610af989828a01610a47565b9095509350610b0c905060608801610a93565b95989497509295919493608090920135925050565b602080825282518282018190526000918401906040840190835b81811015610b59578351835260209384019390920191600101610b3b565b509095945050505050565b600060208284031215610b7657600080fd5b6108ff82610a93565b60008060408385031215610b9257600080fd5b610b9b83610a93565b946020939093013593505050565b600080600080600060808688031215610bc157600080fd5b85359450602086013567ffffffffffffffff811115610bdf57600080fd5b610beb88828901610a47565b9095509350610bfe905060408701610a93565b949793965091946060013592915050565b600080600060408486031215610c2457600080fd5b83359250602084013567ffffffffffffffff811115610c4257600080fd5b610c4e86828701610a47565b9497909650939450505050565b60008060008060008060c08789031215610c7457600080fd5b610c7d87610a93565b9550602087013594506040870135935060608701359250610ca060808801610a93565b9598949750929591949360a090920135925050565b6020808252600c908201526b092dcecc2d8d2c840e0c2e8d60a31b604082015260600190565b634e487b7160e01b600052603260045260246000fd5b8082028115828204841417610d1657634e487b7160e01b600052601160045260246000fd5b92915050565b600082610d3957634e487b7160e01b600052601260045260246000fd5b500490565b600060208284031215610d5057600080fd5b815180151581146108ff57600080fdfea26469706673582212208df18678444938d6cca18323364e84884b16e9405737ab22ba8895aa948ba74164736f6c634300081b0033",
  "linkReferences": {},
  "deployedLinkReferences": {}
}