{
  "_format": "hh-sol-artifact-1",
  "contractName": "MotoToken",
  "sourceName": "contracts/MotoToken.sol",
  "abi": [
    {
      "inputs": [
        {
          "internalType": "address",
          "name": "initialOwner",
          "type": "address"
        }
      ],
      "stateMutability": "nonpayable",
      "type": "constructor"
    },
    {
      "inputs": [
        {
          "internalType": "address",
          "name": "spender",
          "type": "address"
        },
        {
          "internalType": "uint256",
          "name": "allowance",
          "type": "uint256"
        },
        {
          "internalType": "uint256",
          "name": "needed",
          "type": "uint256"
        }
      ],
      "name": "ERC20InsufficientAllowance",
      "type": "error"
    },
    {
      "inputs": [
        {
          "internalType": "address",
          "name": "sender",
          "type": "address"
        },
        {
          "internalType": "uint256",
          "name": "balance",
          "type": "uint256"
        },
        {
          "internalType": "uint256",
          "name": "needed",
          "type": "uint256"
        }
      ],
      "name": "ERC20InsufficientBalance",
      "type": "error"
    },
    {
      "inputs": [
        {
          "internalType": "address",
          "name": "approver",
          "type": "address"
        }
      ],
      "name": "ERC20InvalidApprover",
      "type": "error"
    },
    {
      "inputs": [
        {
          "internalType": "address",
          "name": "receiver",
          "type": "address"
        }
      ],
      "name": "ERC20InvalidReceiver",
      "type": "error"
    },
    {
      "inputs": [
        {
          "internalType": "address",
          "name": "sender",
          "type": "address"
        }
      ],
      "name": "ERC20InvalidSender",
      "type": "error"
    },
    {
      "inputs": [
        {
          "internalType": "address",
          "name": "spender",
          "type": "address"
        }
      ],
      "name": "ERC20InvalidSpender",
      "type": "error"
    },
    {
      "inputs": [
        {
          "internalType": "address",
          "name": "owner",
          "type": "address"
        }
      ],
      "name": "OwnableInvalidOwner",
      "type": "error"
    },
    {
      "inputs": [
        {
          "internalType": "address",
          "name": "account",
          "type": "address"
        }
      ],
      "name": "OwnableUnauthorizedAccount",
      "type": "error"
    },
    {
      "anonymous": false,
      "inputs": [
        {
          "indexed": true,
          "internalType": "address",
          "name": "owner",
          "type": "address"
        },
        {
          "indexed": true,
          "internalType": "address",
          "name": "spender",
          "type": "address"
        },
        {
          "indexed": false,
          "internalType": "uint256",
          "name": "value",
          "type": "uint256"
        }
      ],
      "name": "Approval",
      "type": "event"
    },
    {
      "anonymous": false,
      "inputs": [
        {
          "indexed": false,
          "internalType": "address",
          "name": "buyback",
          "type": "address"
        },
        {
          "indexed": false,
          "internalType": "address",
          "name": "vault",
          "type": "address"
        }
      ],
      "name": "ContractsUpdated",
      "type": "event"
    },
    {
      "anonymous": false,
      "inputs": [
        {
          "indexed": false,
          "internalType": "address",
          "name": "account",
          "type": "address"
        },
        {
          "indexed": false,
          "internalType": "bool",
          "name": "exempt",
          "type": "bool"
        }
      ],
      "name": "FeeExemptionUpdated",
      "type": "event"
    },
    {
      "anonymous": false,
      "inputs": [
        {
          "indexed": false,
          "internalType": "uint256",
          "name": "buybackRate",
          "type": "uint256"
        },
        {
          "indexed": false,
          "internalType": "uint256",
          "name": "liquidityRate",
          "type": "uint256"
        }
      ],
      "name": "FeeRatesUpdated",
      "type": "event"
    },
    {
      "anonymous": false,
      "inputs": [
        {
          "indexed": false,
          "internalType": "uint256",
          "name": "buybackAmount",
          "type": "uint256"
        },
        {
          "indexed": false,
          "internalType": "uint256",
          "name": "liquidityAmount",
          "type": "uint256"
        }
      ],
      "name": "FeesDistributed",
      "type": "event"
    },
    {
      "anonymous": false,
      "inputs": [
        {
          "indexed": true,
          "internalType": "address",
          "name": "previousOwner",
          "type": "address"
        },
        {
          "indexed": true,
          "internalType": "address",
          "name": "newOwner",
          "type": "address"
        }
      ],
      "name": "OwnershipTransferred",
      "type": "event"
    },
    {
      "anonymous": false,
      "inputs": [
        {
          "indexed": true,
          "internalType": "address",
          "name": "from",
          "type": "address"
        },
        {
          "indexed": true,
          "internalType": "address",
          "name": "to",
          "type": "address"
        },
        {
          "indexed": false,
          "internalType": "uint256",
          "name": "value",
          "type": "uint256"
        }
      ],
      "name": "Transfer",
      "type": "event"
    },
    {
      "inputs": [],
      "name": "BASE_SWAP_ROUTER",
      "outputs": [
        {
          "internalType": "address",
          "name": "",
          "type": "address"
        }
      ],
      "stateMutability": "view",
      "type": "function"
    },
    {
      "inputs": [],
      "name": "MAX_FEE_RATE",
      "outputs": [
        {
          "internalType": "uint256",
          "name": "",
          "type": "uint256"
        }
      ],
      "stateMutability": "view",
      "type": "function"
    },
    {
      "inputs": [],
      "name": "TOTAL_SUPPLY",
      "outputs": [
        {
          "internalType": "uint256",
          "name": "",
          "type": "uint256"
        }
      ],
      "stateMutability": "view",
      "type": "function"
    },
    {
      "inputs": [
        {
          "internalType": "address",
          "name": "owner",
          "type": "address"
        },
        {
          "internalType": "address",
          "name": "spender",
          "type": "address"
        }
      ],
      "name": "allowance",
      "outputs": [
        {
          "internalType": "uint256",
          "name": "",
          "type": "uint256"
        }
      ],
      "stateMutability": "view",
      "type": "function"
    },
    {
      "inputs": [
        {
          "internalType": "address",
          "name": "spender",
          "type": "address"
        },
        {
          "internalType": "uint256",
          "name": "value",
          "type": "uint256"
        }
      ],
      "name": "approve",
      "outputs": [
        {
          "internalType": "bool",
          "name": "",
          "type": "bool"
        }
      ],
      "stateMutability": "nonpayable",
      "type": "function"
    },
    {
      "inputs": [
        {
          "internalType": "address",
          "name": "account",
          "type": "address"
        }
      ],
      "name": "balanceOf",
      "outputs": [
        {
          "internalType": "uint256",
          "name": "",
          "type": "uint256"
        }
      ],
      "stateMutability": "view",
      "type": "function"
    },
    {
      "inputs": [],
      "name": "buybackContract",
      "outputs": [
        {
          "internalType": "address",
          "name": "",
          "type": "address"
        }
      ],
      "stateMutability": "view",
      "type": "function"
    },
    {
      "inputs": [],
      "name": "buybackRate",
      "outputs": [
        {
          "internalType": "uint256",
          "name": "",
          "type": "uint256"
        }
      ],
      "stateMutability": "view",
      "type": "function"
    },
    {
      "inputs": [
        {
          "internalType": "uint256",
          "name": "amount",
          "type": "uint256"
        }
      ],
      "name": "calculateFee",
      "outputs": [
        {
          "internalType": "uint256",
          "name": "feeAmount",
          "type": "uint256"
        },
        {
          "internalType": "uint256",
          "name": "netAmount",
          "type": "uint256"
        }
      ],
      "stateMutability": "view",
      "type": "function"
    },
    {
      "inputs": [],
      "name": "decimals",
      "outputs": [
        {
          "internalType": "uint8",
          "name": "",
          "type": "uint8"
        }
      ],
      "stateMutability": "view",
      "type": "function"
    },
    {
      "inputs": [],
      "name": "emergencyRecoverETH",
      "outputs": [],
      "stateMutability": "nonpayable",
      "type": "function"
    },
    {
      "inputs": [
        {
          "internalType": "address",
          "name": "token",
          "type": "address"
        },
        {
          "internalType": "uint256",
          "name": "amount",
          "type": "uint256"
        }
      ],
      "name": "emergencyRecoverToken",
      "outputs": [],
      "stateMutability": "nonpayable",
      "type": "function"
    },
    {
      "inputs": [
        {
          "internalType": "address",
          "name": "",
          "type": "address"
        }
      ],
      "name": "feeExempt",
      "outputs": [
        {
          "internalType": "bool",
          "name": "",
          "type": "bool"
        }
      ],
      "stateMutability": "view",
      "type": "function"
    },
    {
      "inputs": [],
      "name": "getTotalFeeRate",
      "outputs": [
        {
          "internalType": "uint256",
          "name": "",
          "type": "uint256"
        }
      ],
      "stateMutability": "view",
      "type": "function"
    },
    {
      "inputs": [],
      "name": "liquidityRate",
      "outputs": [
        {
          "internalType": "uint256",
          "name": "",
          "type": "uint256"
        }
      ],
      "stateMutability": "view",
      "type": "function"
    },
    {
      "inputs": [],
      "name": "name",
      "outputs": [
        {
          "internalType": "string",
          "name": "",
          "type": "string"
        }
      ],
      "stateMutability": "view",
      "type": "function"
    },
    {
      "inputs": [],
      "name": "owner",
      "outputs": [
        {
          "internalType": "address",
          "name": "",
          "type": "address"
        }
      ],
      "stateMutability": "view",
      "type": "function"
    },
    {
      "inputs": [],
      "name": "renounceOwnership",
      "outputs": [],
      "stateMutability": "nonpayable",
      "type": "function"
    },
    {
      "inputs": [
        {
          "internalType": "address",
          "name": "_buyback",
          "type": "address"
        },
        {
          "internalType": "address",
          "name": "_vault",
          "type": "address"
        }
      ],
      "name": "setContracts",
      "outputs": [],
      "stateMutability": "nonpayable",
      "type": "function"
    },
    {
      "inputs": [
        {
          "internalType": "address",
          "name": "account",
          "type": "address"
        },
        {
          "internalType": "bool",
          "name": "exempt",
          "type": "bool"
        }
      ],
      "name": "setFeeExemption",
      "outputs": [],
      "stateMutability": "nonpayable",
      "type": "function"
    },
    {
      "inputs": [],
      "name": "symbol",
      "outputs": [
        {
          "internalType": "string",
          "name": "",
          "type": "string"
        }
      ],
      "stateMutability": "view",
      "type": "function"
    },
    {
      "inputs": [],
      "name": "totalSupply",
      "outputs": [
        {
          "internalType": "uint256",
          "name": "",
          "type": "uint256"
        }
      ],
      "stateMutability": "view",
      "type": "function"
    },
    {
      "inputs": [
        {
          "internalType": "address",
          "name": "to",
          "type": "address"
        },
        {
          "internalType": "uint256",
          "name": "value",
          "type": "uint256"
        }
      ],
      "name": "transfer",
      "outputs": [
        {
          "internalType": "bool",
          "name": "",
          "type": "bool"
        }
      ],
      "stateMutability": "nonpayable",
      "type": "function"
    },
    {
      "inputs": [
        {
          "internalType": "address",
          "name": "from",
          "type": "address"
        },
        {
          "internalType": "address",
          "name": "to",
          "type": "address"
        },
        {
          "internalType": "uint256",
          "name": "value",
          "type": "uint256"
        }
      ],
      "name": "transferFrom",
      "outputs": [
        {
          "internalType": "bool",
          "name": "",
          "type": "bool"
        }
      ],
      "stateMutability": "nonpayable",
      "type": "function"
    },
    {
      "inputs": [
        {
          "internalType": "address",
          "name": "newOwner",
          "type": "address"
        }
      ],
      "name": "transferOwnership",
      "outputs": [],
      "stateMutability": "nonpayable",
      "type": "function"
    },
    {
      "inputs": [
        {
          "internalType": "uint256",
          "name": "_buybackRate",
          "type": "uint256"
        },
        {
          "internalType": "uint256",
          "name": "_liquidityRate",
          "type": "uint256"
        }
      ],
      "name": "updateFeeRates",
      "outputs": [],
      "stateMutability": "nonpayable",
      "type": "function"
    },
    {
      "inputs": [],
      "name": "vaultContract",
      "outputs": [
        {
          "internalType": "address",
          "name": "",
          "type": "address"
        }
      ],
      "stateMutability": "view",
      "type": "function"
    }
  ],
  "bytecode": "0x60806040526002600855600360095534801561001a57600080fd5b50604051611aae380380611aae83398101604081905261003991610617565b604051806040016040528060048152602001634d6f746f60e01b815250604051806040016040528060048152602001634d4f544f60e01b8152508260006001600160a01b0316816001600160a01b0316036100af57604051631e4fbdf760e01b8152600060048201526024015b60405180910390fd5b6100b881610180565b5060046100c583826106e6565b5060056100d282826106e6565b5050506001600160a01b03811661012b5760405162461bcd60e51b815260206004820181905260248201527f4d6f746f546f6b656e3a20696e76616c6964206f776e6572206164647265737360448201526064016100a6565b6001600160a01b0381166000908152600a60205260408082208054600160ff199182168117909255308452919092208054909116909117905561017a816b033b2e3c9fd0803ce80000006101d0565b5061081f565b600080546001600160a01b038381166001600160a01b0319831681178455604051919092169283917f8be0079c531659141344cd1fd0a4f28419497f9722a3daafe3b4186f6b6457e09190a35050565b6001600160a01b0382166101fa5760405163ec442f0560e01b8152600060048201526024016100a6565b6102066000838361020a565b5050565b6001600160a01b038316156102f1576001600160a01b03821661027b5760405162461bcd60e51b815260206004820152602360248201527f45524332303a207472616e7366657220746f20746865207a65726f206164647260448201526265737360e81b60648201526084016100a6565b600081116102f15760405162461bcd60e51b815260206004820152603460248201527f4d6f746f546f6b656e3a207472616e7366657220616d6f756e74206d7573742060448201527f62652067726561746572207468616e207a65726f00000000000000000000000060648201526084016100a6565b6001600160a01b0383166000908152600a602052604081205460ff1615801561033357506001600160a01b0383166000908152600a602052604090205460ff16155b801561034957506006546001600160a01b031615155b801561035f57506007546001600160a01b031615155b905080801561037d5750600060095460085461037b91906107ba565b115b156103e557600060095460085461039491906107ba565b9050600060646103a483866107d3565b6103ae91906107ea565b905060006103bc828661080c565b90506103c98730846103f6565b6103d282610520565b6103dd8787836103f6565b5050506103f0565b6103f08484846103f6565b50505050565b6001600160a01b03831661042157806003600082825461041691906107ba565b909155506104939050565b6001600160a01b038316600090815260016020526040902054818110156104745760405163391434e360e21b81526001600160a01b038516600482015260248101829052604481018390526064016100a6565b6001600160a01b03841660009081526001602052604090209082900390555b6001600160a01b0382166104af576003805482900390556104ce565b6001600160a01b03821660009081526001602052604090208054820190555b816001600160a01b0316836001600160a01b03167fddf252ad1be2c89b69c2b068fc378daa952ba7f163c4a11628f55a4df523b3ef8360405161051391815260200190565b60405180910390a3505050565b8060000361052b5750565b600060095460085461053d91906107ba565b90506000816008548461055091906107d3565b61055a91906107ea565b90506000610568828561080c565b905060008211801561058457506006546001600160a01b031615155b156105a1576006546105a19030906001600160a01b0316846103f6565b6000811180156105bb57506007546001600160a01b031615155b156105d8576007546105d89030906001600160a01b0316836103f6565b60408051838152602081018390527f771d362663b46bd788cd13fc183c9432449a2be6bcb81051bfeb484afd9c5dd8910160405180910390a150505050565b60006020828403121561062957600080fd5b81516001600160a01b038116811461064057600080fd5b9392505050565b634e487b7160e01b600052604160045260246000fd5b600181811c9082168061067157607f821691505b60208210810361069157634e487b7160e01b600052602260045260246000fd5b50919050565b601f8211156106e157806000526020600020601f840160051c810160208510156106be5750805b601f840160051c820191505b818110156106de57600081556001016106ca565b50505b505050565b81516001600160401b038111156106ff576106ff610647565b6107138161070d845461065d565b84610697565b6020601f821160018114610747576000831561072f5750848201515b600019600385901b1c1916600184901b1784556106de565b600084815260208120601f198516915b828110156107775787850151825560209485019460019092019101610757565b50848210156107955786840151600019600387901b60f8161c191681555b50505050600190811b01905550565b634e487b7160e01b600052601160045260246000fd5b808201808211156107cd576107cd6107a4565b92915050565b80820281158282048414176107cd576107cd6107a4565b60008261080757634e487b7160e01b600052601260045260246000fd5b500490565b818103818111156107cd576107cd6107a4565b6112808061082e6000396000f3fe608060405234801561001057600080fd5b50600436106101a95760003560e01c8063751fd179116100f957806395d89b4111610097578063d8952a4911610071578063d8952a4914610393578063dd62ed3e146103a6578063f2fde38b146103df578063f76024c4146103f257600080fd5b806395d89b411461035057806399a5d74714610358578063a9059cbb1461038057600080fd5b8063894e47e1116100d3578063894e47e11461031c5780638da5cb5b14610324578063902d55a51461033557806392f6576e1461034857600080fd5b8063751fd179146102e357806379020194146102f65780638542b3361461030957600080fd5b80632274346b11610166578063398daa8511610140578063398daa8514610286578063548cbeb0146102a957806370a08231146102b2578063715018a6146102db57600080fd5b80632274346b1461025157806323b872dd14610264578063313ce5671461027757600080fd5b806306fdde03146101ae578063095ea7b3146101cc5780630c8797c3146101ef57806318160ddd14610222578063186e2d77146102345780631bca05241461023e575b600080fd5b6101b66103fb565b6040516101c39190610fd8565b60405180910390f35b6101df6101da366004611042565b61048d565b60405190151581526020016101c3565b61020a73327df1e6de05895d2ab08513aadd9313fe505d8681565b6040516001600160a01b0390911681526020016101c3565b6003545b6040519081526020016101c3565b61023c6104a7565b005b61023c61024c36600461106c565b6104ec565b60075461020a906001600160a01b031681565b6101df61027236600461108e565b6105a7565b604051601281526020016101c3565b6101df6102943660046110cb565b600a6020526000908152604090205460ff1681565b61022660095481565b6102266102c03660046110cb565b6001600160a01b031660009081526001602052604090205490565b61023c6105cb565b61023c6102f13660046110fb565b6105df565b61023c610304366004611042565b610699565b60065461020a906001600160a01b031681565b61022661079e565b6000546001600160a01b031661020a565b6102266b033b2e3c9fd0803ce800000081565b610226600a81565b6101b66107b5565b61036b610366366004611132565b6107c4565b604080519283526020830191909152016101c3565b6101df61038e366004611042565b610805565b61023c6103a136600461114b565b610813565b6102266103b436600461114b565b6001600160a01b03918216600090815260026020908152604080832093909416825291909152205490565b61023c6103ed3660046110cb565b610966565b61022660085481565b60606004805461040a9061117e565b80601f01602080910402602001604051908101604052809291908181526020018280546104369061117e565b80156104835780601f1061045857610100808354040283529160200191610483565b820191906000526020600020905b81548152906001019060200180831161046657829003601f168201915b5050505050905090565b60003361049b8185856109a1565b60019150505b92915050565b6104af6109ae565b600080546040516001600160a01b03909116914780156108fc02929091818181858888f193505050501580156104e9573d6000803e3d6000fd5b50565b6104f46109ae565b600a61050082846111ce565b111561055f5760405162461bcd60e51b8152602060048201526024808201527f4d6f746f546f6b656e3a20746f74616c206665652065786365656473206d6178604482015263696d756d60e01b60648201526084015b60405180910390fd5b6008829055600981905560408051838152602081018390527f4f672c50736ba0fe8a4825ecfde8bcd931727422a77ac89af44fccce2746e0b391015b60405180910390a15050565b6000336105b58582856109db565b6105c0858585610a5a565b506001949350505050565b6105d36109ae565b6105dd6000610ab9565b565b6105e76109ae565b6001600160a01b03821661063d5760405162461bcd60e51b815260206004820152601a60248201527f4d6f746f546f6b656e3a20696e76616c696420616464726573730000000000006044820152606401610556565b6001600160a01b0382166000818152600a6020908152604091829020805460ff19168515159081179091558251938452908301527f69e34a174b4a0cce59950c4c852317e9797bdcae125fbf8b5dd8b4311384412f910161059b565b6106a16109ae565b306001600160a01b038316036107075760405162461bcd60e51b815260206004820152602560248201527f4d6f746f546f6b656e3a2063616e6e6f74207265636f766572204d4f544f20746044820152646f6b656e7360d81b6064820152608401610556565b816001600160a01b031663a9059cbb6107286000546001600160a01b031690565b6040516001600160e01b031960e084901b1681526001600160a01b039091166004820152602481018490526044016020604051808303816000875af1158015610775573d6000803e3d6000fd5b505050506040513d601f19601f8201168201806040525081019061079991906111e1565b505050565b60006009546008546107b091906111ce565b905090565b60606005805461040a9061117e565b60008060006009546008546107d991906111ce565b905060646107e782866111fe565b6107f19190611215565b92506107fd8385611237565b915050915091565b60003361049b818585610a5a565b61081b6109ae565b6001600160a01b03821661087c5760405162461bcd60e51b815260206004820152602260248201527f4d6f746f546f6b656e3a20696e76616c6964206275796261636b206164647265604482015261737360f01b6064820152608401610556565b6001600160a01b0381166108d25760405162461bcd60e51b815260206004820181905260248201527f4d6f746f546f6b656e3a20696e76616c6964207661756c7420616464726573736044820152606401610556565b600680546001600160a01b038481166001600160a01b03199283168117909355600780549185169190921681179091556000828152600a60209081526040808320805460ff1990811660019081179092558585529382902080549094161790925581519384528301919091527f14d346cbf9ffe1d19b9746e0b9391e5a4acb05399f4cc217d3a20391bbdbb44f910161059b565b61096e6109ae565b6001600160a01b03811661099857604051631e4fbdf760e01b815260006004820152602401610556565b6104e981610ab9565b6107998383836001610b09565b6000546001600160a01b031633146105dd5760405163118cdaa760e01b8152336004820152602401610556565b6001600160a01b03838116600090815260026020908152604080832093861683529290522054600019811015610a545781811015610a4557604051637dc7a0d960e11b81526001600160a01b03841660048201526024810182905260448101839052606401610556565b610a5484848484036000610b09565b50505050565b6001600160a01b038316610a8457604051634b637e8f60e11b815260006004820152602401610556565b6001600160a01b038216610aae5760405163ec442f0560e01b815260006004820152602401610556565b610799838383610bde565b600080546001600160a01b038381166001600160a01b0319831681178455604051919092169283917f8be0079c531659141344cd1fd0a4f28419497f9722a3daafe3b4186f6b6457e09190a35050565b6001600160a01b038416610b335760405163e602df0560e01b815260006004820152602401610556565b6001600160a01b038316610b5d57604051634a1406b160e11b815260006004820152602401610556565b6001600160a01b0380851660009081526002602090815260408083209387168352929052208290558015610a5457826001600160a01b0316846001600160a01b03167f8c5be1e5ebec7d5bd14f71427d1e84f3dd0314c0f7b2291e5b200ac8c7c3b92584604051610bd091815260200190565b60405180910390a350505050565b6001600160a01b03831615610cbc576001600160a01b038216610c4f5760405162461bcd60e51b815260206004820152602360248201527f45524332303a207472616e7366657220746f20746865207a65726f206164647260448201526265737360e81b6064820152608401610556565b60008111610cbc5760405162461bcd60e51b815260206004820152603460248201527f4d6f746f546f6b656e3a207472616e7366657220616d6f756e74206d7573742060448201527362652067726561746572207468616e207a65726f60601b6064820152608401610556565b6001600160a01b0383166000908152600a602052604081205460ff16158015610cfe57506001600160a01b0383166000908152600a602052604090205460ff16155b8015610d1457506006546001600160a01b031615155b8015610d2a57506007546001600160a01b031615155b9050808015610d4857506000600954600854610d4691906111ce565b115b15610db0576000600954600854610d5f91906111ce565b905060006064610d6f83866111fe565b610d799190611215565b90506000610d878286611237565b9050610d94873084610db7565b610d9d82610ee1565b610da8878783610db7565b505050610a54565b610a548484845b6001600160a01b038316610de2578060036000828254610dd791906111ce565b90915550610e549050565b6001600160a01b03831660009081526001602052604090205481811015610e355760405163391434e360e21b81526001600160a01b03851660048201526024810182905260448101839052606401610556565b6001600160a01b03841660009081526001602052604090209082900390555b6001600160a01b038216610e7057600380548290039055610e8f565b6001600160a01b03821660009081526001602052604090208054820190555b816001600160a01b0316836001600160a01b03167fddf252ad1be2c89b69c2b068fc378daa952ba7f163c4a11628f55a4df523b3ef83604051610ed491815260200190565b60405180910390a3505050565b80600003610eec5750565b6000600954600854610efe91906111ce565b905060008160085484610f1191906111fe565b610f1b9190611215565b90506000610f298285611237565b9050600082118015610f4557506006546001600160a01b031615155b15610f6257600654610f629030906001600160a01b031684610db7565b600081118015610f7c57506007546001600160a01b031615155b15610f9957600754610f999030906001600160a01b031683610db7565b60408051838152602081018390527f771d362663b46bd788cd13fc183c9432449a2be6bcb81051bfeb484afd9c5dd8910160405180910390a150505050565b602081526000825180602084015260005b818110156110065760208186018101516040868401015201610fe9565b506000604082850101526040601f19601f83011684010191505092915050565b80356001600160a01b038116811461103d57600080fd5b919050565b6000806040838503121561105557600080fd5b61105e83611026565b946020939093013593505050565b6000806040838503121561107f57600080fd5b50508035926020909101359150565b6000806000606084860312156110a357600080fd5b6110ac84611026565b92506110ba60208501611026565b929592945050506040919091013590565b6000602082840312156110dd57600080fd5b6110e682611026565b9392505050565b80151581146104e957600080fd5b6000806040838503121561110e57600080fd5b61111783611026565b91506020830135611127816110ed565b809150509250929050565b60006020828403121561114457600080fd5b5035919050565b6000806040838503121561115e57600080fd5b61116783611026565b915061117560208401611026565b90509250929050565b600181811c9082168061119257607f821691505b6020821081036111b257634e487b7160e01b600052602260045260246000fd5b50919050565b634e487b7160e01b600052601160045260246000fd5b808201808211156104a1576104a16111b8565b6000602082840312156111f357600080fd5b81516110e6816110ed565b80820281158282048414176104a1576104a16111b8565b60008261123257634e487b7160e01b600052601260045260246000fd5b500490565b818103818111156104a1576104a16111b856fea26469706673582212200cefd875590e0883c7ca237fb48f85924da69bf7eeae685cbec1e2bbb7b0c72464736f6c634300081b0033",
  "linkReferences": {},
  "deployedLinkReferences": {}
}