{
  "_format": "hh-sol-artifact-1",
  "contractName": "MotoToken",
  "sourceName": "contracts/MotoToken.sol",
  "abi": [
    {
      "inputs": [
        {
          "internalType": "address",
          "name": "initialOwner",
          "type": "address"
        }
      ],
      "stateMutability": "nonpayable",
      "type": "constructor"
    },
    {
      "inputs": [
        {
          "internalType": "address",
          "name": "spender",
          "type": "address"
        },
        {
          "internalType": "uint256",
          "name": "allowance",
          "type": "uint256"
        },
        {
          "internalType": "uint256",
          "name": "needed",
          "type": "uint256"
        }
      ],
      "name": "ERC20InsufficientAllowance",
      "type": "error"
    },
    {
      "inputs": [
        {
          "internalType": "address",
          "name": "sender",
          "type": "address"
        },
        {
          "internalType": "uint256",
          "name": "balance",
          "type": "uint256"
        },
        {
          "internalType": "uint256",
          "name": "needed",
          "type": "uint256"
        }
      ],
      "name": "ERC20InsufficientBalance",
      "type": "error"
    },
    {
      "inputs": [
        {
          "internalType": "address",
          "name": "approver",
          "type": "address"
        }
      ],
      "name": "ERC20InvalidApprover",
      "type": "error"
    },
    {
      "inputs": [
        {
          "internalType": "address",
          "name": "receiver",
          "type": "address"
        }
      ],
      "name": "ERC20InvalidReceiver",
      "type": "error"
    },
    {
      "inputs": [
        {
          "internalType": "address",
          "name": "sender",
          "type": "address"
        }
      ],
      "name": "ERC20InvalidSender",
      "type": "error"
    },
    {
      "inputs": [
        {
          "internalType": "address",
          "name": "spender",
          "type": "address"
        }
      ],
      "name": "ERC20InvalidSpender",
      "type": "error"
    },
    {
      "inputs": [
        {
          "internalType": "address",
          "name": "owner",
          "type": "address"
        }
      ],
      "name": "OwnableInvalidOwner",
      "type": "error"
    },
    {
      "inputs": [
        {
          "internalType": "address",
          "name": "account",
          "type": "address"
        }
      ],
      "name": "OwnableUnauthorizedAccount",
      "type": "error"
    },
    {
      "anonymous": false,
      "inputs": [
        {
          "indexed": true,
          "internalType": "address",
          "name": "owner",
          "type": "address"
        },
        {
          "indexed": true,
          "internalType": "address",
          "name": "spender",
          "type": "address"
        },
        {
          "indexed": false,
          "internalType": "uint256",
          "name": "value",
          "type": "uint256"
        }
      ],
      "name": "Approval",
      "type": "event"
    },
    {
      "anonymous": false,
      "inputs": [
        {
          "indexed": false,
          "internalType": "address",
          "name": "buyback",
          "type": "address"
        },
        {
          "indexed": false,
          "internalType": "address",
          "name": "vault",
          "type": "address"
        }
      ],
      "name": "ContractsUpdated",
      "type": "event"
    },
    {
      "anonymous": false,
      "inputs": [
        {
          "indexed": false,
          "internalType": "address",
          "name": "account",
          "type": "address"
        },
        {
          "indexed": false,
          "internalType": "bool",
          "name": "exempt",
          "type": "bool"
        }
      ],
      "name": "FeeExemptionUpdated",
      "type": "event"
    },
    {
      "anonymous": false,
      "inputs": [
        {
          "indexed": false,
          "internalType": "uint256",
          "name": "buybackRate",
          "type": "uint256"
        },
        {
          "indexed": false,
          "internalType": "uint256",
          "name": "liquidityRate",
          "type": "uint256"
        }
      ],
      "name": "FeeRatesUpdated",
      "type": "event"
    },
    {
      "anonymous": false,
      "inputs": [
        {
          "indexed": false,
          "internalType": "uint256",
          "name": "buybackAmount",
          "type": "uint256"
        },
        {
          "indexed": false,
          "internalType": "uint256",
          "name": "liquidityAmount",
          "type": "uint256"
        }
      ],
      "name": "FeesDistributed",
      "type": "event"
    },
    {
      "anonymous": false,
      "inputs": [
        {
          "indexed": true,
          "internalType": "address",
          "name": "previousOwner",
          "type": "address"
        },
        {
          "indexed": true,
          "internalType": "address",
          "name": "newOwner",
          "type": "address"
        }
      ],
      "name": "OwnershipTransferred",
      "type": "event"
    },
    {
      "anonymous": false,
      "inputs": [
        {
          "indexed": true,
          "internalType": "address",
          "name": "from",
          "type": "address"
        },
        {
          "indexed": true,
          "internalType": "address",
          "name": "to",
          "type": "address"
        },
        {
          "indexed": false,
          "internalType": "uint256",
          "name": "value",
          "type": "uint256"
        }
      ],
      "name": "Transfer",
      "type": "event"
    },
    {
      "inputs": [],
      "name": "BASE_SWAP_ROUTER",
      "outputs": [
        {
          "internalType": "address",
          "name": "",
          "type": "address"
        }
      ],
      "stateMutability": "view",
      "type": "function"
    },
    {
      "inputs": [],
      "name": "MAX_FEE_RATE",
      "outputs": [
        {
          "internalType": "uint256",
          "name": "",
          "type": "uint256"
        }
      ],
      "stateMutability": "view",
      "type": "function"
    },
    {
      "inputs": [],
      "name": "TOTAL_SUPPLY",
      "outputs": [
        {
          "internalType": "uint256",
          "name": "",
          "type": "uint256"
        }
      ],
      "stateMutability": "view",
      "type": "function"
    },
    {
      "inputs": [
        {
          "internalType": "address",
          "name": "owner",
          "type": "address"
        },
        {
          "internalType": "address",
          "name": "spender",
          "type": "address"
        }
      ],
      "name": "allowance",
      "outputs": [
        {
          "internalType": "uint256",
          "name": "",
          "type": "uint256"
        }
      ],
      "stateMutability": "view",
      "type": "function"
    },
    {
      "inputs": [
        {
          "internalType": "address",
          "name": "spender",
          "type": "address"
        },
        {
          "internalType": "uint256",
          "name": "value",
          "type": "uint256"
        }
      ],
      "name": "approve",
      "outputs": [
        {
          "internalType": "bool",
          "name": "",
          "type": "bool"
        }
      ],
      "stateMutability": "nonpayable",
      "type": "function"
    },
    {
      "inputs": [
        {
          "internalType": "address",
          "name": "account",
          "type": "address"
        }
      ],
      "name": "balanceOf",
      "outputs": [
        {
          "internalType": "uint256",
          "name": "",
          "type": "uint256"
        }
      ],
      "stateMutability": "view",
      "type": "function"
    },
    {
      "inputs": [],
      "name": "buybackContract",
      "outputs": [
        {
          "internalType": "address",
          "name": "",
          "type": "address"
        }
      ],
      "stateMutability": "view",
      "type": "function"
    },
    {
      "inputs": [],
      "name": "buybackRate",
      "outputs": [
        {
          "internalType": "uint256",
          "name": "",
          "type": "uint256"
        }
      ],
      "stateMutability": "view",
      "type": "function"
    },
    {
      "inputs": [
        {
          "internalType": "uint256",
          "name": "amount",
          "type": "uint256"
        }
      ],
      "name": "calculateFee",
      "outputs": [
        {
          "internalType": "uint256",
          "name": "feeAmount",
          "type": "uint256"
        },
        {
          "internalType": "uint256",
          "name": "netAmount",
          "type": "uint256"
        }
      ],
      "stateMutability": "view",
      "type": "function"
    },
    {
      "inputs": [],
      "name": "decimals",
      "outputs": [
        {
          "internalType": "uint8",
          "name": "",
          "type": "uint8"
        }
      ],
      "stateMutability": "view",
      "type": "function"
    },
    {
      "inputs": [],
      "name": "emergencyRecoverETH",
      "outputs": [],
      "stateMutability": "nonpayable",
      "type": "function"
    },
    {
      "inputs": [
        {
          "internalType": "address",
          "name": "token",
          "type": "address"
        },
        {
          "internalType": "uint256",
          "name": "amount",
          "type": "uint256"
        }
      ],
      "name": "emergencyRecoverToken",
      "outputs": [],
      "stateMutability": "nonpayable",
      "type": "function"
    },
    {
      "inputs": [
        {
          "internalType": "address",
          "name": "",
          "type": "address"
        }
      ],
      "name": "feeExempt",
      "outputs": [
        {
          "internalType": "bool",
          "name": "",
          "type": "bool"
        }
      ],
      "stateMutability": "view",
      "type": "function"
    },
    {
      "inputs": [],
      "name": "getTotalFeeRate",
      "outputs": [
        {
          "internalType": "uint256",
          "name": "",
          "type": "uint256"
        }
      ],
      "stateMutability": "view",
      "type": "function"
    },
    {
      "inputs": [],
      "name": "liquidityRate",
      "outputs": [
        {
          "internalType": "uint256",
          "name": "",
          "type": "uint256"
        }
      ],
      "stateMutability": "view",
      "type": "function"
    },
    {
      "inputs": [],
      "name": "name",
      "outputs": [
        {
          "internalType": "string",
          "name": "",
          "type": "string"
        }
      ],
      "stateMutability": "view",
      "type": "function"
    },
    {
      "inputs": [],
      "name": "owner",
      "outputs": [
        {
          "internalType": "address",
          "name": "",
          "type": "address"
        }
      ],
      "stateMutability": "view",
      "type": "function"
    },
    {
      "inputs": [],
      "name": "renounceOwnership",
      "outputs": [],
      "stateMutability": "nonpayable",
      "type": "function"
    },
    {
      "inputs": [
        {
          "internalType": "address",
          "name": "_buyback",
          "type": "address"
        },
        {
          "internalType": "address",
          "name": "_vault",
          "type": "address"
        }
      ],
      "name": "setContracts",
      "outputs": [],
      "stateMutability": "nonpayable",
      "type": "function"
    },
    {
      "inputs": [
        {
          "internalType": "address",
          "name": "account",
          "type": "address"
        },
        {
          "internalType": "bool",
          "name": "exempt",
          "type": "bool"
        }
      ],
      "name": "setFeeExemption",
      "outputs": [],
      "stateMutability": "nonpayable",
      "type": "function"
    },
    {
      "inputs": [],
      "name": "symbol",
      "outputs": [
        {
          "internalType": "string",
          "name": "",
          "type": "string"
        }
      ],
      "stateMutability": "view",
      "type": "function"
    },
    {
      "inputs": [],
      "name": "totalSupply",
      "outputs": [
        {
          "internalType": "uint256",
          "name": "",
          "type": "uint256"
        }
      ],
      "stateMutability": "view",
      "type": "function"
    },
    {
      "inputs": [
        {
          "internalType": "address",
          "name": "to",
          "type": "address"
        },
        {
          "internalType": "uint256",
          "name": "value",
          "type": "uint256"
        }
      ],
      "name": "transfer",
      "outputs": [
        {
          "internalType": "bool",
          "name": "",
          "type": "bool"
        }
      ],
      "stateMutability": "nonpayable",
      "type": "function"
    },
    {
      "inputs": [
        {
          "internalType": "address",
          "name": "from",
          "type": "address"
        },
        {
          "internalType": "address",
          "name": "to",
          "type": "address"
        },
        {
          "internalType": "uint256",
          "name": "value",
          "type": "uint256"
        }
      ],
      "name": "transferFrom",
      "outputs": [
        {
          "internalType": "bool",
          "name": "",
          "type": "bool"
        }
      ],
      "stateMutability": "nonpayable",
      "type": "function"
    },
    {
      "inputs": [
        {
          "internalType": "address",
          "name": "newOwner",
          "type": "address"
        }
      ],
      "name": "transferOwnership",
      "outputs": [],
      "stateMutability": "nonpayable",
      "type": "function"
    },
    {
      "inputs": [
        {
          "internalType": "uint256",
          "name": "_buybackRate",
          "type": "uint256"
        },
        {
          "internalType": "uint256",
          "name": "_liquidityRate",
          "type": "uint256"
        }
      ],
      "name": "updateFeeRates",
      "outputs": [],
      "stateMutability": "nonpayable",
      "type": "function"
    },
    {
      "inputs": [],
      "name": "vaultContract",
      "outputs": [
        {
          "internalType": "address",
          "name": "",
          "type": "address"
        }
      ],
      "stateMutability": "view",
      "type": "function"
    }
  ],
  "bytecode": "0x60806040526002600855600360095534801561001a57600080fd5b50604051611cba380380611cba833981016040819052610039916106d9565b604051806040016040528060048152602001634d6f746f60e01b815250604051806040016040528060048152602001634d4f544f60e01b8152508260006001600160a01b0316816001600160a01b0316036100af57604051631e4fbdf760e01b8152600060048201526024015b60405180910390fd5b6100b881610189565b5060046100c583826107a7565b5060056100d282826107a7565b5050506001600160a01b03811661012b5760405162461bcd60e51b815260206004820181905260248201527f4d6f746f546f6b656e3a20696e76616c6964206f776e6572206164647265737360448201526064016100a6565b61014c3361013b6012600a610964565b610147906103e8610973565b6101d9565b6001600160a01b03166000908152600a60205260408082208054600160ff19918216811790925530845291909220805490911690911790556109d2565b600080546001600160a01b038381166001600160a01b0319831681178455604051919092169283917f8be0079c531659141344cd1fd0a4f28419497f9722a3daafe3b4186f6b6457e09190a35050565b6001600160a01b0382166102035760405163ec442f0560e01b8152600060048201526024016100a6565b61020f60008383610213565b5050565b6001600160a01b0383166102775760405162461bcd60e51b815260206004820152602560248201527f45524332303a207472616e736665722066726f6d20746865207a65726f206164604482015264647265737360d81b60648201526084016100a6565b6001600160a01b0382166102d95760405162461bcd60e51b815260206004820152602360248201527f45524332303a207472616e7366657220746f20746865207a65726f206164647260448201526265737360e81b60648201526084016100a6565b6000811161034f5760405162461bcd60e51b815260206004820152603460248201527f4d6f746f546f6b656e3a207472616e7366657220616d6f756e74206d7573742060448201527f62652067726561746572207468616e207a65726f00000000000000000000000060648201526084016100a6565b6001600160a01b0383166000908152600a602052604081205460ff1615801561039157506001600160a01b0383166000908152600a602052604090205460ff16155b80156103a757506006546001600160a01b031615155b80156103bd57506007546001600160a01b031615155b90508080156103db575060006009546008546103d9919061098a565b115b156104435760006009546008546103f2919061098a565b9050600060646104028386610973565b61040c919061099d565b9050600061041a82866109bf565b9050610427873084610454565b6104308261057e565b61043b878783610454565b50505061044e565b61044e848484610675565b50505050565b6001600160a01b03831661047f578060036000828254610474919061098a565b909155506104f19050565b6001600160a01b038316600090815260016020526040902054818110156104d25760405163391434e360e21b81526001600160a01b038516600482015260248101829052604481018390526064016100a6565b6001600160a01b03841660009081526001602052604090209082900390555b6001600160a01b03821661050d5760038054829003905561052c565b6001600160a01b03821660009081526001602052604090208054820190555b816001600160a01b0316836001600160a01b03167fddf252ad1be2c89b69c2b068fc378daa952ba7f163c4a11628f55a4df523b3ef8360405161057191815260200190565b60405180910390a3505050565b806000036105895750565b600060095460085461059b919061098a565b9050600081600854846105ae9190610973565b6105b8919061099d565b905060006105c682856109bf565b90506000821180156105e257506006546001600160a01b031615155b156105ff576006546105ff9030906001600160a01b031684610454565b60008111801561061957506007546001600160a01b031615155b15610636576007546106369030906001600160a01b031683610454565b60408051838152602081018390527f771d362663b46bd788cd13fc183c9432449a2be6bcb81051bfeb484afd9c5dd8910160405180910390a150505050565b6001600160a01b03831661069f57604051634b637e8f60e11b8152600060048201526024016100a6565b6001600160a01b0382166106c95760405163ec442f0560e01b8152600060048201526024016100a6565b6106d4838383610213565b505050565b6000602082840312156106eb57600080fd5b81516001600160a01b038116811461070257600080fd5b9392505050565b634e487b7160e01b600052604160045260246000fd5b600181811c9082168061073357607f821691505b60208210810361075357634e487b7160e01b600052602260045260246000fd5b50919050565b601f8211156106d457806000526020600020601f840160051c810160208510156107805750805b601f840160051c820191505b818110156107a0576000815560010161078c565b5050505050565b81516001600160401b038111156107c0576107c0610709565b6107d4816107ce845461071f565b84610759565b6020601f82116001811461080857600083156107f05750848201515b600019600385901b1c1916600184901b1784556107a0565b600084815260208120601f198516915b828110156108385787850151825560209485019460019092019101610818565b50848210156108565786840151600019600387901b60f8161c191681555b50505050600190811b01905550565b634e487b7160e01b600052601160045260246000fd5b6001815b60018411156108b65780850481111561089a5761089a610865565b60018416156108a857908102905b60019390931c92800261087f565b935093915050565b6000826108cd5750600161095e565b816108da5750600061095e565b81600181146108f057600281146108fa57610916565b600191505061095e565b60ff84111561090b5761090b610865565b50506001821b61095e565b5060208310610133831016604e8410600b8410161715610939575081810a61095e565b610946600019848461087b565b806000190482111561095a5761095a610865565b0290505b92915050565b600061070260ff8416836108be565b808202811582820484141761095e5761095e610865565b8082018082111561095e5761095e610865565b6000826109ba57634e487b7160e01b600052601260045260246000fd5b500490565b8181038181111561095e5761095e610865565b6112d9806109e16000396000f3fe608060405234801561001057600080fd5b50600436106101a95760003560e01c8063751fd179116100f957806395d89b4111610097578063d8952a4911610071578063d8952a4914610393578063dd62ed3e146103a6578063f2fde38b146103df578063f76024c4146103f257600080fd5b806395d89b411461035057806399a5d74714610358578063a9059cbb1461038057600080fd5b8063894e47e1116100d3578063894e47e11461031c5780638da5cb5b14610324578063902d55a51461033557806392f6576e1461034857600080fd5b8063751fd179146102e357806379020194146102f65780638542b3361461030957600080fd5b80632274346b11610166578063398daa8511610140578063398daa8514610286578063548cbeb0146102a957806370a08231146102b2578063715018a6146102db57600080fd5b80632274346b1461025157806323b872dd14610264578063313ce5671461027757600080fd5b806306fdde03146101ae578063095ea7b3146101cc5780630c8797c3146101ef57806318160ddd14610222578063186e2d77146102345780631bca05241461023e575b600080fd5b6101b66103fb565b6040516101c39190611031565b60405180910390f35b6101df6101da36600461109b565b61048d565b60405190151581526020016101c3565b61020a73327df1e6de05895d2ab08513aadd9313fe505d8681565b6040516001600160a01b0390911681526020016101c3565b6003545b6040519081526020016101c3565b61023c6104a7565b005b61023c61024c3660046110c5565b6104ec565b60075461020a906001600160a01b031681565b6101df6102723660046110e7565b6105a7565b604051601281526020016101c3565b6101df610294366004611124565b600a6020526000908152604090205460ff1681565b61022660095481565b6102266102c0366004611124565b6001600160a01b031660009081526001602052604090205490565b61023c6105cb565b61023c6102f1366004611154565b6105df565b61023c61030436600461109b565b610699565b60065461020a906001600160a01b031681565b61022661079e565b6000546001600160a01b031661020a565b6102266b033b2e3c9fd0803ce800000081565b610226600a81565b6101b66107b5565b61036b61036636600461118b565b6107c4565b604080519283526020830191909152016101c3565b6101df61038e36600461109b565b610805565b61023c6103a13660046111a4565b610813565b6102266103b43660046111a4565b6001600160a01b03918216600090815260026020908152604080832093909416825291909152205490565b61023c6103ed366004611124565b610966565b61022660085481565b60606004805461040a906111d7565b80601f0160208091040260200160405190810160405280929190818152602001828054610436906111d7565b80156104835780601f1061045857610100808354040283529160200191610483565b820191906000526020600020905b81548152906001019060200180831161046657829003601f168201915b5050505050905090565b60003361049b8185856109a1565b60019150505b92915050565b6104af6109ae565b600080546040516001600160a01b03909116914780156108fc02929091818181858888f193505050501580156104e9573d6000803e3d6000fd5b50565b6104f46109ae565b600a6105008284611227565b111561055f5760405162461bcd60e51b8152602060048201526024808201527f4d6f746f546f6b656e3a20746f74616c206665652065786365656473206d6178604482015263696d756d60e01b60648201526084015b60405180910390fd5b6008829055600981905560408051838152602081018390527f4f672c50736ba0fe8a4825ecfde8bcd931727422a77ac89af44fccce2746e0b391015b60405180910390a15050565b6000336105b58582856109db565b6105c0858585610a5a565b506001949350505050565b6105d36109ae565b6105dd6000610ab9565b565b6105e76109ae565b6001600160a01b03821661063d5760405162461bcd60e51b815260206004820152601a60248201527f4d6f746f546f6b656e3a20696e76616c696420616464726573730000000000006044820152606401610556565b6001600160a01b0382166000818152600a6020908152604091829020805460ff19168515159081179091558251938452908301527f69e34a174b4a0cce59950c4c852317e9797bdcae125fbf8b5dd8b4311384412f910161059b565b6106a16109ae565b306001600160a01b038316036107075760405162461bcd60e51b815260206004820152602560248201527f4d6f746f546f6b656e3a2063616e6e6f74207265636f766572204d4f544f20746044820152646f6b656e7360d81b6064820152608401610556565b816001600160a01b031663a9059cbb6107286000546001600160a01b031690565b6040516001600160e01b031960e084901b1681526001600160a01b039091166004820152602481018490526044016020604051808303816000875af1158015610775573d6000803e3d6000fd5b505050506040513d601f19601f82011682018060405250810190610799919061123a565b505050565b60006009546008546107b09190611227565b905090565b60606005805461040a906111d7565b60008060006009546008546107d99190611227565b905060646107e78286611257565b6107f1919061126e565b92506107fd8385611290565b915050915091565b60003361049b818585610a5a565b61081b6109ae565b6001600160a01b03821661087c5760405162461bcd60e51b815260206004820152602260248201527f4d6f746f546f6b656e3a20696e76616c6964206275796261636b206164647265604482015261737360f01b6064820152608401610556565b6001600160a01b0381166108d25760405162461bcd60e51b815260206004820181905260248201527f4d6f746f546f6b656e3a20696e76616c6964207661756c7420616464726573736044820152606401610556565b600680546001600160a01b038481166001600160a01b03199283168117909355600780549185169190921681179091556000828152600a60209081526040808320805460ff1990811660019081179092558585529382902080549094161790925581519384528301919091527f14d346cbf9ffe1d19b9746e0b9391e5a4acb05399f4cc217d3a20391bbdbb44f910161059b565b61096e6109ae565b6001600160a01b03811661099857604051631e4fbdf760e01b815260006004820152602401610556565b6104e981610ab9565b6107998383836001610b09565b6000546001600160a01b031633146105dd5760405163118cdaa760e01b8152336004820152602401610556565b6001600160a01b03838116600090815260026020908152604080832093861683529290522054600019811015610a545781811015610a4557604051637dc7a0d960e11b81526001600160a01b03841660048201526024810182905260448101839052606401610556565b610a5484848484036000610b09565b50505050565b6001600160a01b038316610a8457604051634b637e8f60e11b815260006004820152602401610556565b6001600160a01b038216610aae5760405163ec442f0560e01b815260006004820152602401610556565b610799838383610bde565b600080546001600160a01b038381166001600160a01b0319831681178455604051919092169283917f8be0079c531659141344cd1fd0a4f28419497f9722a3daafe3b4186f6b6457e09190a35050565b6001600160a01b038416610b335760405163e602df0560e01b815260006004820152602401610556565b6001600160a01b038316610b5d57604051634a1406b160e11b815260006004820152602401610556565b6001600160a01b0380851660009081526002602090815260408083209387168352929052208290558015610a5457826001600160a01b0316846001600160a01b03167f8c5be1e5ebec7d5bd14f71427d1e84f3dd0314c0f7b2291e5b200ac8c7c3b92584604051610bd091815260200190565b60405180910390a350505050565b6001600160a01b038316610c425760405162461bcd60e51b815260206004820152602560248201527f45524332303a207472616e736665722066726f6d20746865207a65726f206164604482015264647265737360d81b6064820152608401610556565b6001600160a01b038216610ca45760405162461bcd60e51b815260206004820152602360248201527f45524332303a207472616e7366657220746f20746865207a65726f206164647260448201526265737360e81b6064820152608401610556565b60008111610d115760405162461bcd60e51b815260206004820152603460248201527f4d6f746f546f6b656e3a207472616e7366657220616d6f756e74206d7573742060448201527362652067726561746572207468616e207a65726f60601b6064820152608401610556565b6001600160a01b0383166000908152600a602052604081205460ff16158015610d5357506001600160a01b0383166000908152600a602052604090205460ff16155b8015610d6957506006546001600160a01b031615155b8015610d7f57506007546001600160a01b031615155b9050808015610d9d57506000600954600854610d9b9190611227565b115b15610e05576000600954600854610db49190611227565b905060006064610dc48386611257565b610dce919061126e565b90506000610ddc8286611290565b9050610de9873084610e10565b610df282610f3a565b610dfd878783610e10565b505050610a54565b610a54848484610a5a565b6001600160a01b038316610e3b578060036000828254610e309190611227565b90915550610ead9050565b6001600160a01b03831660009081526001602052604090205481811015610e8e5760405163391434e360e21b81526001600160a01b03851660048201526024810182905260448101839052606401610556565b6001600160a01b03841660009081526001602052604090209082900390555b6001600160a01b038216610ec957600380548290039055610ee8565b6001600160a01b03821660009081526001602052604090208054820190555b816001600160a01b0316836001600160a01b03167fddf252ad1be2c89b69c2b068fc378daa952ba7f163c4a11628f55a4df523b3ef83604051610f2d91815260200190565b60405180910390a3505050565b80600003610f455750565b6000600954600854610f579190611227565b905060008160085484610f6a9190611257565b610f74919061126e565b90506000610f828285611290565b9050600082118015610f9e57506006546001600160a01b031615155b15610fbb57600654610fbb9030906001600160a01b031684610e10565b600081118015610fd557506007546001600160a01b031615155b15610ff257600754610ff29030906001600160a01b031683610e10565b60408051838152602081018390527f771d362663b46bd788cd13fc183c9432449a2be6bcb81051bfeb484afd9c5dd8910160405180910390a150505050565b602081526000825180602084015260005b8181101561105f5760208186018101516040868401015201611042565b506000604082850101526040601f19601f83011684010191505092915050565b80356001600160a01b038116811461109657600080fd5b919050565b600080604083850312156110ae57600080fd5b6110b78361107f565b946020939093013593505050565b600080604083850312156110d857600080fd5b50508035926020909101359150565b6000806000606084860312156110fc57600080fd5b6111058461107f565b92506111136020850161107f565b929592945050506040919091013590565b60006020828403121561113657600080fd5b61113f8261107f565b9392505050565b80151581146104e957600080fd5b6000806040838503121561116757600080fd5b6111708361107f565b9150602083013561118081611146565b809150509250929050565b60006020828403121561119d57600080fd5b5035919050565b600080604083850312156111b757600080fd5b6111c08361107f565b91506111ce6020840161107f565b90509250929050565b600181811c908216806111eb57607f821691505b60208210810361120b57634e487b7160e01b600052602260045260246000fd5b50919050565b634e487b7160e01b600052601160045260246000fd5b808201808211156104a1576104a1611211565b60006020828403121561124c57600080fd5b815161113f81611146565b80820281158282048414176104a1576104a1611211565b60008261128b57634e487b7160e01b600052601260045260246000fd5b500490565b818103818111156104a1576104a161121156fea2646970667358221220fac65af4875b3897f0bc18a73b0fe9cd3086fd6086da8ec827d15971f39f1ef364736f6c634300081b0033",
  "linkReferences": {},
  "deployedLinkReferences": {}
}